:20000000483F0020858B000001CA011001CA011001CA011001CA011001CA011001CA011001
:1C00200001CA011001CA011001CA011001CA011001CA011001CA01103FCA011082
:20003C001FB58DF80C002448016824480088E0B123480068014218D022480068014204D1FD
:20005C0021480068008801420FD0224840F29963046800930CA201929DF80C001C4B029097
:20007C001A881A4B186804A3A047032003A9012208F058F800901FBD70726F6A6563745F53
:20009C007A65726F2E6300C02843422920474150205374617465206368616E67653A20253F
:2000BC00642C2053656E64696E67206D736720746F206170702E00C084CA0000CCCA00000F
:2000DC00400500003C05000044050000A0CA00008405000098CA0000014908607047C04671
:0400FC00D0260020EA
:200100003C000000000000000000000034010000000000000000000001000000000000006D
:1C01200000000000000000000000000001000000000000000800000000000000BA
:20013C00340000000000000000000000680100000000000000000000010000000000000005
:14015C00010000000000000000000000080000000000000086
:2001700030000000000000000000000098010000040000000000000001000000FFFFFFFFA5
:10019000FF00000001000000080000000000000057
:2001A0002C0000000000000000000000C4010000040000000000000001000000FFFFFFFF4D
:0C01C000FFFFFFFF08000000000000002F
:2001CC0034050000E401000099A1011095A70110A5C2011009B2011045B80110000000000B
:0801EC000000000031000000DA
:2001F400280000000000000000000000140200000000000000000000FFFFFFFF00000000B1
:080214000800000000000000DA
:20021C00300500003002000069C201106DC101101FC2011095BA011000000000000000008E
:04023C002F0000008F
:20024000300500005402000075C20110A9B601109DBF011049B601100000000000000000DE
:04026000300000006A
:200264002400000000000000000000008002000000000000000000000000000008000000CC
:040284000000000076
:20028800240000000000000000000000A40200000000000000000000000000000800000084
:0402A8000000000052
:2002AC00240000000000000000000000C8020000000000000100000000000000080000003B
:0402CC00000000002E
:2002D00000000000A81700200400000000000000000000002000000070010000300000006A
:2002F0001C020000B01700200400000000000000000000000C00000030040000180000008D
:2003100040020000B817002004000000000000000000000024000000480400001800000010
:2003300000000000C017002004000000000000000000000010000000A00100002C000000D5
:20035000CC010000C817002004000000000000000000000020000000640200002400000013
:20037000FFFFFFFFD017002004000000000000000000000028000000880200002400000090
:20039000FFFFFFFFD8170020040000000000000000000000580000003C0100003400000075
:2003B000FFFFFFFFE01700200400000000000000000000001000000060040000180000008A
:2003D000FFFFFFFFE81700200400000000000000000000001C000000AC0200002400000000
:2003F000FFFFFFFFF017002004000000000000000000000038000000F40100002800000071
:20041000FFFFFFFFF817002004000000000000000000000054000000000100003C0000000C
:1804300018000000000000000000000040040000080000000000000050
:1804480018000000000000000000000058040000080000000000000020
:18046000180000000000000000000000700400000800000000000000F0
:080478000200000058CA000058
:040480000AF035BB8E
:040484000100000073
:0404880000008C0FD5
:04048C000000BC0FA1
:040490003200000036
:040494000100000063
:0404980038170020F1
:04049C00000200005A
:0404A0000000000058
:0404A40001CA011078
:0404A8000000000050
:0404AC00000000004C
:0404B0000800000040
:0404B40000007612BC
:0404B80020160020EA
:0404BC00010000003B
:0404C00050170020B1
:0404C400080000002C
:0404C8000000000030
:0404CC00000000002C
:0404D0000000000028
:0404D4000000000024
:0404D8000000000020
:0404DC00010000001B
:0404E000881600205A
:0404E400060000000E
:0404E800010000000F
:0404EC008C1500204B
:0404F0000000000008
:0404F4000000000004
:0404F80000020000FE
:0404FC0000000000FC
:02050000704742
:020502002900CE
:020504000100F4
:020506002400CF
:020508002F00C2
:02050A003000BF
:02050C003100BC
:02050E000100EA
:0105100001E9
:080514000300000024CA0000EE
:08051C000000000000000000D7
:040524000000930D33
:040528000000AD0D15
:04052C0087C401106F
:04053000380500008A
:040534003805000086
:0405380000000000BF
:04053C0090610000CA
:0405400090610000C6
:0405440000000000B3
:040548005017002028
:04054C00EBA600001A
:040550002000000087
:0405540064C9000076
:0405580004C80000D3
:04055C000DC30110BA
:04056000C797000039
:040564008B9D00006B
:0405680099C801101D
:04056C009BC8011017
:040570000000000087
:0405740010AD0000C6
:04057800B4C6000005
:04057C00CCC60000E9
:040580009CC6000015
:020584000280F3
:020586000380F0
:02058800C0179A
:02058A0001006E
:01058C00016D
:040590000000000067
:040594000000000063
:04059800000000005F
:04059C00000000005B
:0405A000F7AA0000B6
:0405A400459200007C
:0405A80015A000009A
:0405AC006596000050
:0405B000B592000000
:0405B400699A000040
:0405B800ED750000DD
:0405BC00CFA80000C4
:0405C000297F00008F
:0405C40011C8011049
:0405C80021C8011035
:0405CC000800000023
:0405D0002400000003
:0405D400180000000B
:0405D80028000000F7
:0405DC0020000000FB
:0405E0003C000000DB
:0405E4000C00000007
:0405E80034000000DB
:2005EC002DE9F04FADF1940D00F086FE95480488954801689548026895480068109101EA20
:20060C00020701401291934911970F68A9490D88A94909681491A94909681591A8490968EC
:20062C00169101EA020601401891A64917960968199101EA02060140A34800681C90A44854
:20064C0039301D90A2480F949D301E90A0481F9200F2C51020909E481A969C4C1B91BD3049
:20066C00219090A013900820ADF820000A26ADF822604FF0FF33099308A809F0E7F80028E9
:20068C00F1D100200C900826ADF820600923ADF8223008A809F0DAF8DDF828C0CDF888C015
:2006AC000028CDF830C040F02481BDF824004FF00108102840F0158120789DF82610884230
:2006CC0040F00F81664630884FF6FF71814200F091803378913B70D01F3B40F002817078C5
:2006EC000F9A162841D030797E282CD07F2818D01099131C5BD0119B002B58D0129B13B9A1
:20070C003888014253D040F225600090A3A3019330790290DDF854C0139B14982A46E04771
:20072C0045E01099002A42D0119B002B3FD0129B13B9388801423AD04FF4C460009090A30D
:20074C0001933089E5E71699002A30D0179B002B2DD0189B13B93888014228D040F21B609A
:20076C000090BCA30193307AD3E719999AB11A9B8BB11B9B13B9388801420CD040F20260A3
:20078C00A1A30090DDF854C001933079139B029014982A46E0477088082109F0D5F930B9FF
:2007AC00404604F067FA4FF00008666199E0317906F1080009F018FE93E070780E2840F052
:2007CC0090800F9E1099002E00F08B80119E002E00F08780129E1EB93888014200F081802F
:2007EC0040F2E550BAA6009000220196DDF854C0029252E07088000973D36669002E70D0AA
:20080C00A078B6F802B0401CA07096F804A0102009F02EFC06F10809061C1DD002211522F2
:20082C000AF048F8A6F808B086F80AA0C6F80C9009F02EFCAF4A314608F052FC0646162E31
:20084C000BD10DE0CCCA000084CA0000400500003C0500004405000004266069042E39D1E1
:20086C000F9E1999002E3CD01A9E002E39D01B9E16B93888014234D0606940F25A6200920C
:20088C00BBA6019600790290A07803900022049216460596DDF870C00692139B14982A4688
:2008AC00E0471EE070726F6A6563745F7A65726F2E6300C084050000A0CA000098CA00004B
:2008CC0080CA000088CA00009CCA0000C0070020C30700204088002109F036F9304604F0BE
:2008EC00C9F90C9E2EB1B8F1000F02D0229809F0ABFD20690AF002FA00287FF4B4AE2069B7
:20090C000AF0F8F9834602462379DDF83CC09BF80810E0680BF10906072900F27B84DFE87C
:20092C0011F0FB021202770176043F01EB0008004A0473B1BB48C4F8FC000126C4F8006103
:20094C001D9AC4F804210621C4F80811682684F80C61B4494320012B087002D10AF0C6F9F0
:20096C00E0620AF0C3F9C1492063E0680AF02DF838BB1E98002101800E464680304630E094
:20098C004D54552053697A65206368616E67653A20256420627974657300C0465265636565
:2009AC00766965642047415454204D6573736167652E204F70636F64653A2030782530321D
:2009CC0078001D9B1E9A1978587840EA01201080D878997840EA012050805879197940EADE
:2009EC000120904E1E998880A0493B233370E06809F0EBFF00284BD11E980021C1800E4668
:200A0C000681304654E0C0464F7574676F696E67205246204649464F2066756C6C2E2052D8
:200A2C00652D7363686564756C65207472616E736D697373696F6E206F66206D736720778E
:200A4C00697468206F70636F64652030782530327800C046466C6F7720636F6E74726F6C25
:200A6C002076696F6C617465642E204F70636F6465206F66206F6666656E64696E67204124
:200A8C005454206D73673A2030782530327800C01D9B1E9A1978587840EA0120D080D878BE
:200AAC00997840EA012010815879197940EA01201E9A5081E16A206B401A908108F05CFA77
:200ACC002679002E07BF206BE06200202071A1E348434920436F6D6D616E6420436F6D7013
:200AEC006C657465204576656E7420726563656976656400A5A800001099BCF1000F02F112
:200B0C0009061CD0119BD3B1129B13B93888014215D0B378002B0CBF96A099A040F26D42CC
:200B2C000092AEA30193029000220392DDF870C00492139B0592149806922A46E047B6F880
:200B4C000080102009F094FA061C00F063830121132209F0AFFEA6F808800020B0720246AD
:200B6C00F26009F095FA964A314608F0B9FA51E35265747279696E67206D65737361676500
:200B8C002077697468206F70636F6465203078253032782E20417474656D70742025640036
:200BAC001099BCF1000F02F1090622D0119B03B3129B13B9388801421BD03378002B0CBF66
:200BCC00AFA094A07378002B0CBF95A299A240F2E7430093A8A30193DDF870C00290139B20
:200BEC0003920020049002460592149806922A46E04733784BB11B1F40F00C8301200146DE
:200C0C00761C324601F0BAFE04E300200121F7E7338841F210101B1A06D0103B00F08F80AB
:200C2C00F8E2C046C30700203379B6F8028006F10509002B31D05E1E1AD01699BCF1000F00
:200C4C0000F0E882179E002E00F0E482189E1EB93888014200F0DE824FF48C700090A3A6FD
:200C6C000196DDF854C002939CA32FE1BC080020A84E1099BCF1000F06F10406A6F1030A20
:200C8C002FD0119B002B2CD0129B13B93888014227D04FF48A708FA212E09E4E1099DFF837
:200CAC0074A2BCF1000F06F102061AD0119BC3B1129B13B93888014213D04FF48670ABA268
:200CCC000090ACA30193DDF870C002920023CDF80C80149804931A4605922A4606937FA323
:200CEC00E047B8F1020F02DAB8F1000F1FD10F9E1F981699002E00F08D82014200F08A8204
:200D0C00189E1EB93888014200F084824FF492700090BAA60196CDF80880012303931A460E
:200D2C00049200260596334606936CA3CCE050464946424605F07BFDA6F800806AE2307956
:200D4C007188761D5DE733880FF2E82EBEA2C4A1B3F5895336D0103B40F05C82B6F805008A
:200D6C0090B1401E04D0401E08BFCDF88CE00CE023920AE0446973706C6179696E6700C03F
:200D8C0053656E64696E670023913079012840F041821099BCF1000F00F03C82119E002E16
:200DAC0000F03882129E1EB93888014200F0328240F2BE50009088A60196239E8DA209E1E0
:200DCC0097A80000B6F8050000283CD0401E1FD0401E08BFCDF890E036E0C046426F6E649B
:200DEC004D6772205265717565737465642070617373636F64652E205765206172652025D6
:200E0C00732070617373636F6465202530366400249219E0427574746F6E203100C046C090
:200E2C001B5B33336D72656C65617365641B5B306D00C0461B5B33326D70726573736564C1
:200E4C001B5B306D00C024913679F6B1761E40F0E1811099BCF1000F00F0DC81119E002EF3
:200E6C0000F0D881129E1EB93888014200F0D28140F26150ACA21AE0257320257300C046CF
:200E8C00427574746F6E203000C01099BCF1000F00F0C081119E002E00F0BC81129E1EB993
:200EAC003888014200F0B68140F2565098A2009049A699A30196249E0293039204960022F0
:200ECC00059216460696139BDDF870C014982A46E0479FE14C45443100C046C06C65645FA1
:200EEC00736572766963652E6300C046536574506172616D657465723A20506172616D65E1
:200F0C0074657220232564206E6F742076616C69642E00C088140020338841F210101B1A20
:200F2C0000F0A780203B40F075813379002B2ED05B1E40F06F811099BCF1000F00F06A815F
:200F4C00119B002B00F06681129B1BB93888014200F0608140F291500090B5A3019370790A
:200F6C000290B0790390F0790490A8E74C45443000C046C0536574506172616D65746572F3
:200F8C00203A202573206C656E3A20256400DDF8808000212822404606F08AF9761D2722D6
:200FAC003146404605F043FC0F9E1099002E00F03181119E002E00F02D81129E1EB938880C
:200FCC00014200F0278140F28A500090B7A60196A64EBDA2BEA36FE7434343442043686157
:200FEC006E6765206D73673A2025732025733A20257300C053747265616D00C04C656E6736
:20100C007468206F75747369646520626F756E64733A204C656E3A202564204D696E4C65CF
:20102C006E3A202564204D61784C656E3A2025642E00C046496E6469636174696F6E732042
:20104C00656E61626C6564004E6F74696669636174696F6E7320656E61626C656400C0466E
:20106C004E6F74692F496E642064697361626C656400B178219A701D06F0D6FC06F10509EA
:20108C0036790F9B0FF2582A0FF25828002E4FD0761E40F0BF8010991E1C1BD0119ECEB19B
:2010AC00129E16B93888014214D040F2225000907EA601968C4E7AA38C4ADDF870C0029368
:2010CC001498139B039200220496164605922A460696E047E06999F800200A2107F0A6FF72
:2010EC000F9E1099002E00F09580119E002E00F09180129E1EB93888014200F08B8099F867
:20110C00006006B1C24640F22A5061A347E0C046425554544F4E3000427574746F6E2053CC
:20112C0065727669636500C0425554544F4E31001099DBB1119ECEB1129E16B93888014273
:20114C0014D040F21350009058A60196664E54A3674ADDF870C002931498139B03920022DE
:20116C000496164605922A460696E047E06999F800200F2107F05AFF0F9E1099002E49D08C
:20118C00119E002E46D0129E16B93888014241D099F8006006B1C24640F21B5034A3009009
:2011AC0037A601960293CDF80CA00022049216460596069287E61B218DF834104D496823CF
:2011CC0084F80C3108268DF835600DAAC4F8FC200226C4F800610023C4F8083109F0F5FB2D
:2011EC004449082668238DF839601C2084F80C310EAA8DF838000226C4F8FC200023C4F836
:20120C000061E068C4F8083109F0DFFB02E0507A01F0B8FE0820ADF82000CDF824B005264D
:20122C00ADF8226008A808F011FBFFF762BBC04656616C7565204368616E6765206D7367E4
:20124C003A204461746120536572766963652053747265616D3A20253032783A253032789F
:20126C003A253032782E2E2E00C046C0880900201B5B33316D4C4544301B5B306D00C046C3
:20128C005475726E696E6720257320257300C0461B5B33326D4C4544311B5B306D00C0467E
:2012AC004C454420536572766963650056616C7565204368616E6765206D73673A202573A0
:2012CC002025733A20257300537472696E6700C044617461205365727669636500C046C0F0
:2012EC006F6666006F6E00C080080020E00E0000780F0000BC0800202DE9F04F0820ADF1EE
:20130C00740DADF854000120ADF8560015A808F09DFAA44C9DF8580020701798A06008209B
:20132C00ADF86400ADF866009F48DFF88CA201689E48DFF88C8205881C91DDB19C48006859
:20134C00014217D09B480068014204D150460068008801420ED09B4840F22F3781A3066840
:20136C000097002201934746944B02923A881868BCA3B047002604F14C0766623846314651
:20138C0009F0B0FC04F1640004F17C01276105F0CBFBDFF83492E061F8B948460168D5B182
:2013AC0083480068014216D082480068014204D150460068008801420DD082484FF4507305
:2013CC0007680093C8A20192434602961A887B4B1868A4A3B84709F081FC04F1580004F1FB
:2013EC00880105F0A1FBA061F8B948460168D5B16F480068014216D06E480068014204D11A
:20140C0050460068008801420DD06E4840F2463307680093BDA20192434602961A88674B50
:20142C00186890A3B84709F059FC04F1700004F1940105F079FBD349206209F073FAA0693B
:20144C00D14909F06FFAF8B148460168D5B158480068014216D057480068014204D15046F8
:20146C000068008801420DD0564840F24F3307680093AEA20192434602961A884F4B18683C
:20148C0078A3B84709F02AFC04F1B007384609F03FF9012084F8B8003946304608F08EF9E3
:2014AC00E06018B9ACA009F015FC02E0B0A008F081FF09F07DF9B54808F094FD4FF0010BCF
:2014CC00B14640F205308DF86AB00DF16A02ADF86890594601F0B6FE40F2063002211AAA69
:2014EC0001F0B0FE621C4FF44270594601F0AAFE04F1E50240F20730172101F0A3FE04F192
:20150C00E507002D73D02A481C99006801426ED028480068014205D1504600681C9E018821
:20152C000E4264D004F58C704946202205F0C0FE4046224D234B0688D5F8008004F58C7A65
:20154C0048461D683A5C401CC0B23B5C3918092B18BF082B01D11F2A38DB8018C0B2202862
:20156C00F0DB38E0496E697469616C697A696E67207468652075736572207461736B2C2032
:20158C0068617264776172652C20424C4520737461636B20616E64207365727669636573C5
:2015AC002E00C046C007002084CA0000CCCA0000400500003C05000044050000A0CA0000E7
:2015CC008405000098CA000080CA0000491C521E504605F02CF940F28530ABA71C990090C7
:2015EC00324620A301974046CDF808A0A8470620282107F0C5FE0720282107F0C1FE0820B3
:20160C00282107F0BDFE0920282107F0B9FE58461E2107F0B5FE40F21130022119AA01F0D2
:20162C0011FE40F2123002210DF1660201F00AFECDF860908DF86BB08DF86CB0D8468DF800
:20164C006D904FF48160042118AA8DF86E8007F07DFE4FF4806059460DF16B0207F076FEF9
:20166C0008E0C04670726F6A6563745F7A65726F2E6300C040F2024059461BAA07F066FED6
:20168C0040F2034059460DF16D0207F05FFE40F2064059460DF16E0207F058FE032007F07D
:2016AC00C1FF042007F0BEFF8148824A132107F0EBFB8149032007F0F5FC4FF0040A082096
:2016CC007E4DADF854002878ADF856A08000169015A808F0BBF800280CBF17984846784E7B
:2016EC00002870605CD053E04572726F7220696E697469616C697A696E6720626F6172642A
:20170C00204C45442070696E7300C0464572726F7220696E697469616C697A696E67206231
:20172C007574746F6E2070696E7300C04572726F72207265676973746572696E6720627505
:20174C0074746F6E2063616C6C6261636B2066756E6374696F6E00C04572726F7220496E44
:20176C00697469616C697A696E67204932430A0049324320496E697469616C697A656421CC
:20178C000A00C046D7680000315E0000A586925B08F05EFC4B4A30465146183007F074FBA5
:2017AC00A87820BB04F1380095F801B0EE786862182008F05DFC071C19D051464A4608F0D3
:2017CC0067FF584608F08FFB38727E724846B87205F14803FB6005F158023A6105F1200187
:2017EC00796108F055FC384A394607F079FC0C2008F03EFC071C0BD04146524609F05AF887
:20180C0004F14400B86008F043FC394608F0F4F94046102107F0F4FC0220102107F0F0FCFC
:20182C004D4640462422082365634946207103A809F04CFA0CA824220823494609F046FA53
:20184C00224800684FF47A72B2FBF0F080B2410001EBC00108911E4904F5C07603AB42436C
:20186C00304609F02FFA304609F028FA194904F5D2770CAB4A46384609F024FA384609F03C
:20188C001DFA1DB0BDE8F08F4E616D6520696E20616476657274446174612061727261795D
:2018AC003A201B5B33336D25731B5B306D00C046301100200CCA000087AA0000200D002013
:2018CC00E4140020B8C8000093AA000074CA000009AA000013AA00002DE9F04F0120ADF165
:2018EC00240DADF80A000827ADF8087002A807F0ADFF00263546D84C8DF81C509DF80C000C
:20190C006070A6700498E0614FF6FF70A082384608F0AEFB5FEA00080CD00121122208F088
:20192C00C9FF08F0B5FB07A90123D94A0091414607F0F4FB9DF81C000121207004F1A80036
:20194C0007F022FE04F1CC00022107F01DFE04F1F000042107F018FE042031461022E0703A
:20196C0004F1480005F0A4FC04F158003146102205F09EFC2562267266720720E67204F199
:20198C0048021021A072022007F018FE04F158020320102107F012FE042004F12002014653
:2019AC0007F00CFE19E0A078B4F84050B4F84230B4F84420B4F8461006280ED1ADF80A5091
:2019CC00ADF80C30ADF80E20C948ADF8101009F086F8012002A905F0EBFB0A20ADF80A007A
:2019EC00ADF808704FF0FF35039502A807F02EFF002840F0D58130460690ADF808700925E0
:201A0C00ADF80A5002A807F021FFDDF810900028CDF8189040F0C481BDF80C00102840F052
:201A2C00B38160789DF80E10884240F0AD814D4628884FF6FF71814200F09E812B78A23B69
:201A4C0000F083812E3B40F09F81A878B046002800F05081801E00F02881401E012840F2DE
:201A6C00FD80801E00F0AD80401E73D0401E60D0083800F05B81801E40F05D8194F83E3041
:201A8C00A888052BADF808004BD001208DF81200974809F024F894F83E00012820D0042857
:201AAC001ED003280DD002280BD00698C188ADF80A100189ADF80C104189ADF80E10808998
:201ACC002BE0B4F84000B4F84250ADF80A00B4F84430ADF80C50B4F84600ADF80E301CE024
:201AEC00B4F84000E9888842D8BF081CADF80A002989B4F842008842D8BF081CADF80C0073
:201B0C006989B4F844008842D8BF081CADF80E00B4F84610A889814200DC0146ADF81010C1
:201B2C0001E08DF81260AB4A02A8122107F0E1FD01E1A94808F0D3FF6878002840F0FB80CA
:201B4C00E888E0822889208368896083684808F007FEF0E0B5F804A00A2008F089FA5FEAC3
:201B6C0000080AD00121152208F0A4FEA8F808A008F08EFA414608F03FF8B8483146062267
:201B8C0005F096FBE68226836683A8796073584808F0A5FF904808F0A2FF4FF001084FF68B
:201BAC00FF706379A0824BB9A879082814BF04200520A070404608F0E3FCBCE00320A070FF
:201BCC00B9E06878002840D1A449281D02680A60808888800623A3706889A082E889E0820F
:201BEC00288A2083688A6083E878207394F83E00012818BF022808D11F2007F027F94FF456
:201C0C007A7141433A4807F0C3FA95F803B0B5F80AA0142008F02CFA5FEA000800F08E80DB
:201C2C000121142208F046FE88F808B02D1DC8F80C50A8F810A0042088F8120008F028FA46
:201C4C007F4A414607F04CFA78E0687831286BD12671042023E0C046200D00206878002805
:201C6C0062D1A878618AA278032813D02079657921B9012814BF6671267105E0054303D037
:201C8C00724807F085FAA278072AE2D1062006E0B3A80000062A06D0207910B90320A07008
:201CAC004CE00220FBE70720F9E7687800283BD1EB78A078E17993B9022815D0072813D08B
:201CCC00062802D1617901290ED103280CD05F4808F046FD40B9012008F052FC04E0604A3D
:201CEC00404606F0A1FB68706878E8B923E0C046EC0D00206878B8B9554A0220102107F00B
:201D0C0077FC544A0320102107F072FC5548ED1C29680160AB888380534A01252846A179D4
:201D2C00A57006F081FB48B1A77007E0A888454A102107F0C5FCB8F1010F25D1606A18B32D
:201D4C00016809B3A07888471EE0687913281BD12889012808D1A07B022805D11E4808F039
:201D6C00BEFE06F07FFD0FE0052007F06FF80146194807F00DFA07E06888C00B04D3364A18
:201D8C000420014607F034FC069848B1ADF808700320ADF80A00CDF80C9002A807F056FDCA
:201DAC00208A65792179420830D320F0010055EA010320822AD08DB92C49207A8DF80800D6
:201DCC00657A8DF809500A680DF10A031A608988998006E08DAA0000100E002003208DF816
:201DEC000800A07AE57A184A8DF8100006218DF8115002A806F0E2FE616A30B1A77021B13D
:201E0C00086810B1096838468847208A810807D3174920F002002082304605F0C9F9208ACF
:201E2C00C108FFF4DAAD20F00400A57B2082681E3FF4B9AD401E7FF4D0AD06F013FDCCE559
:201E4C0089A80000B1AA0000A5AA0000C80D0020680D0020780D0020400D0020580D00207A
:201E6C00A70D00204C0D0020880D0020520D00205E0D00202DE9F84F8046DD480122A0F14E
:201E8C0030010A60D7490F68002FFCD0D74ED64AC02706F1040B1760DBF80010890804D216
:201EAC003168090C41F0F00100E07221E34AE44D4FF0000982F85412A5F1D407C0F8009094
:201ECC00D6F808A03868C0F3046008F0BBFC5246534600EB2270401C162805DA10F10A0FD9
:201EEC00B8BF6FF0090000E01520E649E64F00F01F0040F4F8500880386880083ABFE3481F
:201F0C00C0F8009042F04062E149A5F13C04D00E970E80F0010000F00100086087F00100D4
:201F2C0000F0010088602068C0F38367C0F38F215FEA9A4022D243F3072000280BD5424234
:201F4C004846490805D17F0806BF0127391C4FF6FF71521EF5D1002810DD4FF6FF724900F8
:201F6C0041F001018A4207D27F0047F001070F2F92BF01210F27111C401EF0D141EA074119
:201F8C00182007F07FFA20682768C34CC0F3870140F2FF324B4607F0030041EA0021274685
:201FAC0088B22C210090A7F1400006F0C7FCA5F110073868C0F30D011C2007F063FAB549D1
:201FCC0057F8080C014000F07C400143142007F059FA57F80C1C01F47C000904090C014395
:201FEC00102007F04FFA57F8042CDBF80010C2F30350C2F30343490812D231680E0510EB24
:20200C00267003D41028A8BF0F2000E04846090413EB217303D4102BA8BF0F2300E04B4650
:20202C0043EA001302F47F4002F0FF01B8F1220F40EA034041EA000124BF02F0804211434F
:20204C000C2007F01FFAB8F1220F32BF01202868C0F30070B8F1220F4FEA400040F02000F6
:20206C0084F8090126BF2868C0F3407001208B4EB8F1200F40F0100084F8090138BF4946D8
:20208C0006D33168C80C00F44070C1F384510143282007F0F7F9B8F1200F26BF3068C0F346
:2020AC0001504846B8F1220F4FEA400040F0600084F80C0126BF2868C0F3C0604846B8F14A
:2020CC00220F4FEAC00040F0800084F8010126BF2868C0F345504846B8F1200F4FEA8000C0
:2020EC0040F47C40A4F89C0138BF6D490AD3306801038A15920501F47C1100F00F0011437A
:20210C0041EA0031082007F0BDF92E464FF480002060A6F1D000816D40F20F226FF31F4151
:20212C008A4213D901680068C1F30367C0F3034007B17F1E072805D006280EBF0720801CDF
:20214C0000F00F003D4947EA00100870CAF381477F1E02D07F1E28D023E03168880C20D28A
:20216C004FF4804020604F48D0F802204B0AC1F3033703F0800322F08F02134347EA030267
:20218C00C0F80220D0F801300F0A67F30303C0F80130026801F0E70722F0E70247EA020186
:2021AC0002E04FF0004120460160DBF80000C0F3C0070FB94020A0624FF400703E4F2064AF
:2021CC0028684FF04008C0F3C14040F0300084F8C800CAF38150A8B3401E0BD0401E28D00C
:2021EC00022127E09402224300600C40AC3F005040100940012008F047F8054604202946F8
:20220C0006F026FA042008F03FF88542FAD12648056825F07F4007F061FB3846143000688B
:20222C00036807214FF06022280E98474FF4806020600321042006F00BFA0AE002600840AF
:20224C008C1300500420012106F002FA174807F045FB203E30681649164B47F6180500F0B5
:20226C003F0084F8CB0F3A460D8018681068C168022088471248114EC0F8008001213160FA
:20228C00BDE8F88F6E6208400000094094042A4300002043FCFCFC0040A00C409813005022
:2022AC0000803F400A600840A83F0050BD37860070B00C402C200940A001001094046042C4
:2022CC0000600C402DE9FE4FB84C0F460646F80B80F04781B80880F0D480B54DDFF8D8923C
:2022EC00DFF8E0B2DFF8E882DFF8F4A22C68B80F67D2B0480678002E47D1380947D3AF4819
:20230C0001264946067000240C70204603F063F9AB48FDF7E9FEAC492246584608F0D4FBA0
:20232C00AA48017801291CD141460B78CBB9A94E306880B108F098F92B68A8493668A64D23
:20234C000A68C01A000B82182860B2EBC61F28BF0C6007D20A60A4484FF0005108F040F933
:20236C002CE00670504640F609010180417B01F0F00141F0010141734480017B01F0F001D1
:20238C0001734460974E306018E0390914D2B80BC0F004819D48001D08F09FFB061C08D0FE
:2023AC00706830B17468F068B6F91C1098A20CCAA04727F40057F1E00021017027F0080757
:2023CC00ECE0ECB1042007F05FFFC8B108F04CF9864A29681060814226BF401A401E401ACE
:2023EC00000BF060F06800F58D70F060F16840F6C410884203D340F2EE228A4200D9F060A2
:20240C000024D6F818C02C60BCF1000F10D050460D30007810F00F0F0AD1708C40F609013E
:20242C00814205D17CA20CCA30466FF48071E0476F495846224608F047FB4546287850B1EE
:20244C000220ADF80000684607F0AEFC2C70BDF808006849088049460120674A674B08703D
:20246C0010781C70401C1070192008F089F9756925B16BA20CCA30462146A84727F00057DC
:20248C008CE004F10C0A504608F027FB061C5FD006F025FF7368B2690025B561E3B1F37F67
:2024AC0042F002024FF00009904603F007035B1E07D05B1E03D09B1E06D15BA002E05CA0BA
:2024CC0000E05DA090E800037268F068B6F91C104B4694464246E04708F0ECFB8046B4F91F
:2024EC001200401C6FF31F306082E0681F30017801F07F010170504607F0FAFF404608F0D9
:20250C00D5FBF068B0F99410B4F9122091421FD13B49097801291BD090F896409CB904685F
:20252C008CB1384909680968B1F1FF3F10D0364909687030B4FBF1F108F0B4FBF06870306F
:20254C0008F0BCFB04E080F89650284605F06CFB504608F0C2FA27F0020708B147F0020751
:20256C001CE008F0A7FB01462046083008F0B5FA0646B469084608F099FBA0080CD25EB155
:20258C007068B169A143B16130B17568F068B6F91C1000232246A84727F480471FB11248D0
:2025AC00394608F01DF8BDE8FE8FC04678260020C0260020E3260020DF260020DD26002016
:2025CC00797500002C260020619F0000E1260020DC260020BC260020C8260020B826002038
:2025EC008C2600200010044028250020C4260020C5530000F0250020E5260020DE26002096
:20260C002E180020CC26002074CA0000782600200000000020000000000000000000000218
:20262C0000000000000000040000000000000010000000000000004000000000000000201A
:20264C002DE9F04F09AFADF13C0D08900A92388809911E46ADF81800101C08BF002000F0C8
:20266C008481002700F101094FF0FF3A4FF0010BB8466CE1252940F063811078521C0A9225
:20268C002D2818BFADF8068005D15846551CADF8060010780A9530281CBF4246434605D106
:2026AC000A9908785A465B46491C0A912A28CDF80080554616D1306804930A99CDF808A052
:2026CC00C01C4B1C20F00300001D306050F8044C0A93002C0878009418D5ADF806B0644288
:2026EC00009413E044460AE0610001EBC4010918A1F130040A9908780094491C0A913028CB
:20270C0001DB3A28F0DBCDF808A004932E282BD10A9908782A2801F101010A9111D13068D0
:20272C00CDF80880C01C20F00300001D306050F8045C002D48BF454608782B46491C0A914C
:20274C0011E0454643460AE0690001EBC5010918A1F130050A9908782B46491C0A9130288F
:20276C0001DB3A28F0DB02930AB1224604926C2804D04C2818BFADF8048005D10A99087821
:20278C00ADF804B0491C0A910BA9CDF80C800FAB07916428059300F08B80692800F08880D5
:2027AC00BDF818C0752872D078286ED06F286AD0702850D063283DD073281ED009980A99D5
:2027CC000128A1F101010A9115D96B490C68B5F1FF3F03D0A84288BF6D1C00D8099D0295F9
:2027EC0008A80AA932466B46A0473F180A99039801F1010974E040462AE030680A99C01CCE
:20280C0020F00300001D306050F8040CBCF1000F01F10109014608B955A00146079107F009
:20282C0041FF0390B5F1FF3F5BD0A842C4BF281C039056E03068C01C20F00300001D3060FC
:20284C0010F8040C5D468DF82C000A990395584601F1010945E0082035680490E81C20F099
:20286C000300001D306050F8041C082210230FA804F09AFF401E0790402101700A9907988A
:20288C0001F1010929E0082302E0102300E00A230A99306801F10109C01C20F00300001D97
:2028AC00306050F8041CAA42BCBF2A1C049210E00A99306801F10109C01C20F00300001D9E
:2028CC00306050F8041CAA42BCBF2A1C04926FF009030FA804F068FF0790059D281A039026
:2028EC00009C241ABDF8065000945DB906E008A8202109AA07F02EFA7F1C009C641E009447
:20290C00F5D503980546401E039075B9BDF80600E8B10098401E009019D408A8202109AA71
:20292C0007F018FA00987F1CF4E70798411C0791017809AA08A807F00DFA03987F1CE1E708
:20294C0008A809AA07F006FA7F1C09F101094A460A9812F8011C401C00290A907FF48AAE4F
:20296C00089808B14146017038460FB0BDE8F08F286E756C6C2900C0B0CA00002DE9F04FFE
:20298C000546C04BBE48DFF808B3DFF808A3DFF80893DFF80883DFF80CE30F46ADF12C0DF5
:2029AC000FF2042C2E1C0892D9680288186907923FD0761E20D0B4480168171C00F0D280A4
:2029CC00B2480068014200F0CD8058460068014205D1504600680088014200F0C380B048F6
:2029EC004FF4A57766A604680097434601964F4602951A883868B3E00646704604681D466B
:202A0C00002A05F106000A9003F1020009903CD09E480068044238D058460068044204D192
:202A2C0050460068008804422FD04FF4A37365A219E0704604681E463546301D0A900E462A
:202A4C00681C09900AB39148006804421DD058460068044204D1504600680088044214D04B
:202A6C0040F23B1359A2904805680093CDF804C00292039700210491059143460691494645
:202A8C001A88086839A32146A847022F44DA002F42D0099808993A4603F0C9FE079D0A9894
:202AAC002146002D078029D078480068014225D058460068014204D15046006800880142AF
:202ACC001CD0794B40464D460288B7781C682868002F26A308BF3FA703D0012F0CBF44A7F6
:202AEC0049A74FF4AD7500954CA501953588029503970027049705970697A0470720FF273C
:202B0C0000906A4D01975F4B0295099900223046143303F0F3FC25E05C4D5B4C07982A68A0
:202B2C002168061C1ED011421CD058460068014204D1504600680088014213D05A4840F213
:202B4C0063160468009640A5019502970123039300220493464605924D46069232882868CF
:202B6C0002A3A0470BB0BDE8F08FC046627574746F6E5F736572766963652E6300C046C095
:202B8C00536574506172616D657465723A20506172616D6574657220232564206E6F742004
:202BAC0076616C69642E00C0536574506172616D65746572203A202573206C656E3A20254E
:202BCC006400C046425554544F4E3100425554544F4E30001B5B33336D4E6F74692F696E7D
:202BEC00642064697361626C65641B5B306D00C04E6F74696669636174696F6E20656E61FF
:202C0C00626C656400C046C0496E6469636174696F6E20656E61626C656400C054727969F6
:202C2C006E6720746F2073656E64206E6F74692F696E643A20636F6E6E48616E646C65202E
:202C4C0025782C20257300C04C656E677468206F75747369646520626F756E64733A204C57
:202C6C00656E3A202564204D696E4C656E3A202564204D61784C656E3A2025642E00C046D0
:202C8C00CCCA00000414002080CA0000400500003C05000044050000A0CA0000840500004E
:202CAC0098CA000084CA00009CCA0000993400002DE9F04F09AFADF1340D07900A9309926A
:202CCC00089138790C9038880B90084605F0FCFB0746DFF88CB2DFF88CA2DFF88C92DFF83A
:202CEC0090829D48A449A64A0688A448002473A3002F38D07F1E1FD098480168D6B15A460D
:202D0C001068014216D052461068014204D14A461068008801420DD0964840F2ED1760A614
:202D2C000568009743460196904F02941A88386857A3A8470A20A8E00968002E02F1020776
:202D4C0036D05A461268114232D052461268114204D14A4612681288114229D0056868A251
:202D6C004FF4F47013E0096817460EB35A46126811421DD052461268114204D14A46126880
:202D8C001288114214D005685FA24FF4ED70009001930292079803900A9804900B980590F0
:202DAC000C98434606901A88704B186838A3A8470B98002849D105460A982D18022D54A063
:202DCC0024DAC5B90C99182918BF122913D15A46624912680968002E35D0114233D0524638
:202DEC001268114204D14A461268128811422AD040F201271CE008980B990A9AC068401876
:202E0C00099903F014FD05B13D803DE053490968CEB15A461268114215D05246126811422D
:202E2C0004D14A461268128811420CD04FF4FC77504A156800974D4B0190464602941868AF
:202E4C00328813A3A8470D241EE044480168D6B15A461068014216D052461068014204D1F3
:202E6C004A461068008801420DD0424840F2F31730A605680097434601963C4F02941A8813
:202E8C00386803A3A847072420460DB0BDE8F08F6C65645F736572766963652E6300C04663
:202EAC0041747472696275746520776173206E6F7420666F756E642E00C046C057726974A0
:202ECC0065417474724342203A20257320636F6E6E48616E646C6528256429206C656E28D4
:202EEC00256429206F666673657428256429206D6574686F64283078253032782900C046F4
:202F0C004C45443100C046C04C45443000C046C0496E76616C69642076616C7565206C6519
:202F2C006E677468207761732072656365697665642E00C0416E20696E76616C6964206FCF
:202F4C00666673657420776173207265717565737465642E00C046C0CCCA000080CA00001C
:202F6C00400500003C05000044050000A0CA00008405000098CA000084CA00009CCA00006D
:202F8C008A1400202DE9F04FA549A64EA64DA74CDFF89CB2DFF89CA2DFF89C92DFF89C8216
:202FAC000F88401EADF1340D00F09080401E75D0801E61D0401E4DD0401E2ED0401E17D0A3
:202FCC00401E40F0C9803168002F00F0C5802868014200F0C1802068014205D15A46106854
:202FEC000088014200F0B88040F2CE4060A766E03168002F00F0B0802868014200F0AC806E
:20300C002068014205D15A4610680088014200F0A38040F2C24058A751E040F2153004A985
:20302C0002F020F804A805F077FA3168002F00F093802A68114200F08F802268114205D106
:20304C005A4612681288114200F0868040F2BD4750A676E03168002F7ED0286801427BD0B1
:20306C002068014204D15A4610680088014273D040F2CA4051A722E03168002F6CD02868B4
:20308C00014269D02068014204D15A4610680088014261D040F2C6404EA710E03168002F0F
:2030AC005AD02868014257D02068014204D15A461068008801424FD040F2B3404AA74246A0
:2030CC00146800900197002602963FE04FF441700AA901F0C7FF9DF829308DF81130002130
:2030EC008DF814109DF82A208DF813109DF828008DF812209DF82D308DF810009DF82C20B8
:20310C008DF8173004A98DF816209DF82B304C4A8DF81530086810604B6853600AA805F032
:20312C00FBF93168C7B12A68114215D02268114204D15A461268128811420DD040F2AE47F7
:20314C002CA64246146800970196029053464D4618682A8802A3A0470DB0BDE8F08FC046FC
:20316C0070726F6A6563745F7A65726F2E6300C04572726F7200C046436F6E6E656374659D
:20318C006420616E64206164766572746973696E6700C046436F6E6E65637465642E205075
:2031AC0065657220616464726573733A201B5B33326D25731B5B306D00C046C0436F6E6E20
:2031CC00656374696F6E2074696D6564206F757400C046C0446973636F6E6E65637465641D
:2031EC00202F2049646C65004164766572746973696E670047415020697320737461727434
:20320C0065642E204F757220616464726573733A201B5B33326D25731B5B306D00C046C03C
:20322C00CCCA000084CA0000400500003C05000044050000A0CA00008405000098CA00007A
:20324C009B100020F8B5A0F2013517460E46022D40F214818A4A8B498B4B2D1F0F2D04D998
:20326C00143D4AD0AD1E1CD011E0DFE815F0C300BC00F400E400B300AB000701A2009A006A
:20328C00100010009200880079006F006300282880F2F480022E40F0F180398806F070F877
:2032AC00F8BD012E40F0EA8015462879012800F0E58051793878507181B9002800F0DE801F
:2032CC009078012800F0A980042800F0A680062800F0A380052800F0A080F8BD387800284B
:2032EC0040F0CC809078032800F0A280072800F09F80052800F09C80F8BD012E40F0BE8038
:20330C003878012840F0BA80154605F1F00007F027FA002840F0B2802C46002004F13E01B5
:20332C0003F046FF002840F0A98004F1CC0007F0D6FBF8BD022E40F0A18038880A28C0F265
:20334C009D80B0F5486F00F3998015E0022E40F095803888B0F5FA7F80F290800880F8BDD5
:20336C00022E40F08B8038880628C0F28780B0F5486F00F383801946891C0D4638E0022E3E
:20338C007CD13888062879DBB0F5486F76DC1946F3E7012E72D1387806286FDA891F0D4617
:2033AC000EE0012E6AD13878042867DA15460B3506E0012E62D1387808285FDA15460A35F6
:2033CC002870F8BD012E59D13878042856DA1546093506E0012E51D1387804284EDC1546FE
:2033EC0008352946DBE7022E48D13888154612352946B3E7012E41D11546687901283DD0EC
:20340C0011793878107161B9002837D09078012803D0042818BF052830D1012007F0B0F8A7
:20342C00F8BD387850BB9078022818BF052825D107F066F9F8BD154605F1870400211F229B
:20344C00204603F035FF39463246204603F0EFF90020EE710EE0154605F1680400211F220F
:20346C00204603F025FF39463246204603F0DFF90120AE713146224604F0D6FFF8BDC046F8
:20348C00200D0020640D0020600D00202DE9F04F804609AF0846ADF1340D0A9397F808B0D1
:2034AC000992B98808903F880B9104F095FF06467C497B48DFF8F491DFF8F4A1814ADFF863
:2034CC0008C200240FF2681E002E0588C8888988079538D0761E1FD073480168D5B14846F0
:2034EC000068014216D050460068014204D171480068008801420DD071484FF4EA7745A608
:20350C00056800976D4B01966B4F02941A8838683BA3A8470A206FE005461046079E0168C5
:20352C00002E37D048460068014233D050460068014204D15F480068008801422AD040F2F2
:20354C00CF134AA214E00D461046079E01680EB34846006801421DD050460068014204D1E9
:20356C00544800680088014214D04FF4E27341A2604606680093CDF804E00292CDF80C80DC
:20358C000497CDF814B04D4B06941A884A4B18681BA3B047BD420EDB0B98E91B8142D4BF78
:2035AC008AB2021C0A9802800898C1680998C91903F03DF91FE03C48079F0168D7B1484664
:2035CC000068014216D050460068014204D139480068008801420DD039484FF4ED7727A6B2
:2035EC0005680097354B0196334F02941A88386803A3A847072420460DB0BDE8F08FC0463D
:20360C00627574746F6E5F736572766963652E6300C046C0417474726962757465207761AF
:20362C0073206E6F7420666F756E642E00C046C052656164417474724342203A202573209C
:20364C00636F6E6E48616E646C653A202564206F66667365743A202564206D6574686F6456
:20366C003A2030782530327800C046C0425554544F4E3100425554544F4E3000416E206926
:20368C006E76616C6964206F666673657420776173207265717565737465642E00C046C0A8
:2036AC00CCCA00000414002080CA0000400500003C05000044050000A0CA00008405000024
:2036CC0098CA000084CA00009CCA00002DE9F04F804609AF0846ADF1340D0A9397F808B0E4
:2036EC000992B98808903F880B9104F0EDFE06467B497A48DFF8F091DFF8F0A1804ADFF8D5
:20370C0004C200240FF2641E002E058888884988079538D0761E1FD072480168D5B1484636
:20372C000068014216D050460068014204D170480068008801420DD0704840F2A11744A682
:20374C00056800976C4B01966A4F02941A8838683BA3A8470A206FE005461046079E016885
:20376C00002E37D048460068014233D050460068014204D15E480068008801422AD04FF4A0
:20378C00CE7349A214E00D461046079E01680EB34846006801421DD050460068014204D149
:2037AC00534800680088014214D040F2911340A2604606680093CDF804E00292CDF80C805E
:2037CC000497CDF814B04C4B06941A88494B18681BA3B047BD420EDB0B98E91B8142D4BF38
:2037EC008AB2021C0A9802800898C1680998C91903F01DF81FE03B48079F0168D7B1484644
:20380C000068014216D050460068014204D138480068008801420DD0384840F2A71726A629
:20382C0005680097344B0196324F02941A88386803A3A847072420460DB0BDE8F08FC046FC
:20384C006C65645F736572766963652E6300C04641747472696275746520776173206E6F24
:20386C007420666F756E642E00C046C052656164417474724342203A20257320636F6E6E1C
:20388C0048616E646C653A202564206F66667365743A202564206D6574686F643A203078C0
:2038AC002530327800C046C04C45443100C046C04C45443000C046C0416E20696E76616CB7
:2038CC006964206F666673657420776173207265717565737465642E00C046C0CCCA000081
:2038EC008814002080CA0000400500003C05000044050000A0CA00008405000098CA000092
:20390C0084CA00009CCA00002DE9F04F0128ADF1140D40F0F280DFF81492D9F8DC000128B5
:20392C0040F0E9800220C9F8DC0007F0B7F90290012005F0B7F820B101210646C9F8DC1039
:20394C00D5E007F0A7F903906E484FF00008C0F80080012006F098FC012818BFCDF8008057
:20396C0004D1404604F03CFC0120009066486E4CC0F800801934D4F8FF0F112006F0DEFF38
:20398C0000280CBF46460126102006F0D7FF08B146F002060F2006F0D1FF08B146F0040694
:2039AC000B2006F0CBFF30B1584800685849006B0246088890470A2006F0C0FF00284046DF
:2039CC0018BF01204FF0805B0BF5DC7528B128685049006B0246088890474F480127076036
:2039EC0028688069014646F0200088474B48076006F09EFF00F001010191400815D2484806
:203A0C0006F027FF8246BAF1040FF8D0BAF1010F06D1DBF8D801406802464148032190477E
:203A2C004049086820F003000860404600F080F82868D4F8FF1F806B8047019801280ED04C
:203A4C00BAF1010F06D1DBF8D801406802463448394690473349086840F0030008602A4861
:203A6C000760286840690146304688470B2006F065FF28B128682649C06A024608889047D8
:203A8C000A2006F05BFF28B128682249C06A024608889047204807600322C9F8DC201F4BD8
:203AAC00C3F800802868406B0146304688470128F8D1042004F0F6FF124807601A48D4F80A
:203ACC00FF1F01688909FCD30098012802D1384604F086FB06F020FF082004F0E3FF06460C
:203AEC000398C9F8DC7007F0D1F804F0BBF9029807F0C8F802E0042600E00126304605B01B
:203B0C00BDE8F08F0C40094000022243B801001032C600002EC6000028200860800104434C
:203B2C00004003402422084014100940601200202DE9F84F07467F48DFF8EC8135380068DF
:203B4C00800880F0E28006F01BF905467D480830D0F800A000244FEA2A725FEA9A5002F126
:203B6C0001020AD2C5F13E0015F10A0F4FEAE000D8BF08208242B8BF021C684ED6F87C0115
:203B8C00C0F3046006F05EFE03463068C0F3044006F058FE9A188346162A05DA12F10A0FD6
:203BAC00B8BF6FF0090200E015225D4B5D4802F01F0141F4F8511980006810F0030F18BF3A
:203BCC000124C00828BF44F002040FB144F00404414691F90700281A052804DA8879A04287
:203BEC0008BF888870D0DFF844810F2DA5F10F092ADB09EB0510A0F1F0094FEA29200728D3
:203C0C0088BF07200746062F88BF062758F827C00423464603EB8703F3584FEA940EE708BD
:203C2C00A3EB0C0303F0FF0624BFC3F307273E444FEA540CA70824BFC3F307473E4467087A
:203C4C0028BF06EB136605E000264FEA940E4FEA540C304658F820805FEA5E0708F0FF037A
:203C6C0024BFC8F307273B445FEA5C0724BFC8F307473B44670828BF03EB1863B6B2A9EB1B
:203C8C000027ABEB02007E43002806F1800603EB1623D8BF012034220AF0FF0742437A437C
:203CAC00B2FBF3F04FF6FF72824238BF101C802D80B2888005DA15F1800FB8BF6FF07F0516
:203CCC0000E07F25CD718C71194A12681F280A604FF0000208D340F2FF11814206D240084A
:203CEC00521C8142FBD301E01F208880124F11490F38000942EAC00247EA0200C1F8FB0FA2
:203D0C000026C1F8FF6FBDE8F88F0D4F0B4E414608203760891D0870BDE8F88F3C1100503C
:203D2C006E62084024220840B02600209C130050082009403500094000E7A4803010094059
:203D4C00FDFDA400AC3F00502DE9F843814606F0DDFD002100B901216B4E30680028FCD055
:203D6C006C4D01242D1DEF6A346009B106F0D4FDDFF89881C7F3072008F1BC01086006F0BC
:203D8C00C5FD002100B9214630680028FCD02F68346009B106F0C0FDC7F38440C8F8C000F2
:203DAC0006F0B4FD0146002001B92046014630680028FCD0ED69346009B106F0ADFDC5F3FA
:203DCC008120C8F8D000B9F5C061C8F8B81000F0968098F8D80068B9C8F8D410D8F8C0008C
:203DEC00C8F8C800D8F8BC70C8F8C470D8F8D060C8F8CC60D8F8D410D8F8BC60002954BF77
:203E0C0002206FF00100454605F1C8031A6801EB41014018411000EB917002EBA0021A607A
:203E2C00D5F8C810C5F8C46000291CDD1E293DDDD5F8CC0030B93429B4BF15391E21C5F8D1
:203E4C00C81025E02A29BABFD5F8C8000B381E20C5F8C800D5F8C4003F28B4BF401C3F20EC
:203E6C00C5F8C4001FE0D5F8CC00032812D011F10B0FC6BFD5F8C8000B30201CC5F8C800DE
:203E8C00D5F8C4000028CCBF401E0020C5F8C400032009E011F1150FC6BFD5F8C800153042
:203EAC00201CC5F8C8000020C5F8CC00B5F8C400174E30214FF47F4208230090304604F03C
:203ECC003DFD009404214FF400321123304604F035FDB5F8C80004214FF4F8021223009002
:203EEC00304604F02BFDB5F8CC0020214FF440620A230090304604F021FDBDE8F883002000
:203F0C0088F8D800BDE8F88300800C406012002000A00C4000A00C402DE9FC416F4C204673
:203F2C0006F0DBFD15460E46009006F0C3FE05F001078046B6F1FF3F0DD1606820B9B4F9DD
:203F4C001200401C06B202E06068B0F91C6064490020C91C0870304605F07AFE0326002802
:203F6C0000F0A4806168814270D0009FDFF848C1B84231D03FB100990A68904209D00968C4
:203F8C0000290091F7D1832E44D0404606F08EFE40E0604606F00CF900990868AA0803D275
:203FAC0002680B4601461A6000220A60009078B10C340146C87F40F00400C877684606F04F
:203FCC0097FA0146204605F0C5FA00980028F0D1404606F06BFE1CE0604606F0E9F8A80854
:203FEC003ABF2068006800202060404606F05EFE0C340099C87F40F00400C877684606F01D
:20400C0077FA0146204605F0A5FA009808B1A808EFD2832629482C4A007890B928480078E7
:20402C00012846D02748FCF75FF80221104606F0D7FA2648007801283BD02548FCF754F876
:20404C0037E01046022106F0CBFA32E0A90803D32168009100262660C27F0121B9401143FA
:20406C00C17706F017FE0646002F14BF19481A4805F09AFE404606F019FEA80811D3009894
:20408C0078B10C340146C87F40F00400C877684606F02EFA0146204605F05CFA0098002826
:2040AC00F0D1304606F0F2FD832602E0404606F0FDFD3046BDE8FC8190250020DE26002046
:2040CC00DD260020D122000028250020DF260020855C000001000204010001047826002080
:2040EC00F02500202DE9F04FADF1840D209001F049F804F0FFFB0024012804D106F0C8F952
:20410C00022808BF012459490868C0F38150012805D151F80C1C0120090E88400443544894
:20412C00007805F0F3FEDFF84C81DFF84CA1C8F8000030B15246FF2107467F1E02F8011B54
:20414C00FBD120990968002501F0FF02FE2A1BD0DDF880C052462B46012701F0FF06FF2ECA
:20416C000BD0B04203D907FA06F6344201D0022079E001F0FF01354353545CF8041F5B1CCD
:20418C0001F0FF06FE2EEAD1092001F0B5FE3B49209824220823086001A8002106F06EFD29
:2041AC004FF0010901AA3E488DF81C90494606F061FDD8F800303BB33A4E00274FF0040B7A
:2041CC00BA4609FA07F0044218D1054204BF07F0FF0141F4C04104D027482099C05D51F811
:2041EC002010274802F0D4F8F8B24FF0FF3106F059F8D8F80030C6F800A001E0C6F800B049
:20420C007F1C361D9F42DCD30AA800213022082306F02CFD1B4D1D4A2878002410210AAB2C
:20422C0012901948009406F01DFD16A828220823214606F013FD686816AA16491C90144834
:20424C001D94234606F006FD134A52F80D0C494620F4F85040F4005042F80D0C0F4BC2F8A9
:20426C00FF1F2046196021B0BDE8F08FB43F0050E4260020CC210020B4250020D4260020B3
:20428C00007FC76740CA0000F4250020CDA20000F4240020D98900000D3009400800094042
:2042AC0010260020782400202DE9F04F0D460646DFF88481DFF888B1DFF888A1DFF8889110
:2042CC00287809AFADF1240D08930228079207D140466B680488188842F60211814225D0ED
:2042EC00284604F079F85548474601683888D8B158460068014217D050460068014204D1BD
:20430C0048460068008801420ED05248046840F213272CA6002500974D4B01964B4F029592
:20432C001A88386822A3A0470A203DE04A480068002C80462ED05846006818EA000F29D042
:20434C005046006818EA000F05D148460068008818EA000F1ED03879FE280CBF0FF28009C3
:20436C000FF29809284604F037F83C4940F201230C68009324A2019202900396CDF8109033
:20438C0000210591324B069130491A88086808A34146A0473888009003270197089B079A4C
:2043AC002946304603F0A8FB09B0BDE8F08FC046627574746F6E5F736572766963652E6316
:2043CC0000C046C041747472696275746520776173206E6F7420666F756E642E00C046C04B
:2043EC002D20726573746F72696E6720626F6E64656420737461746500C046C02D204F5404
:20440C0041207772697465005772697465417474724342202843434344293A20706172615D
:20442C006D3A20256420636F6E6E48616E646C653A20256420257300CCCA000080CA00008B
:20444C00400500003C05000044050000A0CA00008405000098CA000084CA00009CCA000078
:20446C002DE9F84F9A4693460D46044606F022FCDFF85C810AAFB8F91220B8F910100090B8
:20448C0040F6F870891A0840082880F29280B8F91000401C6FF31F30A8F81000B8F9109004
:2044AC0005F036FE064604F1700005F081FEB56086F81EB0C6F804A0F460A6F81C9097E8C2
:2044CC000C0051A003C800251040F577D8F8002006F11007194087E80300002A5CD1404681
:2044EC00314605F037F800285BD0A4F894904448F17F0778DFF8DCA041F08001F17784F89E
:20450C00965067B151460F784FB1344A3449324B0570012015700A781870521C0A70009856
:20452C0006F0C4FBD8F8040000284ED15146087800282DD12B480078012846D006F0BAFB8D
:20454C00054629480078F8B9B06803F073FE284B2C4A26491B681268086038B9284606F0DC
:20456C00A5FB2448042106F03BF82EE0D0680968214C091AB1FBF3F1204606F093FB2046AE
:20458C0006F09CFB28461EE01C4901200870F9E7192006F0F5F818E04046314604F0DAFF5A
:2045AC0050B9B8F9100000F6FF706FF31F30A8F810006FF0010905E0A4F89490F07F40F0B2
:2045CC008000F077009806F071FB4846BDE8F88F78260020DF260020E3260020DC26002006
:2045EC00E5260020DE260020DD260020BC26002074CA00002825002090250020E026002095
:20460C00E2260020CC260020F1EFFF9F200000002DE9F04F694CA068ADF1440D002800F09D
:20462C009D80DFF890914FF00A0B4FF0010A4FF000088FE006F03EFB21785F4BCA0002EBDC
:20464C004112D218B2E8E01007ABA3E8E010E0CAE0C364CA4F1C07F01F0183E8640004F199
:20466C000C05627821708A4208BF84F802A006F01DFBBDF82000002808BF2E1C09D00346C3
:20468C00A62138A2284605F0A2FE284606F00AF84619079FB8B205F05BFD42A20CCA01F09D
:2046AC0019F842A20CCA01F015F804F01FFAA91B00902EA23B0CA631304605F088FE284677
:2046CC0005F0F0FF4219A0682946521B06F091F9BDF82200E0B106F0B9FAB9F8007037B909
:2046EC0009990A9F0346009124A2019720E00A9900910B9F01970C9E02960D9B03930E9A8D
:20470C0004920F9F0597109E0696099B02460FE00B9800900C9F01970D9E02960E9B039390
:20472C000F9A0492CDF81480CDF818800A9B099A2846A62105F04BFE284605F0B3FF42194D
:20474C000D2002F8010B02F801BBA0682946521B06F04FF9A07800283FF46CAF11B0BDE84E
:20476C00F08FC04623253036752000C05B2025642E25303375205D2000C046C07B65767449
:20478C003A20666D743D25702C20617267733D5B307825782C2030782578202E2E2E5D7DAF
:2047AC0000C046C0000000000000F03E0000000000408F408A050000C0020020080200204F
:2047CC002DE9DF4F5D48DFF890C1DFF878B1DFF878A1DFF87891DFF87881DFF878E107885D
:2047EC0057480E1C32A313D10168002F5DD058460068014259D050460068014204D1484650
:20480C0000680088014250D040F2C5672CA62DE0012E17D0022E48D1002A46D10168002FC4
:20482C0043D05846006801423FD050460068014204D1484600680088014236D040F2D667B5
:20484C0023A613E0A2B90168002F2ED05846006801422AD050460068014204D14846006850
:20486C000088014221D040F2CB6725A6002212E03A480168CFB158460068014215D05046FE
:20488C000068014204D148460068008801420CD040F2CF6722A660460468009701967746C2
:2048AC00464602923A883068A0470090BDE8DF8F70726F6A6563745F7A65726F2E6300C081
:2048CC0050616972696E6720737461727465640052652D65737461626C69736865642070EF
:2048EC00616972696E672066726F6D2073746F72656420626F6E6420696E666F2E00C046EA
:20490C0050616972696E6720636F6D706C65746564207375636365737366756C6C792E0071
:20492C0050616972696E67206661696C65642E204572726F723A202530327800CCCA0000D5
:20494C0084CA0000400500003C05000044050000A0CA00008405000098CA000080CA00008F
:20496C002DE9F0438046D8F80460D8F808700C46ADF1340D06F09EF93178012903D106F045
:20498C0095F90020A3E04FF0010986F8009006F08DF9207870706078B07060687060A068F7
:2049AC00B060E068F06020693061207D3075607D7075A07DB075A069B061207F3077607FA4
:2049CC0000257077A07F35623563102186F83C10B0772C4674627463B462B46386F82C4019
:2049EC0086F82D4086F83D40786801F085FA404601F0EAFA404602F04BFA78B93548006847
:204A0C00C068014638688847786801F0A1F906F051F9347006F04AF9A04657E001A82146F7
:204A2C003022082306F022F9CDF818803A7B09920095294AB96806F1680001AB06F012F9FA
:204A4C0001A828220823214606F008F9396907912249CDF8148006F1840001AA234606F04B
:204A6C00F9F801A824220823214606F007F9B0788DF81C9038B906F1B800214601AA06F0C1
:204A8C00F9F817483061707838B906F1D400214601AA06F0EFF81348F06001A82146242295
:204AAC00082306F013F90694ADF8144006F1F0000D49CDF81C800A2201AB06F003F90B4A6D
:204ACC0006F154000421434605F096F940460DB0BDE8F083D0010010CD590000A9860000BC
:204AEC005BAA000053AA00005D6C00009DA700002DE9FC415E4C574D574EDFF860815A4FF4
:204B0C0094F8E410481E0B2861D8DFE800F07B2C43062343062343067664042907D00122B7
:204B2C000A2945F8212C14BF0220032004E02021012045F8211C024684F8E200002045F8D1
:204B4C00390C0827C5F8FF7FC5F8F37F45F8392CBDE8FC81052914BF09200620002584F8B6
:204B6C00E400356070E094F8E1700120383D002FC5F81B0004BF0620002102D00021F16098
:204B8C00032084F8E400032045F8010C31603068800859D294F8E400012503280DD000217E
:204BAC00404660220523009103F0C8FE94F8E400062814BF0A200720D1E702200090002122
:204BCC0060220523404603F0B9FE0420C7E706F039F8BDE8FC812249002622480E60012545
:204BEC0005600E2001F0B4F8022004F0A7FE84F8E45084F8E360BDE8FC81002038600C2544
:204C0C0078601FE01948006800680146202088472C3D41F61D560F2000214FF4C072072328
:204C2C0045F8010C4046C5F803600225009503F085FE404600214FF4C072072304F066F8AE
:204C4C000120386084F8E45004F1780006F036F8BDE8FC8139400C4038600C4000A00C4097
:204C6C002C500C4004800C4034600C40A0010010601200202DE9F04F5D4C67690346ADF1B8
:204C8C001C0D002F68D05148DFF848A1DFF84891DFF84881DFF848B1DFF848C1DFF848E11F
:204CAC0006882FA23BBB4A490968002E4ED05046006801424AD048460068014204D1404654
:204CCC0000680088014241D0704640F26F660568009627A3019338790290A0780390002652
:204CEC000496634605965F4606961E88386813463246A8472AE03D48016816B350460068C4
:204D0C0001421ED048460068014204D1404600680088014215D0704640F2746605680096E5
:204D2C001EA6019638790290039300260496674605965B46069618683E8813463246A847E8
:204D4C006769397907F1080005F04EFB606905F07BFB00206061A07007B0BDE8F08FC04681
:204D6C0070726F6A6563745F7A65726F2E6300C053656E74206D65737361676520776974AD
:204D8C0068206F70636F6465203078253032782E20417474656D70742025640047617665E5
:204DAC00207570206D6573736167652077697468206F70636F6465203078253032782E2052
:204DCC005374617475733A20256400C0CCCA000084CA0000400500003C05000044050000ED
:204DEC00A0CA0000840500009CCA000080CA0000C0070020F8B5414C201D0368B3F1FF3F59
:204E0C0008BF002303F076FD002876D13C4E20683468070F04F0FF04802C28BF002403F062
:204E2C0069FD4FF0FF3578B1401E07D0401E012802D9801E13D014E08FB112E0381C5CD0A6
:204E4C00801E0ED114340BE03846401E55D0801E53D0001F51D0401E03D1163400E00A34FA
:204E6C0065B2162D49DB27482749002501270560264E0F60264C376020680028FCD1274A3D
:204E8C00161D2449244F306820F0030001433868C0080CD2106810F0030F0AD041F0030026
:204EAC003060106800F003000328FAD101E041F001011B483160006820B11A48006818468C
:204ECC00FCF7D8FF184819490560194F0A686FF35B4247EA0200086016490868C0F30130AE
:204EEC00012806D10A681448104040F400320A60086020680028FCD1F8BDFEE718130050BE
:204F0C00A0100050840460425C600C40082204430C00684204000020B03F00500040034046
:204F2C0080012843000120438C210840482003400000390104000940FFFFFCFC70B5ADF135
:204F4C00380D00F01FF9324908682822082340F00200086001A8002105F080FE2D4EB0781E
:204F6C002E4907902C48002301AA05F073FE00213022082301A805F079FE002519213078B5
:204F8C00284AADF81C5001AB09902548009505F069FE2822082301A8294605F05FFEF07898
:204FAC0022490790204801AA2B4605F053FE3022082301A8294605F059FE01241A217078F0
:204FCC001C4AADF81C4001AB09901948009505F049FE194819492A46134605F073FE184895
:204FEC00FBF782F81849194E0C70164835704FF6FF728283C577164B1D70164C25701649B7
:20500C000D70174E3560154A15700EB070BDC0460020094066CA000028250020BDA50000D0
:20502C002C260020619F00005C250020B5650000482600209582000090250020D99900004B
:20504C00855C0000D4250020DC260020E1260020DE260020DD260020E2260020E326002069
:20506C00C02600202DE9F04F0C464549CA7AADF12C0D84460592487B09900D7900958A7AF2
:20508C00488B4B8A0E7B91F805A091F802800492B1F846E008904A7A088B0392CD780790D5
:2050AC000A7AC88A02920F6A0690CA79888A01928A79E146A9F54079B9F11D0F10D8DFE87D
:2050CC0009F05B5553514F4D4B494643413F3C3A380F34312E2B2923201E1C0F19181716B0
:2050EC00BCF1280F49DA604603F0B0FE21E0099EB246D046CDF814801DE008980790079874
:20510C000690DDF818E005E03831086820608888A08032E070460AE0B1F8440009E0B1F881
:20512C00420004E0B1F8400001E091F83E00034612E0208021E0059804900498039001E08F
:20514C003231E2E7039802900298009006E0019A87310DE068310BE01846EAE7009D0BE05F
:20516C002C31D2E7276008E0583100E048311022204601F05CFB00E025700BB0BDE8F08F88
:20518C00200D00202DE9F041444C94F8E700ADF1280D00286FD1394F387B01250021242269
:2051AC0084F8E7507E6884F8E6000823C4F80C6101A805F08BFD002604F10C00069601ABFF
:2051CC00ADF814602E490796324605F07BFD2D4904F1300001AB324605F074FD2A4904F124
:2051EC00540001AB324605F06DFDB868014628468847DFF89C8025487B7B0078D8F8041076
:20520C00C1F381571BB1032F03D184F8E150032F16D0022F14D0012F26D103201D4C009007
:20522C0031464FF040521C23204603F087FB009531464FF400720923204603F07FFB13E04D
:20524C00022004F093FB032F0CBF4FF47A7142F21071114800685434B1FBF0F1204605F08D
:20526C0021FD204605F02AFDD8F80000C00802D2304604F07BFB0AB0BDE8F081CCC90000D1
:20528C0023780000816D000041710000E4260020B03F005000A00C4074CA000060120020A2
:2052AC002DE9F0430746880FADF1140D75D303F01BFA404D00261C352E60394845F81C0C2E
:2052CC00012000F088F93748FAF70EFFBC68B14640F60A01344A6680537B118090465680E8
:2052EC00107BC2F8049003F0F00300F0F000107343F00103537300E01C46636813B1188812
:20530C008142F9D1C4F80480607B00F0F0006073264805F0E2FB80680088C91F81421DD0DE
:20532C00491C81421AD03B8CC3B197F82C107E8497F82D00C7F8249001F0F00100F0F00056
:20534C0087F82C1040F0010087F82D0007F12003C8F80430507B00F0F0005073B86869465D
:20536C0004F0B6FE684605F0F3F9B86800F053FF28680028FCD02E60012004F085FF0128B4
:20538C0008D0607B00F0F00040F0010060730848FAF7AAFEB86845F81C0C05B0BDE8F0832F
:2053AC0001010E04D12200008C26002078260020E9800000001004402DE9F04105F080F8D9
:2053CC003F4D3E4EDFF8FC800446A00820D330464168E9B1002242608B690A690F692240B3
:2053EC001A4342F0020205F108038A611A68BA4301F110071A6097E80C002A680C301B1C90
:20540C009A432A6004F0A6F84046022105F0E8F87068A10815D200F1100191E80C000027F3
:20542C0002EA04013B40002B08BF002909D081691440B0600C4384614FF48041404605F0FF
:20544C00CFF87068002837D1304605F046FB071C32D01E48F9680068884228D1B86802F09C
:20546C00E9FE19490860E8B905F1080138690A68104308602B6807F1100494E80300081CBF
:20548C001843286000222A61B86845F80C0C05F1100000680028FAD0304605F029F8776038
:2054AC00BDE8F081086802F0BFFBBDE8F08140464FF4805105F094F8BDE8F08178260020A9
:2054CC000C10044028250020BC260020CC2600202DE9F0430646ADF11C0D05F0AFFB04F0F0
:2054EC00E5F94FF000090546CDF80C9005F04AFA30F0010002D00398A84202D16FF00400E7
:20550C0066E070684C4658B1B0F1FF3F05D004A904F0B4F930B1804659E04FF0FF3000E096
:20552C002046049005F086FB04994FF00108471802E00A463BE004936868049905F076FBF4
:20554C0000282DD0684602F021FED8B99DF8040005A903F02FFF88B9B368BDF814009DF8A8
:20556C000610029A984748B1BDF814009DF80670B081029BB773C846336111E0029903A8F0
:20558C0004F00EFB0498641CB0F1FF3FD4D00028D2D005F04FFB3B1A02D004989842CAD221
:2055AC00039F04F0D3FE05F1080647B13A4652F80C1C0029BDD1316842F80C1C376005F04C
:2055CC0027F824B1686805F02DFB641EFAD1404607B0BDE8F08370472DE9F04707467D6806
:2055EC00D7F8089090460C4605F064FBAE6A8246002E64D105F1F00004F0DAFD2C62002416
:20560C00EC7750466C6205F051FB05F053FB2F4E3378824623B9022004F0A8F901203070EF
:20562C00504605F043FB2A4A1068414640F480701060384603F01CFEA862C0B9384641467B
:20564C0003F0C4F8A878D0B9A96805F1B80005F0EDFAE8B9AC621020E8774946284601F01F
:20566C00F9FF05F027FB8246307840B323E0D9F80010886B40F020008863A87810B1204653
:20568C00BDE8F087A96805F1B80005F0CFFA10B1686ABDE8F0873846414603F097F81020FF
:2056AC00AC624946E877284601F0D4FF05F002FB8246307818B1022004F040F934705046FC
:2056CC0005F0F4FA4FF0FF30BDE8F087E8260020301000402DE9FC4191EA03084CBF4FF080
:2056EC0000484FF000084FEAC32545EA52554FEAC2264FEA43077F0D11BF45F0004500217D
:20570C000020BDE8FC815FF4E06E1EF1FF0E774555D04FEAC12343EA50534FEAC0224FEA5C
:20572C004104640D11BF43F0004300210020BDE8FC81744543D0E419A3FB0501A3FB06E706
:20574C00A2FB06631EEB030E57F1000751F10001A2FB05631EEB060E57F1000751F10001D7
:20576C00FF1851F10001C01951F100014CBF4FF4806E4FF4007E10EB0E0051F1000148BF57
:20578C00641C01D4400049415FF44077FF37E41BDEBF00210020BDE8FC8117F58067BC42AE
:2057AC000DD24FEAD02040EA41504FEA41014FEA113141EA045141EA0801BDE8FC8100202E
:2057CC00FF21C900C91D090551EA0801BDE8FC812DE9F04104466668A7680D46ADF1380DD6
:2057EC0005F068FA96F8DC10012903D105F05EFA00205EE04FF0010886F8DC8005F056FABC
:20580C00E968204602F0DEF90028F1D12878307068687060287A002130220823F06001A8F9
:20582C0005F024FA06943A7B099200250095224AB96806F1100001AB05F014FA01A828226F
:20584C000823294605F00AFA396907911B49059406F12C0001AA2B4605F0FCF901A824225A
:20586C000823294605F00AFA06F160008DF81C80414601AA05F0FEF9307838B906F17C00E7
:20588C00294601AA05F0F6F90D4870603572C6F8BC50C6F8C050786800F02EFB204603F048
:2058AC0005F8084A06F1C8000421234604F0A4FA20460EB0BDE8F081B95A0000E17F000001
:2058CC003BAA00007DA700002DE9F04390460A68D8F800401678814600271D463846ADF117
:2058EC00140D531C242E0B6053D112F8016F5B1C4C2E0B600ED1AA68E41C24F00304241D08
:20590C0054F8040C494602F037FB2968EF600127091A2960462E1AD1E41C24F00304241DFD
:20592C0054F8040CE41C029024F00304241D54F8040C002749460390AA68ADF8047001A898
:20594C0000F026FF2968EF600127091A2960532E1FD1E41C24F00304241D54F8040CE86100
:20596C00C8F80040288B0090A968EA69D9F800004346FCF765FED9F80040002714B124188B
:20598C00C9F800402968D8F80040091AEF6001272960662E0AD12B8B23B9E41D24F0070415
:2059AC00083403E0E41C24F00304241D1FB9E9690E700127EF60C8F8004005B0BDE8F08374
:2059CC002DE9F8430746D7F80880D8F800007D68066C16F4F06F466426D1F00910D2700941
:2059EC0052D395F83C00AC6B401E844288BF041C3846214603F0E8FBA86B001BA86308E02F
:205A0C00A96B384603F0E0FB014695F82D00A96318B9A86B002837D101E00020A86305F1F7
:205A2C00840005F0FBF82FE0F00A0ED3D8F80000002144684160A96B04F00F04202988BF1B
:205A4C002021384603F0C0FB1AE04FF000094C4602E0A86B401EA863A86B88B138460121AF
:205A6C0003F0B2FBD8F80000446814F00F04C0F80490EED0296B686B491E2963401E68635A
:205A8C00EC77384601F020FEB0090DD3AE6A5EB13846314603F0ECFBA862A86A314618B917
:205AAC003846091D02F092FEBDE8F88398B53749826844680968106849688847344B012226
:205ACC009A6140B1217AFF2905D0FF214009217257D204224DE0207A002852D0401E19D093
:205AEC00401E02D0FD384CD048E05968D4F8B4000170D4F8B800D4F8B410401E491CC4F8AC
:205B0C00B800D4F8B870C4F8B410F7B1012F88BF09222EE0D4F8B000401EC4F8B000D4F8E3
:205B2C00B070A7B9D4F8B8707FB10220D4F8A8102072097C012F4FEA410141F0010143F8DF
:205B4C00041C94BF03220B2214E004220FE0D4F8AC0000785860D4F8AC00022F00F1010028
:205B6C00C4F8AC0005D2D4F8B87017B905220020207202201A6004F071FF98BDFF20207237
:205B8C0098BD04F12C0005F049F898BDAC010010042800402DE9F04130482F4908603048B8
:205BAC00FEF7A0FA03F0D8FA0020014603F0F6FE00252C492F4C0860032004F1180141F850
:205BCC000C5F401E8D60FAD1241F062004F14C010A46401E22F80C5BFBD10820224F088071
:205BEC00224A8F602249121D22F00303CF1A6762E3612362E66904F12008944618460A461D
:205C0C0001E026F8025BB142FBD8B910E82700EB810121F8045C4FF6FC761F8006EA0C0343
:205C2C0000F1E807D21A676106EA0201EC39A0F8E810284601F0FCF9A061D8F80000606136
:205C4C0001F0EAFD03F042F803F080F804F0E2FF2846BDE8F081C04610180020418B000055
:205C6C009CC5000010020020BDA00000E9260020483F002074130020042998B54CD12748A5
:205C8C0004F02BFF264C48B9264800F11F010978490838BF206803D3406800E0C068206091
:205CAC004168214A09781160416812680978914206D0876927B124A20CCA6FF0FF01B847C3
:205CCC00022003F053FE112000F016F901222168164B087C1A7018B115480078012803D06D
:205CEC000E2000F009F92168496812488F680FB9CF681FB10021C1610F4F07600F4A40F28B
:205D0C00FF711160002787610D4941610D48FAF7EBF9192004F07AFF98BDC04678260020A6
:205D2C00CC260020D4250020D0210840DE260020E126002000100440510007060000046092
:205D4C0002000040AD52000000000000000000022DE9F843044604F0ADFF81462D48021962
:205D6C0092F8ED10491ECFB2002F82F8ED704BD12B4D05EB84052E78698836F07F07884684
:205D8C001AD1F10911D24FF08054D4F8B801806901464046884704F5DC742068406B01464F
:205DAC00404688470228F8D121E000EB8800D0F80011002088471AE04FF08054D4F8B801C1
:205DCC00006A014640468847D4F8B801806A014640468847D4F8B801006B0146404688471A
:205DEC0001210D4A0D48116001688908FCD306F03F003F2801D0FFF7ABFF687800F03F0073
:205E0C003F2801D0FFF7A4FF484604F04FFFBDE8F883C046601200202820086028200840DD
:205E2C0004C60000BFB505462A480F4601682A480088F0B12948006801421AD02848006824
:205E4C00014204D1274800680088014211D0002F14BF10A212A2264840F2527304680093CF
:205E6C0016A30193214B02921A881F4B18680FA3A04747F0004228464FF4E02103F036FB55
:205E8C001C48391C02D0091F02D1243004F016FF0090BFBD427574746F6E203100C046C074
:205EAC00427574746F6E203000C046C070726F6A6563745F7A65726F2E6300C0427574743E
:205ECC006F6E20696E746572727570743A20257300C046C084CA0000CCCA000040050000EB
:205EEC003C05000044050000A0CA00008405000098CA0000F80800202DE9F041064604F010
:205F0C00D9FE2D4D8046A91991F8ED00421C002881F8ED204AD1294C04EB8604277807F07B
:205F2C003F003F2801D0FFF7E7FF607800F03F003F2801D0FFF7E0FF668837F07F001AD16F
:205F4C00F80911D24FF08054D4F8B801406901463046884704F5DC742068406B014630464B
:205F6C0088470128F8D121E005EB8605D5F80011012088471AE04FF08054D4F8B801C0694F
:205F8C00014630468847D4F8B801406A014630468847D4F8B801C06A014630468847012151
:205FAC00074A0848116001688908FCD3404604F07DFEBDE8F081C0466012002004C600008D
:205FCC0028200860282008402B4AF0B538CAADF11C0D02A938C10CCA4FF0805681E80C008E
:205FEC0084684568D6F8D0112068C9688847216822488A6B10408863206840F2F2714164E0
:20600C0095F83C0095F83D202168C0100DEB8000806810434863684604F0F4FD1A4FDFF837
:20602C0064E0D6F8D0112B7FDFF854C06A7FA87F496857F823705EF82260AA695CF820309A
:20604C000D46206801993E433343A8470F490A1F106840F010001060086840F00100086027
:20606C00A07DFF2806D0E07DFF2803D0086840F44040086007B0F0BD10C700000DF8FFFFD9
:20608C00FCC60000F4C60000E4C60000301000402DE9F041DFF8B080044698F800001F46C1
:2060AC0015460E46ADF1380D012804D0FEF746FF4046012101704EB166603DB1A56004F046
:2060CC00F9FD224A117819B104F0F0FD002038E0491CC9B2117004F0E9FD01251FB96846FF
:2060EC0004F0CCFA6F46386820607868E060387A2074F8686061386900B1A0610021782270
:20610C0004F1200001F0D4F805A800212422082304F0B4FD04F138008DF82C50002105AABF
:20612C0004F0A8FD05A800212422082304F0CEFD04F1700006490B94002205AB04F0C2FDE4
:20614C0020460EB0BDE8F0812F180020E62600207BAA00002DE9F8430D46064668687468A5
:20616C00D6F80890002710B9E868002850D02078012814D104F09EFDD4F8BC1049B1D4F892
:20618C00C0108D61C4F8C05004F090FD0120BDE8F883C4F8BC50C4F8C05004F087FD022079
:2061AC0003F0E4FB04F160084FF0FF31404604F03DFDD9F8080004F021FD3046294600F0C1
:2061CC0021FE0546D9F8080004F020FD207888B9B5F1FF3F08D004F17C004FF0FF3104F0F6
:2061EC0025FD207A48B110E003202072022003F0A5FB0AE0B5F1FF3F01D0012705E00320B5
:20620C00207204F12C0004F009FD404604F00AFD3846BDE8F8837047F8B504F077FB04F0E8
:20622C0087FB044604F00C000C2845D0E0081ED203F03AFD234E376805460120014603F085
:20624C00F5FF31686943884211D21F4C8220B0FBF7F0291A204604F025FD204604F02EFD69
:20626C000120FDF751FB204603F0A2FF25E0200922D21648610939BF016821F001010168F0
:20628C0041F0010102460160D2F898004FF0805440F00300C2F89800D4F8B8018069014667
:2062AC0020208847D4F8B801094C806B2168804701202060206800E030BF04F02DFB01F0A9
:2062CC0017FBF8BD74CA00006C1200208C2108402C2009402DE9F0414568876816460C46F4
:2062EC0004F0E8FC0346A86B3246214630B1184604F0DCFC4FF0FF30BDE8F081AA63296357
:20630C000024EC7718466C6304F0D0FC04F0D2FC1D4E8046307820B9022003F027FB012031
:20632C003070404604F0C2FC1849086840F4007008603968886B40F4FA6088636878002887
:20634C0018BF201C1ED1696805F1D40004F06EFCB8B9AC633968886B20F4FA60886304F0D5
:20636C00A9FC0746307818B1022003F0E7FA3470384604F09BFC1022696B286BEA77401AB7
:20638C002863686BBDE8F081E726002030100040F8B50D46EEB2290824BF27494D40274BAD
:2063AC00B400DFF89CC0195900EA05020CEA020200F4E02C85EA0107BCF5E02F00EA07075E
:2063CC0021EA0001C7F3006742EA010201D1510E14D300F4E0210F4310D002F4E027B7F56D
:2063EC00A02707D0B7F5803704BF22F4003242F4A02203E022F4803242F4C0221A51114C02
:20640C00C10D04D3C5F38052A4F1D0018A55000E10D304F04FFC290E03D201220021B2408A
:20642C0002E00122B2401146236893431943216004F03CFCF8BDC046006000A00010084085
:20644C00007F077FD02002402DE9F0410E462A4990461C4606AF8C4672680878BB885178C6
:20646C003F881278002502EB012242F62321521A2AD0521E052A19D9921F0DD0263A35D123
:20648C00072F31D8C7F10700984298BF83B20CEB070000F1080121E0B84225DBC01B9842E4
:2064AC00D8BF83B22380DCF804100BE0F06804F0F9F880B2B84217DBC01B9842D8BF83B2B2
:2064CC002380F168C9190AE0082F0DD8C7F10800984298BF83B20CEB07010F31238040463E
:2064EC001A4600F0A4F903E0072501E025800A252846BDE8F081C0468C1000202DE9F04F44
:20650C00064609AF92468B46002EADF1140D3888D7F8088002933D7903903FD0BBF1000F16
:20652C003CD0181C3AD0B8F1000F37D01D480178002431E0A0008719305A4FF6FF718142F1
:20654C0026D0BB7823B302980399C268934504D0491E00F11000F8D11AE05FEA000917D0C0
:20656C00B878410809D30095CDF804803888012152464B4600F022FBB878800808D300959C
:20658C00CDF804803888022152464B4600F016FB04480178641CE4B2A142CBDC05B0BDE8DA
:2065AC00F08FC046200D0020F8B504F083FB224C0746A06910F4602F25D0A069400CC6B2C5
:2065CC00700807D2B00803D2F00828BF022602E0012600E00026751D68B201F0A9FEA1696D
:2065EC0006F111020120904081433846A16104F05DFB04EB8600876847B1606810A20CCA58
:20660C002946B84702E0384604F050FBA06918B10A48002103F0E4FFE07F80080BD36769B1
:20662C002FB1606808A20CCA6FF00101B847E07F00F0FD00E077F8BDD42500205C250020B4
:20664C00000000000000000800000000000000802DE9F04114460F4604F02CFB1FFA80F804
:20666C001F480068007808B903F054FEE7B138684FF0FF3518B140280AD3810B08D17E68BD
:20668C001EB1310A04D0310E02D1B9680F2908D93DB10CB1284620700820FFF759FB002485
:2066AC0018E07968BA6803E04FF480700122014603F02CF90B49012008600B490868400852
:2066CC00FCD30A4800684168022088470CB1002121700446404604F0E9FA2046BDE8F081F9
:2066EC00DCC90000A802504208800240CC010010F0B520480127F84201D002F01BF8204D54
:20670C00204F214EBD4206D203CD0478A4003459401CA047F6E71D48002800D08047164D94
:20672C00164FBD4202D210CDA047FAE7F0BD03251BE0416808300A1C2A400BD11A1C2A40B3
:20674C00AB4305D0046804300C600431043BF9D1131C05D0047801300C700131013BF9D1BB
