:10100000FFFFFFFFFFFFFFFFFFFFFFFFFFFFFFFFF0
:2010100028420020CD970000B9C60000B9C60000B9C60000B9C60000B9C60000B9C60000D8
:1C103000B9C60000B9C60000B9C60000B9C60000B9C60000B9C600006BCC000073
:20104C002DE9FE43AF4C0F460646F80B80F03581B80880F0C7806069B90F67D2A07A0028E5
:20106C0048D1380948D30025657001262672284605F025FCA4480CF0F3FBA4492A4604F18A
:20108C004C000CF0C5FD607901281AD1A079C0B99F4E306870B10CF037F96169236A3268F8
:2010AC00401A000BE061C018B0EBC21F28BF256208D2206204F1C8004FF000510CF072F8AD
:2010CC0031E0667104F1380140F60900088094F8450000F0F00040F0010084F84500658798
:2010EC0094F8440000F0F00084F84400E563894E316018E0380914D2B80BC0F0FB8004F1C2
:20110C0028000CF0A4FD061C08D0706830B17568F068B6F91C1082A20CCAA84727F40057E0
:20112C00E8E00020A07227F00807E3E0D8B104200BF0CEFBB8B10CF0E7F8A061616981427D
:20114C0026BF401A401E401A000BF060F06840F6C41100F58D708142F06003D340F2EE22B1
:20116C00824200D9F1600025D6F818C06561BCF1000F0FD094F8450010F00F0F0AD1708C83
:20118C0040F60901814205D167A20CCA30466FF48071E047604904F14C002A460CF038FD0F
:2011AC00A07950B10220ADF8000068460BF0AEF9A571BDF80800A4F8A00001206070207959
:2011CC00A846401C2071192084F807800CF054FA756925B156A20CCA30464146A84727F01D
:2011EC00005787E004F1300948460CF030FD061C5AD009F01EFB4FF00008B269C6F818802A
:20120C007068B8B1F07F42F00202002300F00700401E07D0401E03D0801E06D146A002E01F
:20122C0047A000E048A090E80C007568F068B6F91C10A8470CF0B0FB0546B4F93600401C3F
:20124C006FF31F30E086206B1F30017801F07F01017048460BF09EFE28460CF0D6FCF0687D
:20126C00B0F99410B4F9362091421DD1217801291AD090F8965095B9056885B1E16809688B
:20128C00B1F1FF3F10D0254909687030B5FBF1F10CF003FDF06870300CF002F804E080F82B
:2012AC009680404606F034FE48460CF0D0FC27F0020708B147F002071CE00CF06DFB014648
:2012CC0004F12C000CF0C3FC0646B56908460CF09CFCA8080CD25EB1B069A843B061706850
:2012EC0030B12A46F068B6F91C1075680023A84727F4804727B104F1C80039460BF052FF2D
:20130C00BDE8FE8310140020D97000004DC20000CC2C002000100440FD300000BCE70000C3
:20132C0000000000200000000000000000000002000000000000000400000000000000106B
:20134C00000000000000004000000000000000202DE9FE430646DFF8DC82DFF8DC92B278DA
:20136C000024101C00F03581801E00F00D81401E012840F2E180801E00F0A880401E7BD0D6
:20138C00401E59D0083800F04681801E40F046814546B08895F83E70ADF80000052F45D042
:2013AC0001208DF80A0005F1CC000CF054FC95F83E0001281BD0042819D0032806D0022844
:2013CC0004D0F28831897089B38907E0B5F84020B5F84210B5F84400B5F84630ADF80220F6
:2013EC00ADF80410ADF80600ADF8083020E0B5F84000F1888842D8BF081CADF80200318954
:20140C00B5F842008842D8BF081CADF804007189B5F844008842D8BF081CADF80600B5F8DB
:20142C004630B0898342D8BF031CDDE78DF80A4068460CF02DFAF1E0454605F1F0000CF0D4
:20144C000AFC7078002840F0E980F088E882308928837089688305F1CC000CF0DDF80028EC
:20146C0040F0DC80AB6A002B00F0D8801B68E88A298B6A8B9847D1E0B0880AF009FE45465A
:20148C002146062205F1380005F0E0F9EC822C836C83B079687305F1CC000CF0DCFB05F11A
:2014AC00F0000CF0D8FB01244FF6FF706F79A8824FB9B079082814BF04200520A87020467B
:2014CC000BF0D4FDAAE00320A870A7E0707858BB311D0A68454605F1380002608988818000
:2014EC000627AF707089A882F089E882308A2883708A6883F0784446287394F83E000128C4
:20150C0018BF02280AD11F2008F0D0FC4FF47A71024604F1CC00514309F020F8F0787289A1
:20152C00311D08F073FF7BE0707831286FD14D4604202870204623E07778002F67D1454672
:20154C00698AA878032A13D02A796F7921B9012A14BF6C712C7106E0174304D005F1A800CD
:20156C0008F0FCFFA878072814BF0420062007E0062807D02879002808BF0324DAD0022091
:20158C00A8704DE00724D5E77078751C00283ED14246F7789078D1799FB9022816D0072883
:2015AC0014D0062802D1517901290FD103280DD002F1A8000CF030F840B901200BF056FD37
:2015CC0004E08732204607F061FA28702878F0B924E07078D8B945460220102105F148022E
:2015EC0009F064FB0320102105F1580209F05EFBF61C05F12C00B7883168878005F168021E
:20160C0001600120A979A87007F040FA40B108204D46287004E0B0880CF02EF9012C06D14A
:20162C004546686A18B1016809B1A8788847BDE8FE83C046D4080020D6080020F8B5A0F201
:20164C00013517460E46022D40F20C818649874C874A884B2D1F0F2D04D9143D4AD0AD1EC8
:20166C001CD011E0DFE815F0BA00B500EB00DB00AE00A700FE009F00980010001000900046
:20168C0086007A006F006200282880F2EB80022E40F0E880398809F01BF9F8BD012E40F096
:2016AC00E1800A469078012800F0DC80D1783878D07081B9002800F0D5801078012800F06F
:2016CC00A080042800F09D80062800F09A80052800F09780F8BD3878002840F0C3801078B1
:2016EC00032800F09980072800F09680052800F09380F8BD012E40F0B5803878012840F0F3
:20170C00B180254605F1F0000BF086FF002840F0A98004F13E01002005F0E4FA002840F0BB
:20172C00A18004F1CC000CF096FAF8BD022E40F0998038880A28C0F29580B0F5486F00F3F9
:20174C009180114614E0022E40F08C803888B0F5FA7F80F2878011460880F8BD022E40F06A
:20176C008180388806287DDBB0F5486F7ADC1946891CF1E7022E75D13888062872DBB0F532
:20178C00486F6FDC1946E7E7012E6BD13878062868DA1146891F0CE0012E63D13878042859
:2017AC0060DA093105E0012E5CD13878082859DA08310870F8BD012E54D13878042851DA94
:2017CC00C91DF6E7012E4DD1387804284ADC891DEFE7022E46D138881031BDE7012E41D142
:2017EC000A46D07801283DD091783878907061B9002837D01078012803D0042818BF052859
:20180C0030D101200BF032FCF8BD387850BB1078022818BF052825D10BF096FEF8BD2546A6
:20182C0000211F2205F18704204605F00FF839463246204604F03CF80020EE710EE02546FA
:20184C0000211F2205F16804204604F0FFFF39463246204604F02CF80120AE7131462246CC
:20186C0007F014F9F8BDC046D6080020D408002018090020140900202DE9F04F0128ADF109
:20188C00140D40F0F280DFF81492D9F8DC00012840F0E9800220C9F8DC000BF02DFF029015
:2018AC00012007F0E7FD20B101210646C9F8DC10D5E00BF009FF03906E484FF00008C0F834
:2018CC00008001200BF004F8012818BFCDF8008004D1404606F012FF0120009066486E4CA4
:2018EC00C0F800801934D4F8FF0F11200CF00CF800280CBF4646012610200CF005F808B1C4
:20190C0046F002060F200BF0FFFF08B146F004060B200BF0F9FF30B1584800685849006B49
:20192C000246088890470A200BF0EEFF0028404618BF01204FF0805B0BF5DC7528B1286860
:20194C005049006B0246088890474F480127076028688069014646F0200088474B480760C3
:20196C000BF0CCFF00F001010191400815D248480BF01AFF8246BAF1040FF8D0BAF1010F35
:20198C0006D1DBF8D801406802464148032190474049086820F003000860404600F080F8E2
:2019AC002868D4F8FF1F806B8047019801280ED0BAF1010F06D1DBF8D801406802463448A5
:2019CC00394690473349086840F0030008602A480760286840690146304688470B200BF05A
:2019EC0093FF28B128682649C06A0246088890470A200BF089FF28B128682249C06A0246A5
:201A0C0008889047204807600322C9F8DC201F4BC3F800802868406B01463046884701280D
:201A2C00F8D1042007F026FD124807601A48D4F8FF1F01688909FCD30098012802D13846AA
:201A4C0006F05CFE0BF054FF082007F013FD06460398C9F8DC7009F0ABF906F0E9F80298AB
:201A6C000AF0CAFA02E0042600E00126304605B0BDE8F08F0C40094000022243B801001075
:201A8C00E2DE0000DEDE00002820086080010443004003402422084014100940641A00202A
:201AAC002DE9F84F82467A48DFF8D89135380068800880F0D8800AF00FF905467848083089
:201ACC00D0F8008000244FEA2876761C5FEA98500AD2C5F13E0015F10A0F4FEAE000D8BF55
:201AEC0008208642B8BF061C634FD7F87C01C0F304600BF052FE83463868C0F304400BF096
:201B0C004CFE06EB0B020090162A05DA12F10A0FB8BF6FF0090200E01522584B584F02F072
:201B2C001F0141F4F8511980396811F0030F18BF0124C90828BF44F00204BAF1000F18BF2F
:201B4C0044F00404494691F90730EB1A052B04DA8B79A34208BF888864D0DFF82CE10F2DC6
:201B6C00A5F10F0C25DB0CEB0513A3F1F00C4FEA2C27072F88BF07273E46062E88BF0626A7
:201B8C005EF82600042303EB86037646F3581B1A03F0FF06E00824BFC3F307200644A00851
:201BAC0024BFC3F307400644600828BF06EB136601E0002637465EF827E0E0080EF0FF036D
:201BCC0024BFCEF307200344A00824BFCEF307400344600828BF03EB1E630098B6B2ACEBB8
:201BEC0007277E43801A06F1800603EB1623D8BF0120342208F0FF0742437A43B2FBF3F0CE
:201C0C004FF6FF72824238BF101C802D80B2888005DA15F1800FB8BF6FF07F0500E07F25E2
:201C2C00CD718C71194A12681F280A604FF0000208D340F2FF11814206D24008521C81425D
:201C4C00FBD301E01F208880124F11490F38000942EAC00247EA0200C1F8FB0F0026C1F8B4
:201C6C00FF6FBDE8F88F0D4F0B4E494608203760891D0870BDE8F88F3C1100506E620840BC
:201C8C00242208401C3500209C130050082009403500094000E7A48030100940FDFDA40019
:201CAC00AC3F00502DE9F0411C4615468C4208BF854282BF00230022E5E0002C08BF002D12
:201CCC000AD100290EBF00286FF000006FF0000100F0E1F8BDE8F0815FF000085FF0000EAD
:201CEC00002C08BF8D429CBF2C1C0025070C47EA01470E0CB44208BFBD429EBF5FEA0444FE
:201D0C0044EA15445FEA0545070A47EA01670E0AB44208BFBD429EBF5FEA042444EA1564AA
:201D2C005FEA0525470847EAC1774E08B44208BFBD4200F29380870847EA81778E08B44211
:201D4C0008BFBD427CD8C70847EA4177CE08B44208BFBD4266D8070947EA01770E09B4420F
:201D6C0008BFBD4250D8470947EAC1674E09B44208BFBD423AD8870947EA81678E09B44265
:201D8C0008BFBD4224D8C70947EA4167CE09B44208BFBD420DD8E60146EA5566EF01B1429F
:201DAC0008BFB84201D3C01BB14158EB08085EEB0E0EA60146EA95664FEA8517B14208BF9C
:201DCC00B84201D3C01BB14158EB08084EEB0E0E660146EAD5666F01B14208BFB84201D3EA
:201DEC00C01BB14158EB08084EEB0E0E260146EA15762F01B14208BFB84201D3C01BB141FB
:201E0C0058EB08085EEB0E0EE60046EA5576EF00B14208BFB84201D3C01BB14158EB080886
:201E2C004EEB0E0EA60046EA9576AF00B14208BFB84201D3C01BB14158EB08084EEB0E0EB4
:201E4C00660046EAD5766F00B14208BFB84201D3C01BB14158EB08085EEB0E0EA14208BF6F
:201E6C00A84201D3401BA14158EB08085EEB0E0EA34208BFAA423EBF2D0A45EA0465240A11
:201E8C0089D3734642461E4617460B46024631463846BDE8F08170472DE9F043ADF11C0D6D
:201EAC0006F0AEFB6E4C04F1240004F1680103F04DFDDFF8B081E06041460BF067FE09F0E1
:201ECC00BBFE04F130000BF08BFC04264FF47A7200236549206104F18400009607F0C2F82B
:201EEC001F20012108F0F4FC01250020ADF806004FF44871ADF80C1008278DF80450814610
:201F0C008DF8086001AAADF80A706420ADF80E902946ADF8100040F20530FFF78FFB40F2FA
:201F2C00063002210DF10602FFF788FB4FF442701B2104F14A02FFF781FB40F207300E2141
:201F4C0004F13C02FFF77AFB4FF44470294602AAFFF774FB40F2113002210DF10A02FFF7CA
:201F6C006DFB40F21230022103AAFFF767FB40F2133002210DF10E02FFF760FB4FF4457062
:201F8C00022104AAFFF75AFB0BF088FC0620A02108F09EFC0720A02108F09AFC3846A0216C
:201FAC0008F096FC0920A02108F092FC8DF8185003278DF81B504846059031468DF81900DC
:201FCC0005AA8DF81A704FF4816008F04DFC4FF48060294606AA08F047FC40F20240294672
:201FEC000DF1190208F040FC40F2034029460DF11A0208F039FC40F2064029460DF11B025B
:20200C0008F032FC0BF0B3FD0BF017FE04F0D0FCA0707F2814BF0A200F20052107F08CFB8C
:20202C0002F016FF30B900F07DFD18B9A07800F0BF00A07005F0E2FE09F02AFF0AF0C6FAE1
:20204C000BF0E2FA09F038FF0AF03CFE09F000FBE06841460BF09AFD07B0BDE8F083C0460F
:20206C0020050020E9CF000001D000002DE9F84381460BF037FC002100B901216B4E3068F3
:20208C000028FCD06C4D01242D1DEF6A346009B10BF02EFCDFF89881C7F3072008F1BC01C5
:2020AC0008600BF01FFC002100B9214630680028FCD02F68346009B10BF01AFCC7F3844055
:2020CC00C8F8C0000BF00EFC0146002001B92046014630680028FCD0ED69346009B10BF076
:2020EC0007FCC5F38120C8F8D000B9F5C061C8F8B81000F0968098F8D80068B9C8F8D4105E
:20210C00D8F8C000C8F8C800D8F8BC70C8F8C470D8F8D060C8F8CC60D8F8D410D8F8BC601F
:20212C00002954BF02206FF00100454605F1C8031A6801EB41014018411000EB917002EB57
:20214C00A0021A60D5F8C810C5F8C46000291CDD1E293DDDD5F8CC0030B93429B4BF1539AE
:20216C001E21C5F8C81025E02A29BABFD5F8C8000B381E20C5F8C800D5F8C4003F28B4BFA8
:20218C00401C3F20C5F8C4001FE0D5F8CC00032812D011F10B0FC6BFD5F8C8000B30201CA5
:2021AC00C5F8C800D5F8C4000028CCBF401E0020C5F8C400032009E011F1150FC6BFD5F8C7
:2021CC00C8001530201CC5F8C8000020C5F8CC00B5F8C400174E30214FF47F420823009096
:2021EC00304607F0B7F8009404214FF400321123304607F0AFF8B5F8C80004214FF4F8026A
:20220C0012230090304607F0A5F8B5F8CC0020214FF440620A230090304607F09BF8BDE8E2
:20222C00F883002088F8D800BDE8F88300800C40641A002000A00C4000A00C402DE9F04FE8
:20224C00ADF1840D00F0C6FE07F060F80026012804D10AF0F7FD022808BF01265849086805
:20226C00C0F38150012806D151F80C0C0127010E07FA01F006435348007809F051FF524D00
:20228C002C46286038B1FF2204F1400107467F1E01F8012BFBD14D4909684FF0000901F0DD
:2022AC00FF02FE2A1BD0DFF824C101F0FF074A460123FF2F0CD0B8427FD903FA07F73E42C0
:2022CC007BD101F0FF0147EA0909611881F840205CF8041F521C01F0FF07FE2FE9D1092034
:2022EC0001F004FE3948002124220823606001A80BF088FB4FF0010804F1240001AA8DF854
:20230C001C80414609F046F8236843B3002794354FF0040BBA4608FA07F0064219D119EA6A
:20232C00000F04BF07F0FF0141F4C04105D0E019264990F8400051F82010254802F02EFD8A
:20234C00F8B24FF0FF310AF0EDFA2368C5F800A001E0C5F800B07F1C2D1D9F42DBD30AA81B
:20236C000021302208230BF011FB0025FF2010210AAB1290174A009504F1080007F0EEFF09
:20238C0016A82822082329460BF042FB04F1600016AA1C9510491D952B4608F0DBF90F49F1
:2023AC0051F80D0C20F4F85040F4005041F80D0C4746C1F8FF7F0A4E376021B0BDE8F08FD5
:2023CC00B43F00502935002088300020A4DD0000007FC7674DC90000BD9600000D3009403B
:2023EC00080009402DE9F843674C04F124000BF02EFC15460E4600900BF0CEFA05F001073F
:20240C008146B6F1FF3F0CD1A06A20B9B4F93600401C06B202E0A06AB0F91C60002084F8A0
:20242C00A300304609F0B6FA0326002800F09B80A16ADFF84081814269D0009FB8422ED03C
:20244C003FB100990A68904209D0096800290091F7D1832E41D048460BF0D7FB3DE004F1A8
:20246C00A4000AF063F900980168AA0802D20A6802600846002202600091009818B94846A1
:20248C000BF0C3FB28E0C17F41F00401C17768460AF080FD0146404608F038FBEDE704F1DB
:2024AC00A4000AF043F9A8083ABF606A00680020606248460BF0A9FB0099C87F40F0040038
:2024CC00C87768460AF066FD0146404608F01EFB009808B1A808EFD28326E07988B9207A29
:2024EC00012843D024480BF0BBF9022104F1C8000AF058FE6078012838D020480BF0B0F934
:20250C0034E004F1C80002210AF04CFE2EE0A90803D3616A009100266662C27F0121B9403C
:20252C001143C1770BF0D0F80446002F14BF1448144809F0EBFF48460BF067FBA80801D3EA
:20254C00009820B9204608F033FC83260EE0C17F41F00401C17768460AF01CFD014640469E
:20256C0008F0D4FAECE748460BF04FFB3046BDE8F883C046401400204D100000C143000072
:20258C000100020401000104101400202DE9FC415E4C574D574EDFF860815A4F94F8E410B7
:2025AC00481E0B2861D8DFE800F07B2C43062343062343067664042907D001220A2945F84D
:2025CC00212C14BF0220032004E02021012045F8211C024684F8E200002045F8390C082753
:2025EC00C5F8FF7FC5F8F37F45F8392CBDE8FC81052914BF09200620002584F8E400356037
:20260C0070E094F8E1700120383D002FC5F81B0004BF0620002102D00021F160032084F8F7
:20262C00E400032045F8010C31603068800859D294F8E400012503280DD00021404660229A
:20264C000523009106F086FE94F8E400062814BF0A200720D1E70220009000216022052344
:20266C00404606F077FE0420C7E70AF024FEBDE8FC812249002622480E60012505600E202B
:20268C0001F0CAFB022008F005FD84F8E45084F8E360BDE8FC81002038600C2578601FE00B
:2026AC001948006800680146202088472C3D41F61D560F2000214FF4C072072345F8010C3B
:2026CC004046C5F803600225009506F043FE404600214FF4C072072307F048FA012038601D
:2026EC0084F8E45004F178000AF0DAFDBDE8FC8139400C4038600C4000A00C402C500C4061
:20270C0004800C4034600C40A0010010641A00202DE9F84F9A4693460E4681460BF03CF94D
:20272C00514C0090B4F93610B4F934000AAF401A40F6F8710140082980F28780B4F934000E
:20274C00401C6FF31F30A086B4F9348009F06EFF054609F1700009F0E9FFAE6085F81EB084
:20276C00C5F804A0A5F81C80C5F80C9097E80C0041A003C8002605F110071040194087E8D8
:20278C00030004F12400EE770768002F50D1294608F0BCF9002851D0A9F89480E87F40F03C
:2027AC008000E87789F89660607A40B1607830B10120A07266722779A671781C20710098B4
:2027CC000BF023FAA06A00284BD1607860BBE079012846D00BF0E0F80646207A00BBA86878
:2027EC0006F08CFC224B2149E2681B68086040B930460BF00AFA04F1C80004210AF0D2FC2B
:20280C002FE00968D26804F1A400891AB1FBF3F10BF043FA04F1A4000AF042FD30461EE0A8
:20282C00144901200870F9E719200AF025FF18E004F12400294608F069F948B9B4F93400A3
:20284C0000F6FF706FF31F30A0866FF0010805E0A9F89480E87F40F08000E87700980BF025
:20286C00D4F94046BDE8F88F10140020CC2C0020BCE7000028350020F1EFFF9F20000000B3
:20288C00B0B5456884684F48297BADF1180D012916D0217E627E4C4B2F7E0143009143EA5B
:2028AC0002010191494937F0010718BF081CA27E1043029095F88D000322FF2811D00DE082
:2028CC00677E217E3843A37E019041F00041009143F000403E49029095F88D000143042228
:2028EC000391FE204DF82200694605F1900003F02DF8C5F89C00002808BF00205FD0287B2C
:20290C00344951F8200001282BD02068B0F1804F14BF22220A22217ED5F89C0008F0B6FFB1
:20292C002068B0F1804F14BF21220922617ED5F89C0008F0ABFF2068B0F1804F14BF242257
:20294C000C22A17ED5F89C0008F0A0FF95F88D10FF2933D02068B0F1804F14BF23220B228C
:20296C0028E02068B0F1804F14BF21220922217ED5F89C0008F08AFF2068B0F1804F14BFB6
:20298C0022220A22617ED5F89C0008F07FFF2068B0F1804F14BF24220C22A17ED5F89C0036
:2029AC0008F074FF2068B0F1804F14BF23220B2295F88D10D5F89C0008F068FF012006B09A
:2029CC00B0BDC046000480A0004000800004C0A00020008028DE00002DE9F04305466E6820
:2029EC00AC680F46ADF1340D0AF0D6FF96F8D910241D012903D10BF008F9002084E04FF03F
:202A0C00010986F8D9900BF000F94FF00008C6F888803869306178697061387E3076387BC5
:202A2C00307338783070786886F8A480706078694146092828BF494686F88C10207A01F091
:202A4C0055FA284605F080FCE07D86F88D002846FFF716FF50B9207A01F0DEF90AF09CFF5B
:202A6C0086F8D9800BF0D1F845464CE001A84146302208230AF08AFF06956078CDF8008010
:202A8C00234A0990217801AB06F11C0007F066FC01A84146282208230AF0BAFF05951D491B
:202AAC00606801AA4346079006F1380007F052FE307878B901A84146242208230AF0A2FFEC
:202ACC008DF81C9006F16C00414601AA08F062FC114800E0B868B06005F0BEF9C6F8A0005B
:202AEC00307B012808D1D6F89C000C490BF04EF8D6F89C0000B18560094A06F1C4000421EA
:202B0C002B4609F011F928460DB0BDE8F083C0466D540000538900001BDB000099A0000020
:202B2C0081D900002DE9F84F06F0C0FF5FEA000800F08A80464E002435680094B8F1000F31
:202B4C004ED0C4F30C00002700B90127DFF808A1B9460AF1100A48B928460F21012207F033
:202B6C00A1FF284600220A2107F09CFF04F5802004F0D4FF0025B8F1000F1FD02919504658
:202B8C004FF4807202F094FE28194FF48071524600F5802004F0E0F85FEA00080AD0D346BE
:202BAC004FF480771BF8011B009808F01BFB7F1E0090F7D105F58075280BDCD03068B9F1F5
:202BCC00000F054608D00F21002207F06BFF284601220A2107F066FF04F58054600CADD036
:202BEC00B8F1010F04D04FF4F42004F097FF29E028460A21002207F055FF0098002108F09B
:202C0C00F1FA002108F0EEFA04464FF4F42004F085FF104A0027978197804FF6FF7050806F
:202C2C0014804FF40046D6800425957346231372537293721021D372FF274FF4F420D773EF
:202C4C0004F08AF808F07EF94046BDE8F88FC0462C05002098310020983100202DE9F04161
:202C6C00424C474D8046C8F38140401E02D0401E2AD025E0284620300168880C20D24FF467
:202C8C00804020603A48D0F802204B0AC1F3033703F0800322F08F02134347EA0302C0F8DC
:202CAC000220D0F801300E1266F30303C0F80130026801F0E70722F0E70247EA020102E02B
:202CCC004FF00041204601602A4E06F108000068C0F3C0070FB94020A0624FF400702064E7
:202CEC000AF062FC40F0300084F8C800C8F3815038B3401E03D0401E1ED002211DE0012097
:202D0C0009F0E6FD07460420394606F085F9042009F0DEFD8742FAD1366826F07F4008F070
:202D2C0089F915480068036807214FF06022300E98474FF4806020600321042006F06CF989
:202D4C0006E00420012106F067F90C4808F072F9284600680B4947F6180700F03F0084F8FD
:202D6C00CB0F094E0F803068BDE8F08140A00C400A600840A83F0050B4010010BD37860085
:202D8C006C13005070B00C402C2009402DE9F0430646880FADF1140D7FD305F08BF8434D12
:202DAC004FF000081C35C5F800803D4845F81C0C012003F084FD3B480AF052FD3C484346DA
:202DCC0040F60A0200F13801438790F84440C0F83C8090F845700A8004F0F00480F8444086
:202DEC0007F0F00444F00104B76880F8454081467B803C1D00E03C1D276817B13888824258
:202E0C00F9D12160607A00F0F000607209F124000AF01DFF80680088D21F82421DD0521C1B
:202E2C0082421AD006F120000788B7B196F82C2096F82D70C6F8248002F0F00286F82C20B5
:202E4C0007F0F00242F0010286F82D20C9F83C00487B738400F0F0004873B068694609F06B
:202E6C0065FB68460AF098FBB06803F0AEFF28680028FCD0C5F80080012009F029FD0128C9
:202E8C0008D0607A00F0F00040F00100607206480AF0E6FCB06845F81C0C05B0BDE8F0831D
:202EAC0001010E044D1000005D87000000100440101400202DE9F04F0C464549CA7AADF102
:202ECC002C0D84460592487B09900D7900958A7A488B4B8A0E7B91F805A091F802800492D1
:202EEC00B1F846E008904A7A088B0392CD7807900A7AC88A02920F6A0690CA79888A019236
:202F0C008A79E146A9F54079B9F11D0F10D8DFE809F05B5553514F4D4B494643413F3C3AA3
:202F2C00380F34312E2B2923201E1C0F19181716BCF1280F49DA604606F0B8FF21E0099E6B
:202F4C00B246D046CDF814801DE00898079007980690DDF818E005E038310868206088887A
:202F6C00A08032E070460AE0B1F8440009E0B1F8420004E0B1F8400001E091F83E000346F4
:202F8C0012E0208021E0059804900498039001E03231E2E7039802900298009006E0019A4D
:202FAC0087310DE068310BE01846EAE7009D0BE02C31D2E7276008E0583100E0483110228C
:202FCC00204602F075FC00E025700BB0BDE8F08FD40800202DE9F041444C94F8E700ADF1E4
:202FEC00280D00286FD1394F387B01250021242284F8E7507E6884F8E6000823C4F80C6111
:20300C0001A80AF0E7FC002604F10C00069601ABADF814602E490796324607F095FE2D490A
:20302C0004F1300001AB324607F08EFE2A4904F1540001AB324607F087FEB8680146284687
:20304C008847DFF89C8025487B7B0078D8F80410C1F381571BB1032F03D184F8E150032FA6
:20306C0016D0022F14D0012F26D103201D4C009031464FF040521C23204606F06BF900952A
:20308C0031464FF400720923204606F063F913E0022008F017F8032F0CBF4FF47A7142F299
:2030AC001071114800685434B1FBF0F120460AF0F4FD20460AF0F4F8D8F80000C00802D2A4
:2030CC00304607F0FFFF0AB0BDE8F08110E7000027780000915E0000D5670000293500206A
:2030EC00B03F005000A00C40BCE70000641A0020F8B509F0BFFE404E3E4F0446A00823D3F2
:20310C00B96A09B33D4600200B698A69A86204EA0300104340F0020006F1080288610B69DC
:20312C0010689843106001F1100090E80C0030681A1C9043306005F1300007F0E7FC0221E6
:20314C0005F1C8000AF02EF8B86AA10815D200F110020CCA002122400B40002B08BF002A10
:20316C000BD0016985690C40F8622C434FF48041846107F1C8000AF015F8B86A002837D1F9
:20318C0007F1240420460AF062FD051C30D0F868E968884226D1A86805F0B0FF1749086035
:2031AC00E0B906F1080128690A6810430860326805F1100393E80300081C10433060002361
:2031CC003361A86846F80C0C06F1100000680028FAD0204609F0DEFEBD62F8BD086804F015
:2031EC0097FEF8BD07F1C8004FF4805109F0DAFFF8BDC046101400200C100440CC2C00205C
:20320C002DE9F04104466768A5680E46ADF1380D0AF0C2FB97F8DC102D1D012903D10AF08A
:20322C00F4FC00205EE04FF0010887F8DC800AF0ECFCF168204604F0F1FA0028F1D13078FF
:20324C00387070687860307A002130220823F86001A80AF09BFB0694287A00260990234AC9
:20326C000096696801AB07F1100007F077F801A82822082331460AF0CBFB05941C49E8681E
:20328C0001AA3346079007F12C0007F063FA01A82422082331460AF0B5FB8DF81C8007F19B
:2032AC006000414601AA08F075F8387838B907F17C00314601AA08F06DF80E487860C7F88A
:2032CC00BC603E72C7F8C060286800F00FFE204605F0F8FF084A07F1C8000421234608F0C0
:2032EC0023FD20460EB0BDE8F081C046693C0000B98500000BDB000035D600003EB50AF0A1
:20330C0053F83B4C30B90620641C20700AF008FB00203EBD002501206821657003F08EFD76
:20332C002220694601228DF80000372008F0DAFA08B9052060700AF0F3FA6078002818BF51
:20334C00281C54D101200C2103F078FD0220694601220AF03EFA00283CD09DF8000040080B
:20336C0036D303200DF1010107220AF032FA68B39DF80700000927D29DF802109DF80100D0
:20338C00B4F908501B4B9DF8042040EA012000B268439DF803500112A3F11400B4F90A30CB
:2033AC00018445EA02219DF806509DF8052009B259430912B4F90C30418442EA052109B258
:2033CC0059430912818407E0032004E0042002E0022000E00120607011208DF800006946D9
:2033EC0001220A2008F07EFA0AF09AFA60783EBDDC230020C82200202DE9F047ADF1180D6A
:20340C0001F088FE3A4D4FF0030908274FF6FF78002605F13E0A2C4609F04CFA20BB0096E6
:20342C0001A80DF106016A4608F071F8E0B9BDF80400102814D160789DF8061088420FD125
:20344C0000980188884509D14088C00B08D3042005F12002014607F029FC01E005F074FE43
:20346C00009808B109F0BEFC208A41082DD320F0010063792179208253EA010225D073B9BF
:20348C00207A637A8DF8070005F132018DF808300A680DF109031A608988998001E08DF8B1
:2034AC000790A07A8DF80F00E37A8DF810300DF107000AF0DBF938B1636AA77023B11A68A3
:2034CC0012B1196838468847208A810807D320F0020020825146304603F004FC208AC1081B
:2034EC009AD320F00400208207F08CF894E7C046D40800202DE9F84F00298346009106DDE2
:20350C00024600980021401E42F8041BFBD10098DFF8C880DFF8CC900028C8F800B012DDAA
:20352C002F48009C0768002537F8020B38B1D9F80000AE003158002088474BF80600641EF1
:20354C0005F10105F0D1284F41460120D7F80080C880B8F1000F22DD4FF0000A009801272C
:20356C00002817DDABF104050446002655F8040FB0F1FF3F04D0D9F80010715888472860FA
:20358C000021B0F1FF3F08BF0121361D641E01EA0707EBD137B90AF1010AC245DEDB04A052
:2035AC0009F0F4FA0D4900200860BDE8F88FC0467864632E72756E74696D652E53746172CF
:2035CC007475703A20276D61785061737365732720657863656564656400C046481A00204A
:2035EC000CE8000010E8000008E800002DE9F041384E307800286AD0374C208910F07F0F52
:20360C0000F07F0861D006F0C7FE344F21783D78A0700DB9022930D12279C30913D24008D4
:20362C001CD306F063FF06F06DFDE078E188002808BF217812D0002542F21070E57090FBF3
:20364C00F1F0217809E0521CD0B20228207105D1E08842F21072B2FBF0F0E060002502293F
:20366C003D700AD12089C00907D3FFF747FE052821D008B104F066FB2178E76817B9012921
:20368C001AD122E0022909D0022020700027277103F0E6FC10B1404607F086FA2089000A76
:2036AC0002D3E068401EE06004F114020020122104F09AFD09E0E5600020207101272770BC
:2036CC0003F0CEFC08B100F039FB00203070BDE8F081C0462D350020B42200202B35002070
:2036EC002DE9F04706467468B5680AF055F9D4F88810002963D00AF088FA2968486820F057
:20370C00020048602968486A20F003004862D4F8A07068692969084379680968C1F8040555
:20372C002968486920F00100486128684FF00108C0F82080304608F033FBD4F88800D0F899
:20374C0004900AF029F904F1D8078246387850B119F0704F02D1042007F09CFC022007F0F9
:20376C0099FC0020387050460AF04FFAD4F88810087C042803D003200874D4F888102A698A
:20378C006869D4F8A0304746104307FA00F258680068C2622868B0F1804F14BF0A480B4819
:2037AC000F68006800258204A7EB9250401E08603046A268C4F888509047BDE8F0870AF038
:2037CC0024FABDE8F087C04608050020380400202DE9F0430646ADF11C0D0AF02BF907F0A3
:2037EC00F9FB4FF000090546CDF800900AF0C8F830F0010002D00098A84202D16FF004007C
:20380C0059E070684C4658B1B0F1FF3F05D001A907F0C8FB30B107464CE04FF0FF3000E030
:20382C002046019008F072FF0199012701EB000800E001936868019900F08CFC00282ED0EA
:20384C0003A807F079F8D8B99DF8100002A907F059F888B9B368BDF808009DF81210059AB1
:20386C00984748B19DF81270B773BDF80800B081059B33614F4612E00599684607F082FFB6
:20388C000198641CB0F1FF3FD4D00028D2D008F03DFFB8EB000302D001989842C9D2009963
:2038AC0005F1080008F0B4F924B1686803F052FF641EFAD1384607B0BDE8F083F0B5ADF193
:2038CC00340DFFF787FB304908682822082340F00200086001A800210AF09AF82B4E2C49E7
:2038EC000524002301AA079406F1C80006F032FF00213022082301A80AF048F80025FF2778
:20390C001921244AADF81C5001AB099706F14C00009506F023FD2822082301A829460AF021
:20392C0077F81D4901AA2B4606F1FC00079406F011FF3022082301A829460AF027F8012423
:20394C001A21164AADF81C4001AB099706F16800009506F003FD12492A4606F1A4001346CA
:20396C0007F0F2F90F4809F07BFFB47186F8A3507571F57135727572B5724FF6FF7075616E
:20398C000DB0A6F8A000F0BD002009401014002021D100004DC20000E9490000B18700005B
:2039AC0065BF0000C14300002DE9FE4F0CAF3D8883460E4608469846144601A908F06EF845
:2039CC00012808BF01205ED0BDF80400DFF8BCA042F6021100274FF0FF09401A40D048F253
:2039EC00FF21401A2BD0401E13D0401E36D1002D32D1B8F1020F2DD1207806281DDAF068A3
:203A0C00218801802248F168884231D14FF0020931E00DBBB8F1060F1CDA207810280CDC52
:203A2C00F0682146424601F043FFF1685046001D88421DD14FF001091DE0802718E05DB941
:203A4C00B8F1100F06DCF0682146424601F030FFB94610E00D270BE00B2709E00A2707E008
:203A6C000095584643463146224605F005FC0746B9F1FF0F06D05046006818B1016809B1E4
:203A8C00484688473846BDE8FE8FC0468C1F0020881F00207CB50446084603F025FC344E16
:203AAC0002461821304607F0C5FE08F02DFF40F2FF32002380B22C210090304605F04AFCDF
:203ACC0009F07AFD1C210246304607F0B3FE08F00DFF02461421304607F0ACFE09F0EEF94F
:203AEC0002461021304607F0A5FE204603F04CFA02460C21304607F09DFE204609F0C6F9F7
:203B0C001C4D400040F020002870204609F0CAF940F010002870204608F018FD024628210A
:203B2C00304607F087FE204609F0D4F9400040F06000E870204609F0D9F9C00040F0800092
:203B4C0005F8080C204609F0DDF9800040F47C40A5F89300204607F083FE024608213046AE
:203B6C0007F068FE4FF48000A5F2091108607CBD00A00C4049A10C40BFB5374C0746401E03
:203B8C003CD0344D401E21D0801E012833D9801E02D0801E25D05AE0284609F03DFD10B9C3
:203BAC0028460AF056F8E0680A210022054606F079FF002228460F2106F074FF002228463C
:203BCC00152106F06FFF03F02BFC40E0284609F023FD10B928460AF03CF8002009F016FAF0
:203BEC0035E008F091F904F10C0000680A21012206F058FF2BE008F087F928E00F2005213E
:203C0C0005F09AFD4FF441706946FFF753F99DF801508DF809509DF802308DF80A309DF848
:203C2C0000008DF8080000228DF80C209DF805108DF80B209DF804508DF80F109DF8033069
:203C4C008DF80E5002A88DF80D3009F065FC27700090BFBDA40500202005002098B5354933
:203C6C00446809688068496800688847324A0121916140B1237AFF2B05D0FF214009217232
:203C8C0053D2042149E0207A00284ED0401E17D0401E02D0FD3848D044E05368D4F8B400A4
:203CAC000370D4F8B400401CC4F8B400D4F8B8707F1EC4F8B8701CD0012F88BF09212CE02B
:203CCC00D4F8B0707F1EC4F8B07014D1D4F8B8707FB10220D4F8A8102072097C012F4FEA44
:203CEC00410141F0010142F8041C94BF03210B2114E004210FE0D4F8AC0000785060D4F8D2
:203D0C00AC00022F00F10100C4F8AC0005D2D4F8B87017B90521002020720220116009F061
:203D2C002FFF98BDFF20207298BD04F12C0005F035FE98BDAC010010042800403348F8B5FF
:203D4C00057809F031FB00284FD00120682103F075F8002859D02E4C0920211D0122087097
:203D6C000F466B2007F0BEFD00283ED007202071394601226C2007F0B5FD002835D001268C
:203D8C001D2039462671324607F0ACFD00282CD04020207139463246382007F0A3FD20B3DE
:203DAC00C020207139463246692007F09BFDE0B125711F203946324607F094FDA8B1062013
:203DCC002071394632461E2007F08CFD68B129202071394632466B2007F084FD28B1E11CCE
:203DEC001C20324607F07EFD10B909F099FDF8BD3A203946324609F0ECFC09F091FD0020AB
:203E0C0020700449606907F02DF9F8BDB5220020DC230020070006802DE9F843044609F0E7
:203E2C00BBFD81462D48021992F8ED10491ECFB2002F82F8ED704BD12B4D05EB84052E783F
:203E4C00698836F07F0788461AD1F10911D24FF08054D4F8B801806901464046884704F50D
:203E6C00DC742068406B0146404688470228F8D121E000EB8800D0F80011002088471AE0EE
:203E8C004FF08054D4F8B801006A014640468847D4F8B801806A014640468847D4F8B801E8
:203EAC00006B01464046884701210D4A0D48116001688908FCD306F03F003F2801D0FFF784
:203ECC00ABFF687800F03F003F2801D0FFF7A4FF484609F09AFEBDE8F883C046641A002069
:203EEC002820086028200840B4DE00002DE9F041064609F051FD2D4D8046A91991F8ED0092
:203F0C00421C002881F8ED204AD1294C04EB8604277807F03F003F2801D0FFF7E7FF6078BF
:203F2C0000F03F003F2801D0FFF7E0FF668837F07F001AD1F80911D24FF08054D4F8B8013E
:203F4C00406901463046884704F5DC742068406B0146304688470128F8D121E005EB8605AA
:203F6C00D5F80011012088471AE04FF08054D4F8B801C069014630468847D4F8B801406AF1
:203F8C00014630468847D4F8B801C06A0146304688470121074A0848116001688908FCD351
:203FAC00404609F032FEBDE8F081C046641A0020B4DE000028200860282008402DE9F84F5D
:203FCC000D46064628687468D6F80880002855D009F0E2FCD4F8881021B109F016FE0320EA
:203FEC0028744BE001272F74C4F8885009F00DFE94F8A40038B194F88D202249D4F89C0066
:20400C00114307F02FF8D5F804A009F0C5FC04F1D80999F80030834653B91AF0704F02D1EF
:20402C00042007F04FF8022007F04CF889F80070584609F0EAFDD8F80010486840F0020084
:20404C0048603046294600F051F9D8F80010486940F001004861207830B9616804F16C0572
:20406C00284600F077F810B13846BDE8F88F3046FFF736FB2846002100F06CF80020BDE8B7
:20408C00F88FC04600000680294A2DE9F04180460126284816600768002FFCD0294C2A4F1C
:2040AC00C020443C206007F1080001682348890804D20168090C41F0F00100E072211E4D5B
:2040CC0085F85412002111638768384602F0F8FB40463946FFF7DEFC1C48B038816D40F2C9
:2040EC000F226FF31F418A4212D901680068C1F30363C0F3034003B15B1E072805D00628CA
:20410C000EBF0720801C00F00F0043EA001028703846FEF7A3FD0E4814380068C1680220C7
:20412C00884740202060064F3E60BDE8F081C046101009409402224302600840AC3F00506C
:20414C009404604244600C40A83F00506C130050B40100102DE9F0410D460646B5F1FF3F94
:20416C00ADF1380D09D045B12B496B4605A82A4607F02EFF05A9022001E000210320039192
:20418C00264F8DF8100038682024EFF31188371884F31188708980BB002D04BF88F3118813
:2041AC00002036D009F0A8FA064609F043FC0290C0F818D006F016FE3846694609F01CFC34
:2041CC009DF810000025022802D1039803F090F988F31188304607F00FFFEFF3118384F379
:2041EC001188039810B109F054FD03950298856183F311889DF810000BE07089401E708175
:20420C00039818B109F045FD0020039088F3118801200EB0BDE8F08151BA0000C8E700007D
:20422C002DE9F04115460446A869A060686A98460E4608B92A4800686062286A002806BF95
:20424C0028480768071C09F0B3FBEB69A3B9002808BF391C03D03F1841427F1E39400246AA
:20426C00E161606AE169434602F0D2FF2062206AB8B90120BDE8F081002804BF2362391C17
:20428C000BD01B1841425B1E01EA030020623F1AE869C019E061E0690140E1614FF0FF309A
:2042AC006062A6622869E06268692063A86A6063A88DA087A08F012803D10B49C868401CC4
:2042CC00C8602046414602F083F90346404608F08DFF002814BFD81C0020BDE8F081C046D1
:2042EC00DCE70000E0E7000098230020F8B58C4645688468DCF8007095F88C10B8B2884096
:20430C001FFA80FE2068B0F1804F14BF244B254BDCF80820244832B995F88C108E0081596C
:20432C0005F1A60207E095F88C108E00811951F8081C7244521E99605A6021683A0143F658
:20434C00F077103A0831174019609A683A439A602368B3F1804F14BF144A154ADCF804C0F8
:20436C00BCF1000F04BF805904F10E0605D0801950F8100C0EEB0C06761E90601660516048
:20438C009068074397602169D5F8A06060690843716809688862586A40F003005862F8BDD5
:2043AC00000500203004002040DE00001005002040040020042998B54DD1274C04F124009D
:2043CC0009F045FC40B994F8A300400838BFE06804D3D4F8880000E0C068E06041681F4A63
:2043EC0009781160416812680978914206D0876927B120A20CCA6FF0FF01B847022006F09C
:20440C0061FE1120FFF772FD0120E071E068011D007C10B16079012804D00E20FFF766FD29
:20442C00E168091D08680E49083007680FB947681FB10020C8610B4F0F600B4A40F2FF7044
:20444C0000271060094C8F6109484C6109F008FA192005F081FA98BD10140020D021084000
:20446C0000100440510007060000046002000040992D000000000000000000021EF0040FEF
:20448C0014BFEFF3098169468869EFF3118102B400B5DFF89CE0F047284A116801EA0000F2
:2044AC0010605DF804EB1EF0080F03D101BC80F31188704704BC1EF0040F14BFEFF30981A3
:2044CC006946A1F1200114BF81F309888D464A604FF08070C8611A488861184B186808602B
:2044EC0040F201101860704702B401B4EFF3148100291CBF002282F3148802B402B4DFF8E2
:20450C0034E0F04701BC01BC00281CBF022181F3148801BCDFF820E0F04704484FF080516D
:20452C00016001BC80F3118800BF00BF04ED00E05988000063DB000011DC00003024002076
:20454C00F54400002DE9F8430646B0680D4600F1080874686868002710B9E868002850D0D9
:20456C002078012814D109F017FAD4F8BC1049B1D4F8C0108D61C4F8C05009F046FB01203C
:20458C00BDE8F883C4F8BC50C4F8C05009F03DFB022006F097FD04F160004FF0FF318146F3
:2045AC00FFF7D8FDD8F8000005F0B4F93046294601F0D8FB0546D8F8000005F0CDF920789B
:2045CC0088B9B5F1FF3F08D004F17C004FF0FF31FFF7C0FD207A48B110E0032020720220E5
:2045EC0006F058FD0AE0B5F1FF3F01D0012705E00320207204F12C0005F0D0F9484603F0A3
:20460C00A9F83846BDE8F8832DE9FE4F0CAF3C8881460D4608469846164601A907F03EFAF2
:20462C00012808BF01204CD0BDF80400DFF898A042F6021100274FF0FF0B401A2DD048F22D
:20464C003F11401A31D0401E13D0801E23D104BBB8F1010F1BD1307848B1E9680870E968B1
:20466C005646701C884220D14FF0020B20E080271BE074B9B8F1010F09D13078E96808702C
:20468C00E96856468E4210D14FF0010B10E00D270BE00B2709E00A2707E000944846434638
:2046AC002946324604F0E8FD0746BBF1FF0F07D05046001D006818B1016809B158468847DC
:2046CC003846BDE8FE8FC046C81D00202DE9FE4F0CAF3C8881460D4608469846164601A9E5
:2046EC0007F0DCF9012808BF01204CD0BDF80400DFF898A042F6021100274FF0FF0B401AD8
:20470C002DD048F21F11401A31D0401E13D0401E23D104BBB8F1010F1BD1307848B1E968E2
:20472C000870E9685646701C884220D14FF0020B20E080271BE074B9B8F1010F09D130786B
:20474C00E9680870E96856468E4210D14FF0010B10E00D270BE00B2709E00A2707E00094C5
:20476C00484643462946324604F086FD0746BBF1FF0F07D05046001D006818B1016809B1D3
:20478C00584688473846BDE8FE8FC046601E00202DE9FE4F0CAF3C8881460D460846984624
:2047AC00164601A907F07AF9012808BF01204DD0BDF80400DFF898A042F6021100274FF0D6
:2047CC00FF0B401A2ED048F2FF01401A32D0401E14D0401E24D10CBBB8F1010F1CD130782B
:2047EC001E2809DBE9680870E9685646701C884220D14FF0020B20E080271BE074B9B8F1C2
:20480C00010F09D13078E9680870E96856468E4210D14FF0010B10E00D270BE00B2709E01E
:20482C000A2707E00094484643462946324604F023FD0746BBF1FF0F07D05046001D0068B5
:20484C0018B1016809B1584688473846BDE8FE8FF41E00202DE9FE4F0CAF3D8881460E4613
:20486C0008469846144601A907F018F9012808BF01204CD0BDF80400DFF898A042F60211B4
:20488C0000274FF0FF0B401A2DD048F27F11401A31D0401E12D0401E23D105BBB8F1010F15
:2048AC001BD1207840B1F1680870F16855468D4221D14FF0020B21E080271CE07DB9B8F122
:2048CC00020F0AD1F06821880180F1685546681C884210D14FF0010B10E00D270BE00B27AF
:2048EC0009E00A2707E00095484643463146224604F0C2FC0746BBF1FF0F07D05046001DDD
:20490C00006818B1016809B1584688473846BDE8FE8FC046841C00202DE9FE4F0CAF3C8872
:20492C0081460D4608469846164601A907F0B6F8012808BF01204CD0BDF80400DFF898A085
:20494C0042F6021100274FF0FF0B401A2DD048F26F11401A31D0401E13D0401E23D104BBD2
:20496C00B8F1010F1BD1307848B1E9680870E9685646701C884220D14FF0020B20E08027F5
:20498C001BE074B9B8F1010F09D13078E9680870E96856468E4210D14FF0010B10E00D27D2
:2049AC000BE00B2709E00A2707E00094484643462946324604F060FC0746BBF1FF0F07D00D
:2049CC005046001D006818B1016809B1584688473846BDE8FE8FC0461C200020F8B508F0A0
:2049EC00DBFF2A4C0746103CD4F89C0010F4602F2BD0D4F89C00400CC5B2680807D2A808A8
:204A0C0003D2E80828BF022502E0012500E000256E1D70B203F0F0FED4F89C3005F111017C
:204A2C000120884023EA00013846C4F89C1009F0ECF804EB8500D0F88C704FB1D4F8880024
:204A4C0013A20CCA3146B84702E0384609F0DDF8D4F89C0020B104F1FC00002108F0A2FB3B
:204A6C0094F8A30080080FD3D4F8987037B1D4F8880009A20CCA6FF00101B84794F8A30071
:204A8C0000F0FD0084F8A300F8BDC046201400200000000000000008000000000000008067
:204AAC002DE9F0412D4C0546A41C20781F4690460E46ADF1380D012803D0FEF7FFFE012006
:204ACC0020705EB1B8F1000F6E6007D0C5F8088008F062FF617819B109F097F8002038E0CD
:204AEC00491CC9B2617009F090F801241FB9684608F03CFC6F46386828607868E860387AE6
:204B0C002874F8686861386900B1A8610021782205F1200001F09AFE05A8002124220823D0
:204B2C0008F070FF8DF82C4005F13800002105AA06F030FC05A800212422082308F04AFF71
:204B4C0005490B9505F17000002205AB06F0FCF828460EB0BDE8F081ABDB0000101400202D
:204B6C001CB52D4C401E02D0401E44D01CBD08F0EFFE400931D32089FF2831D00120694691
:204B8C0006F040FABDF8000010F07F0F18D0BDF800002081022002F031FF08F005FCA8B1C2
:204BAC001E48006841F28831B1FBF0F002F07EF905F0C6FABDF8001041EA0020208105E0EF
:204BCC00BDF800002081002002F018FF04F108020120022103F008FB07E0FF20083420802F
:204BEC000120FF21022207F031FD00201222014607F02CFD1CBD02200DF1020106F002FA76
:204C0C009DF802002346410001EBC001D98003F1280003F01FFD1CBDB4220020BCE70000A4
:204C2C002DE9FC470AAF3F8882460C4608469946154601A906F032FF012808BF01204AD0F1
:204C4C00BDF80400DFF8948042F60211FF26401A2ED048F26311401A012827D827BBB9F120
:204C6C00010F1FD1BDF804104AF666200027884202D12978032913DA2978E2681170BDF8FA
:204C8C000410884205D0E1684046884218D13E4618E0E1684046401C884211D1012611E068
:204CAC0080270DE00D270BE00B2709E00A2707E0009750464B4621462A4604F0DDFA074655
:204CCC00FF2E07D04046001D006818B1016809B1304688473846BDE8FC87C0460822002092
:204CEC00F8B508F0FFFD08F009FE044604F00C000C2845D0E0081ED206F078FE234E376821
:204D0C0005460120014607F06FFD31686943884211D21F4C8220B0FBF7F0291A204608F03F
:204D2C00BCFF204608F0BCFA0120FCF7A5FD204607F0FCFC25E0200922D21648610939BFAB
:204D4C00016821F00101016841F0010102460160D2F898004FF0805440F00300C2F898008C
:204D6C00D4F8B8018069014620208847D4F8B801094C806B2168804701202060206800E045
:204D8C0030BF08F0B5FD02F0E3FAF8BDBCE70000701A00208C2108402C200940F8B50D4613
:204DAC00EEB2290824BF26494D40264BB400195985EA01020240C2F3006C234A00EA050768
:204DCC008143FF323A4000F4E0270A43B7F5E02F01D1510E15D300F4E0215CEA010710D019
:204DEC0002F4E027B7F5A02707D0B7F5803704BF22F4003242F4A02203E022F4803242F419
:204E0C00C0221A51114CC10D04D3A4F18001C5F380528A55000E11D308F0BEFD290E03D207
:204E2C0001210022B14002E00121B1400A46503423688B431A43226008F0E7FEF8BDC04698
:204E4C00006000A000100840007F077F802002407FB504F02BFE041C46D04FF4802010216C
:204E6C006A4603F0C2FD041C38D00098204E410F01D0864200D200241E4901981F4D814288
:204E8C0004D829465639814202D226E0000B24D124B3194810216A4603F0A7FD041C1DD0D2
:204EAC000098410F01D0864200D200240198010B13D02946814210D384B103F0F5FB104D5D
:204ECC00064610214FF4F4202A4603F08EFD28880024B04208BF012404E000244FF4F420F3
:204EEC0002F01CFE06F02EF8204600907FBDC0460050002001F0010010100400FFFF0100C1
:204F0C009831002070B5294C294D012806D028BB21460020491C08F0E3F91FE02146012063
:204F2C0008F0DEF90878022811D0491C002005F06BFD28680A210022064605F0B3FD002239
:204F4C0030460F2105F0AEFD06F07AFF06E008F0FFFC4870491C002005F056FD214608784B
:204F6C00012822D1286861780546490834BF002201220A2105F096FD6078800834BF0022A4
:204F8C00012228460F2105F08DFD6078C00802D206F056FF04E0284605F0F0F805F00CF9DD
:204FAC006078000901D302F06FFA70BD2C2600202C050020B0B5294C6078410809D320F0FE
:204FCC00010060700A20014604F0B6FB04F06EFE6078234D810807D320F002002F7860704A
:204FEC00062F01D103F0DCF92078A178884232D006F0C2FEA7782078790803D341083CBF51
:20500C000021A180B90803D381083CBF0021E1802978022903D107F0F9FFA7782078B9089E
:20502C0008D3810806D22978062903D003F0B8F9A778207810F0030F0DD067B904F108001E
:20504C00054608F0E9FA28B9284608F002FE0020E080A0802078A070B0BDC04634250020A3
:20506C00200500202DE9F0410E46294990461C4606AF8C4672680878BB8851783F8812785C
:20508C00002502EB012242F62321521A29D0521E052A18D9921F0CD0263A34D1072F30D82E
:2050AC00C7F10700984298BF83B2674407F1080121E0B84225DBC01B9842D8BF83B22380F4
:2050CC00DCF804000BE0F06808F0B4F980B2B84217DBC01B9842D8BF83B22380F068391819
:2050EC000AE0082F0DD8C7F10800984298BF83B207EB0C010F31238040461A4600F0D8FBED
:20510C0003E0072501E025800A252846BDE8F0814C1600202DE9FC4706F0A2FD284C002532
:20512C00A5704FF6FF70A08205F088FA234F2A462070012039461346009004F1A80003F076
:20514C0091FF4FF002082A4604F1CC003946CDF80080134603F086FF04262A4604F1F00025
:20516C0039460096134603F07DFF04F14809102248462946E67001F069FB04F1580A10229D
:20518C005046294601F062FB04F120073D602572072065721021A0724A46E572404605F0BD
:2051AC006BFD03201021524605F066FD30463A46014605F061FDBDE8FC87C04679D0000030
:2051CC00D408002038B504464A78284D087800EB0220ADF800006A88BDF8000090423AD1A3
:2051EC00BDF80000891C000108F0A2F86888AB88401C81B269808B4229D103F05FFDE0B174
:20520C002046002102F06AFB06F0F6FF29780843287005F0FFFF07F049FD90B128784108DB
:20522C0005D3AB692146032000229847287810F0060F06D008F0D8F903E02046012102F03A
:20524C004DFB00242C7007F069FE6C8038BD204602F04AFD38BD00206880287007F05EFE74
:20526C002046032102F03AFB38BDC046241800202DE9F84F804608781C4616460AAF0228D6
:20528C0031D02348DFF88C90D1F804B08569102282464946584607F0A6F8002740B9002D2F
:2052AC0033D08AF80140012041463246A8472CE009F110015846102207F095F810B925B301
:2052CC000220F1E709F120015846102207F08BF890B9012C05D13078002818BF8AF80A00E4
:2052EC0013D1802711E048684278007842F6021500EB0220854201D00A2706E03888324601
:20530C000090404603F0B8FF07463846BDE8F88F2418002074DE0000264838B550380468CD
:20532C00B4F1FF3F08BF002407F0F8FF22481749002510380560012008601549086003F0C7
:20534C0045FC1448006820B1134800682046FEF79BFE124812490560124C0A686FF35B42CB
:20536C0044EA0200086010490868C0F30130012806D10A680D48104040F400320A6008608D
:20538C000B4908680028FCD138BDC0465C600C400822044380012843000120438C2108408F
:2053AC00482003400000390104000940FFFFFCFC0C0068426C130050940460422DE9FE4F97
:2053CC000CAF3D8881468B4608469846144601A906F064FB012808BF01203DD0BDF804004D
:2053EC00DFF878A042F602110026FF27401A21D04AF2C031401A0BD0401E19D1B5B9B8F10F
:20540C00010F11D12078DBF80C10022708701BE065B9B8F1080F07D12168656850460E308B
:20542C000160012745600FE00D260BE00B2609E00A2607E00095484643465946224603F04E
:20544C001BFF0646FF2F06D05046006818B1016809B1384688473046BDE8FE8F2C1D00208E
:20546C00B0B501468B681C68E26948682262520824D2D0F8A01049680A685D69D2F80415EA
:20548C00294206D01C68616A21F002016162C2F80455D2F8042519690A4230D01A68516A88
:2054AC0021F001015162D0F8A0205268196912683830C2F8041504F071FAB0BD1C68626986
:2054CC0022F001026261D0F88870AFB9626822F0020262601C68626A22F003026262D0F82B
:2054EC00A0005A6940681C6900682243C0F80425084606F055FCB0BD0846FEF7F1F8B0BDC7
:20550C00F0B520480127F84201D003F043FE204D204F214EBD4206D203CD0478A40034596C
:20552C00401CA047F6E71D48002800D08047164D164FBD4202D210CDA047FAE7F0BD032506
:20554C001BE0416808300A1C2A400BD11A1C2A40AB4305D0046804300C600431043BF9D14A
:20556C00131C05D0047801300C700131013BF9D1021C2A4001D0A84304300368002BE0D1FB
:20558C007047C046FFFFFFFF0000000000000000F0F3000020F40000BCF30000B98D00005A
:2055AC002DE9F0470F46064608F0A6F8EFF311898246202080F31188D6F80880474533D0E6
:2055CC001D481E4B0468002F05D49C690125BD4004EBC70401E0E4180025307D01281AD1D8
:2055EC00304608F02EF9306C08F024F918B1F1685868884358601869864204D020463146FA
:20560C0008F0FAF904E020685C61314608F04BFB586828435860B760F5603464002F44BF9C
:20562C00002058610120188189F31188504606F0E3FC4046BDE8F087D0E700009823002017
:20564C002DE9FF41244D8046681C00780E46082814BF04240024084604F0A8FA684601F08F
:20566C00ABFEA4190026E178A0786E8000EB01202E7080106946A880204602F007FB18B3FD
:20568C00204608F098F8E861000BE88007F052FCA8B1E888A988C4B200EB2120C7B2A74211
:2056AC0008DB3F1B7F1C204608F06DFA641CE4B27F1EF8D14046314602F016FB08E0404657
:2056CC00022102F00BF903E04046694601F034F90090BDE8FF81C04624180020B0B5244C83
:2056EC002278E1889308084603D3491C401CE18080B2A18852080F4603D3491C7F1CA180B9
:20570C00BFB2062F11DB06280FDB04F10800054607F082FF58B3284608F09DFA0020A080CB
:20572C00E080607840F001001CE003280BDA38431DD104F10800044607F06EFFB8B1204605
:20574C0008F089FAB0BD97B904F10800054607F063FF60B1284608F07EFA0020E08060781D
:20576C0040F0020060700348006801F0F3FFB0BD3425002028050020FEB5FCF78DFB244CB4
:20578C00002504F1840607F087F858BB009501A80DF106016A4605F0A3FED0B9BDF8040005
:2057AC00102807D160789DF80610884202D1009808F0C8F8009860B107F0F0FA09E0206961
:2057CC0007F026FA071C04D007F000F9384607F0B5FA206908F02EF80028F0D0FFF7EAFB31
:2057EC00FDF704FFA088C1080FD320F004002778A080022F09D1304608F02BFA20780228A0
:20580C0003D10F20012103F097FF04F06FFABAE72005002010B50020442101F00FFB00281E
:20582C0008BF002440D0214C1F200222214607F0D0FF002835D021880806000C40EA212009
:20584C00782815D11020208021460220024606F049F830B302202146024607F0BAFF00B3C7
:20586C0021880806000C40EA2120B0F5805F01D0208016E00020208021460220024606F07C
:20588C0031F870B102202146024607F0A2FF40B121880806000C50EA2120208008BF01248E
:2058AC0000D0002408F03CF8204610BD14350020002A4AD05FEA000C8B071CD1830722D18B
:2058CC00102A08D370B4103A78C978C0103AFBD270BC103238D0042A2CD3082A05D30C2AC6
:2058EC0024BF08C908C008C908C008C908C092072AD0920F22E00B780370491C401C521E91
:20590C0022D08B07F7D1C30714D18307D8D0121F12D308C903801B0C4380001D121FF8D2E2
:20592C000AE008C903701B0A43701B0A83701B0AC370001D121FF4D2121D05D00B780370D7
:20594C00491C401C521EF9D1604670472DE9F843224D884606464FF0FF3105F124008146B9
:20596C00FEF7F8FB00200CE0FF2909D02A688A4204D905EB8101D1F894700FB1002627E0BF
:20598C00401CB8F1000F03D018F82010FE29EBD10024346074600127B46011E0FF280ED033
:2059AC0005EB80000B787268C0F8946007FA03F0104370600A680A49304605F07DFF641C1F
:2059CC00B8F1000F04D008EB84010878FE28E5D1484601F0BFFE3046BDE8F88388300020B1
:2059EC00007FC7672DE9F8432020EFF3118780F31188214CA068012108F043F94FF00109C3
:205A0C004FF0000865692168A4F81C906A1A2168A4F81E80461B401A904227D387F31188B3
:205A2C0040464519361A4846294600F0FDFFB042F7D92021EFF3118781F31188E18B01291D
:205A4C0003D14046294600F0EFFFB0F1FF3F06D0A169801B814238BF081C411901E0A06917
:205A6C00291807F023F8A4F820902560A4F81C8087F31188BDE8F8838C2500201CB50020C9
:205A8C00772101F0DBF9002808BF00243FD0D0206946012207F09DFE002835D09DF8000065
:205AAC00582831D1F5206946012207F092FE00282AD09DF8000038BB55208DF80000694697
:205ACC000122F42005F00EFFF0B1F4206946012207F07FFEC0B19DF80000552814D1B62048
:205AEC008DF8000069460122E02005F0FBFE58B1F4206946012207F06CFE28B19DF8000097
:205B0C00002808BF012400D0002407F009FF20461CBD70472DE9FE4F8046B8F1000F019208
:205B2C000C9802919B46009005D0081C03D0101C01D0009810B90220BDE8FE8F1948017859
:205B4C0000252C4629E0A00038F800A04FF6FF7708EB000657451CD0B778D7B10198029A01
:205B6C00594607F0ACFC5FEA000912D0780806D3009B504601214A4601F0DEFA0543B07832
:205B8C00800806D33088009B02214A4601F0D4FA054304480178641CE4B2A142D3DC2846B0
:205BAC00BDE8FE8FD4080020F8B50F4601464C688E683846203804F10C0432D0401E2CD081
:205BCC00401E27D120781578012814BF19491A49FF2D41EA05011BD0D4F8900001F056FD95
:205BEC0098B93068B0F1804F14BF23220B22D4F89000294605F04AFED4F8900094F881107A
:205C0C0002F04AFB84F8815012E04FF0FF30F8BDFF25F1E76FF00100F8BD002084F898009A
:205C2C00F8BD21780020012908BF012084F898000020F8BD0004C0A00020008038B5234D8E
:205C4C00401E02D0401E30D038BD07F081FEC00823D32C78FF2C22D00120694606F086FC78
:205C6C009DF8000068B9A4B105F1080007F0F3FF002005F091FC00200222014607F002FA06
:205C8C0007E034B9012005F087FC05F1080007F0E0FF9DF80000287038BDFF2028700120BD
:205CAC00FF21024607F0EEF938BD0220694606F05DFC9DF800002C46410001EBC0016180A7
:205CCC0004F1080002F0C6FC38BDC04660250020FEB5044622481646089FC069618250F8A9
:205CEC0021201C4800681D4690420DD01B480068009000220191184E029231888F23384687
:205D0C0006F028FF0120FEBD084603F003FEA66068696060286AB0F1FF3F08BFFF202074BA
:205D2C000026E660288B00280EBF301C0120E0600146A88C10B141F00200E060204602F08F
:205D4C005BFB0346384607F051FA002814BFD81C301CFEBDA8E700004EE7000094E70000A3
:205D6C001024002080B5406800F10802C0F8A8100868C2F8A4004868C2F8A8008868C2F8F1
:205D8C00AC00C8681A49C2F8B000D2F8A87097B9D2F8A000007C400040F0010041F8040C7C
:205DAC00022010700B68DB0917D2D2F8B020022A17D30B2216E0D2F8A000007C01274000D4
:205DCC0041F8040CD2F8A4001770431CC2F8A430007848600868C00902D34FF0FF3080BDB3
:205DEC00022003220A6007F0CBFE002080BDC0460428004022482DE9FE4F801E028880469C
:205E0C005FFA92F1100100F47042801A1FFA80FBB8F80200C5B241185FFA81FA0021AA454F
:205E2C00019124DBAAEB0506761CA8420CBF04240024AA45D8BFA34513DD284621466A46AF
:205E4C0007F03AFE0427E94619F8011B019805F0B1F97F1E0190F7D1241DA4B2B4F5805F33
:205E6C00E7DBB8F802006D1C761EEDB2DDD10198002105F09FF9002105F09CF9BDE8FE8F14
:205E8C002A1800202DE9984307F086FD1F4CDFF87880814604F1E000007850B94446A06840
:205EAC000146022088470746102003F0E3FA2FB320E001F08FFE002820460FD114490968B5
:205ECC003222B2FBF1F101B9012100F13004204607F0E3FE204607F0E3F90FE044460022C0
:205EEC00A16880F8E020022088470746102003F0C1FA1FB1A068014603208847484607F063
:205F0C0084FEBDE89883C04610E70000641A0020BCE7000070B51F4CA568064606F086FF91
:205F2C004FF47A71401B4843050C05F0D5FE2169401A48BF404240F6B831AD19A94211D347
:205F4C0006280FDAA268E1688A420BD8206848B1891A114A51438A0C02EB1141884288BF23
:205F6C00011C08E00D49486840080ED208687D2100F0FF004143C82905D3B1F57A6F88BFC2
:205F8C004FF47A6103E0C82101E04FF4FA61084670BDC0460035002040420F00AC3F0050EA
:205FAC002DE9F04107467868051DD0F8BC00A8B307F0F2FC1A4E00248046F4600420306021
:205FCC00022007F0DDFD2B68D5F8A410384622469847022005F05EF809E081692B682246AE
:205FEC003846C5F8B8109847022005F053F8D5F8B800D5F8BC108142EFD12046C5F8A400E9
:20600C002C71C5F8B800C5F8BC00064B346038461C6003F057F9404607F0F7FDBDE8F08140
:20602C0004280040100405421CB5204C401E02D0401E2ED01CBD07F08BFC00091DD360789C
:20604C00FF281DD00120694606F010F89DF8000030B19DF80000012817D10121617007E05C
:20606C00002006226070014607F024F84FF0FF3104F10C00FFF794FA07E0FF20641C207098
:20608C000120FF21024607F015F8002005F0B0FE1CBD0220694605F0E9FF9DF80010A41CB8
:2060AC00480000EBC10020801CBDC046F00B00201FB5204C002834D0012822D0022837D18D
:2060CC00022002A904F03CFD21467E209DF80920C8619DF808404A76052C0C7614BF022089
:2060EC0004208876887E01F11C048DF8080021680DF1090302AA01201960052103F0A8FF34
:20610C0016E00120694604F01BFD9DF8000021460DF10102144601F11C0388762168196039
:20612C0006E021460020203104F00AFD03F032FA00901FBD442400202DE9FC4108AF3888BD
:20614C001D4690460E46002818BF0B2033D10846694605F0A3FC012804D100202880012000
:20616C00BDE8FC81BDF800004AF601410024401A16D0401E0BD0401E1CBF2C800A2419D120
:20618C0002202880F06800884146088012E005202880F068026841460A600079087109E0ED
:2061AC0006F006F80548083002782A80F1684046FFF77EFB2046BDE8FC81C046881F002093
:2061CC00F8B5001D84B214F0030002D0241A241DA4B206F0F6FC01461948102C4768016029
:2061EC00C8BF8768388800221646C30BDD0319D126B984420ADD3A46012617E01388C318A7
:20620C009BB29C42138011DC174618469FB1001B80B20428B4BF3C88385344F400443C8049
:20622C003F1D08E080F40040002680B2C71938880028DAD10027084607F006F83846F8BDF2
:20624C00841B0020B0B50446A768ADF1280D27BB0C20FFF7B5FF071C16D06846002124220C
:20626C00082307F0B7FB002306976A466168ADF810301448059304F051FA386038B906F06E
:20628C00D8FF384605F0FAF96FF0030018E0E06878602069B860A7600AE006F092FC0546DA
:2062AC00386806F043FA2069B860284606F0CCFF3868616807F0F1FC386806F0F1FF00203C
:2062CC000AB0B0BDB5D80000B0B514460F4607F063FB85B219480068007808B906F0A0FBCB
:2062EC0087B1384605F005FC40B114B14FF0FF3020700820FDF790FD002419E038687968EB
:20630C00BA6803E04FF480700122014604F0B0FB0B49012008600B4908684008FCD30A4826
:20632C0000684168022088470CB1002121700446284607F06AFC2046B0BDC04620E70000EB
:20634C00A802504208800240CC010010F8B51F4C0546207E012802D9401F1FD023E00128CF
:20636C0003D107F021F8061C0DD0207E617E00F065FD061C07D0207FA27E294607F029FA1E
:20638C00064607F0CDFA012E0DD0FF210020A27E824208DD2954401CC0B2F8E7E169A27E3E
:2063AC002846FFF785FAA67E241D28463246214606F019F8002700B1012727B12046294688
:2063CC003246FFF775FA3846F8BDC04644240020F8B50E46044607F077F90546304605F0AB
:2063EC00D9FA071C03D1284604F0E2FC26E0F87F10F0070F1BD113487968884202D079684F
:20640C002166786010A090E8060004F15807284687E8060004F0CCFC04F138004FF0FF3154
:20642C00FDF798FE04F1680696E80300F8BD284604F0BEFCF87F10F0070FFBD10220002175
:20644C00F8BDC046198D000002000000000000701CB51E4C401E02D0401E2BD01CBD07F0C9
:20646C0077FA40081AD36078FF281AD00120694606F03CF89DF8000038B900200422014674
:20648C0006F00CFE4FF0FF3100E0012104F10C00FFF786F89DF80000607007E0FF20641C1F
:2064AC0020700120FF21024606F0F8FD002003F03DFC1CBD0220694606F018F89DF800102B
:2064CC00A41C480000EBC10020801CBD5811002070B506F069FF002832D003F0D7F988B34F
:2064EC0001200C2100F0AAFC60B3184C0F20211D012208700E460A2005F0F4F9124800680B
:20650C0042F21071B1FBF0F000F0D0FC1020032204F10E0107F05DF906F10A0550B1287825
:20652C006B78AA788030208103F18000608102F18000A08101220B203146227105F0D2F9F8
:20654C0007F0EEF970BDC046BCE70000DC230020B0B517491C481D4A0F68C0691549C2F814
:20656C00080DD2F8083D99420ED06FB1124B1B6800240F2C2CBF1D1C0D68091D641C05602F
:20658C007F1E00F10400F4D10D48D2F80C7D0B4D0168202427F47F4000EB01202918C2F80A
:2065AC000C1D084B82F8224D1868C2F8140DB0BD98E7000010100000A8E700000000FA0575
:2065CC00ACE70000A0E700001024002000E000E070B50D461B4A1A4904462B4605F00AF88F
:2065EC002061284606F002FE40BB184801220021A568036822751448A161002D18D4A1687C
:20660C008A408069A168E26007F0EAF9206407F073F8EFF311850646202080F3118820463A
:20662C0006F0CCFD85F31188304605F0E5FC05E0E160C0182146206406F062FA002070BDAA
:20664C0045CB0000DFA3000098230020D0E70000F8B50E4605461446A969EA691F46204634
:20666C00FFF726F964602FB1EA6920463946082302F0B4FFE468D6B9E8686969AA68079B9C
:20668C0007F0EAF9071C08BF002020D007F0D8F969683960696849687960696849680F609C
:2066AC0069684F6007F030F807F1080605E06A6930460021083A00F0C9F82868B0F1FF3F78
:2066CC0018BF3060286908B1616831503046F8BD2DE9F043ADF13C0D07F00EF81A4C184D90
:2066EC00002680461C3C684600213C22082307F09BF954F8042F6868AF6806902B68089739
:20670C00694605920F480493002203F08BF9071C10D006F056FA8146384602F031FC48B1FA
:20672C00484606F091FD2D1D761CDCD0404605F063FC01E003F08AF80FB0BDE8F083C046A6
:20674C00D8DC000095D50000901B00201CB51D4C401E02D0401E28D01CBD07F0F9F880083B
:20676C001AD36078FF281AD00120694605F06EFE9DF8000038B900200422014606F0A6FC5B
:20678C004FF0FF3100E0012104F10C00FEF708FF9DF8000060701CBDFF20641C20700120F1
:2067AC00FF21024606F092FC1CBD0220694605F04DFE9DF80010A41C480000EBC1002080FE
:2067CC001CBDC046A40E00201CB5042006F080F8022818D0032816D016480068C0F381502C
:2067EC00032814BF41F288324FF47A721248144C016854342046B2FBF1F107F04EFA20462E
:20680C0006F04EFD1CBD03200C4C009000214FF040521C23204602F09DFD012000214FF49F
:20682C00007209230090204602F094FD022004F031FC1CBDB43F0050BCE7000000A00C4047
:20684C00641A0020002213460A46194671B510F0030F0BD0002A82BF00F8011BB2F101022C
:20686C0010F0030FF6D1002A08BF71BD11F0FF0141EA0121042A18D341EA0141082A0FD32C
:20688C000E46102A08D30C460D46B2F10F0312F00F0272C0103BFCD812F0080F18BF42C0D3
:2068AC0012F0040F18BF40F8041B12F0020F18BF20F8021B12F0010F18BF017071BD70472B
:2068CC000246184808B50068C0F3046006F065FF00EB2270401C162805DA10F10A0FB8BFE7
:2068EC006FF0090000E015200F49104B00F01F0040F4F85008801868800803D20C490020F7
:20690C00086001E042F040620A49D00E930E80F0010000F00100086083F0010000F001004D
:20692C00886008BDB81200506E6208400000094094042A4300002043FEB51C4D0C462D1F01
:20694C00E968064606F008FE40082CD330460821002205F077FF0746019727B32A4602F1FD
:20696C0020001021083206F0AAFD08254089ADF80250ADF8000022783A70218801980912B0
:20698C004170A17881706188231D0912C1701968051D30462960694606F006F918B16846FE
:2069AC001B2105F05DFF06F0B9FAFEBD2818002010B51C4C00202070FEF72CFF18B120781C
:2069CC0040F00100207000F0FBFD18B1207840F002002070FFF752F818B1207840F0080006
:2069EC00207002F00BFA18B1207840F00400207001F0D6F918B1207840F01000207003F0FB
:206A0C0035F918B1207840F02000207006F04EFD002808BF207803D0207840F040002070C8
:206A2C0010BDC0462C3500202DE9F04780461A481A4C00682418204607F033F90E464FF05B
:206A4C00FF374FF0000A814621E04D46284607F02CF98146A88A012819D1B8F1010F0ED122
:206A6C00E86886420BD12869002808BFA5F814A002D0E9684018E860A969E8698847A88A1E
:206A8C00012804D1E868801B874288BF071C4C45DBD13846BDE8F087B8E700008C25002087
:206AAC0038B5054601201A4C68712879B0B906F088F82178002904BF6FF00704051C15D0BD
:206ACC00491EC9B2217039B906F0BEFB606804F0D9FC0020687118E0054613E006F071F877
:206AEC0005462078FF2805D16FF00604284606F0ABFB0BE0401CC0B20128207002D160682A
:206B0C0004F0D7FC284606F09FFB0024204638BD1426002070B50646B079F5680B28A5F10B
:206B2C0008052CDA30790B2829DA06F04AF8154CB27991000C3401EBC20161184968E1B157
:206B4C0006F082FB30792870B0796870307AA870B179880000EBC1002018F16840680830E3
:206B6C0004F010FEB179880000EBC10024186068406800F0EFFD002070BD06F065FB6FF01F
:206B8C00020070BDF01B002038B519491A4C00204822C1F8F30F94F8E200C1F8FF2F20B36D
:206BAC00012817D0022807D003281ED151F8310C00F05EF80B2016E051F8315C2846FBF77B
:206BCC0055FA40F2FF50A84202D8801CA842F1D2082008E051F8310C00F070FF0548007812
:206BEC000028E7D0052084F8E400FBF7CFFC38BD39400C401EE70000641A00202DE9FC41B8
:206C0C001A4C4FF0050804F11400002604F11C052860102284F8188004F120076676314634
:206C2C0066610420A0763846FFF710FE102130463A4603F00DFAA07E8DF8000029680DF172
:206C4C0001006A4601600120414603F001FA207E8DF80000607E6A468DF8010002200146E0
:206C6C0003F0F6F905F0A4FABDE8FC814424002038B51A4CA0F5C060D4F8B810C4F8D400BD
:206C8C000029B8BF49420028B8BF4042814220DAB4F8BC00124D30214FF47F420823009008
:206CAC00284602F057FBB4F8C00004214FF4F80212230090284602F04DFBB4F8D00020211E
:206CCC004FF440620A230090284602F043FB012000E0002084F8D80038BDC046641A00205A
:206CEC0000A00C402DE9FF410E460546194C7188E08A81420CDCB188814209DBF088218B30
:206D0C00884205D13089618B884208BF18271DD0052003F0CBF87788B388ADF80270F288BF
:206D2C00ADF804303189ADF806208046ADF80810A08AADF80000684606F0A4FD071C05D159
:206D4C00A57304F1F000414603F008FC38460090BDE8FF81D40800202DE9FC4117460E4679
:206D6C0005464FF0020802F0BFF818BB04F05AFC00BB05F0FF04C4F58074B44288BF341CC0
:206D8C008DF800808DF80350280C8DF80100280A8DF8020006F03AFB6846042104F0F2F9BA
:206DAC00361B651920B93846214604F0EBF920B106F022FB0020BDE8FC8106F01DFBE7192E
:206DCC00002ED0D10120BDE8FC8170471A4898B5D0F8781203680F0F03F0FF03802B28BFCD
:206DEC00002302F093FA4FF0FF3478B1401E07D0401E012802D9801E19D01AE0BFB118E0CA
:206E0C00381C12D0801E14D1143311E03846401E0BD0801E07D0001F03D0401E09D11633D6
:206E2C0006E0152405E0142403E00A2401E00A335CB2204698BDC046A010005070B50D4694
:206E4C001549194C134A09680646241F04F11400B2FBF1F1FDF77EF9002808BF002017D00D
:206E6C000E4805700E4D20682978B1420CD02E7006F009FE05F03EFF2878012804BF09483E
:206E8C00206105F017F92060002100B10121084670BDC04620A10700BCE700002E3500207D
:206EAC002A350020FDE600005434002070B5021CADF1380D2ED0184904A86B4605F088F865
:206ECC002024EFF3118504A8039084F3118806F013FC064606F0AEFD029003F083FF039807
:206EEC0000F006FB684606F09CFE0298C0F818D085F31188304605F07FF8EFF3118384F33D
:206F0C001188039806F0C5FE0021039183F31188029881610EB070BD85CC0000F8B5174AEE
:206F2C00174B184C121D22F003019C4621605E1A2068256860606768A660002001E025F897
:206F4C00020BAB42FBD84FF6FC75B3102A4001EB830323F8040CACEB0202E82315403B8022
:206F6C00EC3DA1F8E850E83144F8081CFFF728F944F8040C606844F8080CF8BD2F350020DE
:206F8C0028420020901B002038B504461848174DC03002686B68C2F30351C2F303405B0804
:206FAC0013D22B681D0511EB257103D41029A8BF0F2100E000211B0410EB237303D4102B2F
:206FCC00A8BF0F2300E00023184640EA011002F47F4102F0FF03222C41EA004143EA0100DE
:206FEC0024BF02F08042104338BDC046AC3F0050B812005030B5401E4FF00004ADF12C0DEE
:20700C000AD0401E04D0401E20D1FBF7BFFA1DE001F06EF9044619E001A821462422082345
:20702C0006F0D8FC06940D4DADF8144009490794012201AB05F1780003F086FE064A234633
:20704C002C2105F19C00009303F088F920460BB030BDC04649790000956B0000641A0020CA
:20706C0038B5184D1549686903F0FCFFFF20A87000242C7068216C700120FFF7DFFED0B1C4
:20708C0029468020012208716B20091D04F02AFC06F046FC0C480A490068B1FBF0F0FFF7A5
:2070AC0005FF00F07DFE041C05D002F023FBFFF70FFA02F09BFE204638BDC04607000080DE
:2070CC00A0860100DC230020BCE7000038B50546880F26D302F062FF124806F0C1FB154837
:2070EC00801C0078012803D005F1380000F032FB0D4800240460022003F0CCFF1120FCF748
:20710C008BFE287C10B90E20FCF786FE0748084A04721178447221B11470C830042106F009
:20712C0041F838BDC143000000000460101400202835002010140020F0B50E4615461C46F2
:20714C000746ADF11C0D4FF6FF7103AA05F07AFB0246059212B300200090BDF80C000DF130
:20716C00120329460190FF2002903846A047041C0FD16889ADF81000700804D3384604A9B8
:20718C0005F012FD03E0384604A906F0D5FA041C05D004A81B2105F063FB00E0152420465D
:2071AC0007B0F0BDF8B506AF38881D4614460E46002818BF0B202AD10846694604F06EFCAC
:2071CC00012803D1002028800120F8BDBDF800004AF681210027401A12D0401E0AD0401E78
:2071EC001CBF2F800A2711D101202880F068007820700BE002202880F0680088208005E0A3
:20720C0012222A80F1682046FEF752FB3846F8BD2DE9FF41984607460C461346404605F0A9
:20722C00E5FF054613B906F01DFC0346002F12BF381C0F4800681A462146434606F05AFC40
:20724C00061C10D11DB9404605F0D0FF58B90A48006800900197074D0294298800223423F8
:20726C00404605F077FC30460090BDE8FF81C04600E8000034E80000E8E700002DE9F041C9
:20728C00054615F8017B90460E461CE0B8F1000F05F101050BD0FF2C09D8022015F8011B02
:2072AC00401E41EA0424F9D101E0042C02D315F8011B00E0394630462246FFF7C7FAA61985
:2072CC0001E006F8010B15F8010B8742F9D115F8014B002CE9D115F8010B2C7800022418D1
:2072EC00D4D1BDE8F08170470146184880B5983000688A0CC0F38367C0F38F2022D241F347
:20730C00072100290BD54A420021400805D17F0806BF0127381C4FF6FF70521EF5D100298A
:20732C0010DD4FF6FF72400040F00100824207D2780040F001070F2F92BF01200F27101CCE
:20734C00491EF0D140EA074080BDC046B8120050164880B507683FB315498B6803EA5300A6
:20736C00C00E21D2134A106880081DD2486880081AD21068096810F0050F4FEA114101F057
:20738C00F00101F5E0710AD1B9420DD2190F38BF40F00100D90E38BF40F0040003E0B942B4
:2073AC0002D920F00500106080BDC04628500940AC3F0050000009401FB5044602F076FB58
:2073CC0050B3164810300078022804D0032818BF4FF4F02001D14FF4F22010216A4601F03C
:2073EC0004FB03F0AFFDBDF806006080BDF80400FF2808BF002002A920800968201D016027
:20740C00FF219DF80C30E1729DF80E206372BDF80C00A2720012207200901FBDF425002066
:20742C0000B540F21630ADF1140D6946FBF742FD40F213300DF10201FBF73CFD4FF44670DA
:20744C0001A9FBF737FD9DF800008DF80600BDF8000000128DF807009DF802008DF80800B9
:20746C00BDF8020000128DF809009DF804008DF80A00BDF8040000128DF80B000DF1060022
:20748C0004F08AFB05B000BDF8B502F00FFB60B3164E35680024C4F30C00002700B9012749
:2074AC0048B928460F21012203F0FCFA284600220A2103F0F7FA204600F030FB3068054612
:2074CC0047B10A21012203F0EDFA284600220F2103F0E8FA04F58054E00CDCD028460A21ED
:2074EC00002203F0DFFA03F02DFDF8BD2C050020B0B5184C0546208C002701281BD1A08B48
:20750C00C8B9A068012106F0BCFB2168421A23686169C91A91420ED30127A968AA68AF82BA
:20752C004118E9606169091A914211D9E968104605F0BCFAB0BD5FB905F0E8F8A78BA96804
:20754C00012F0844E8604FF00100A88208BFE083B0BDC0468C250020F8B570BB174C606880
:20756C0048B3002080F31188202080F31188606863692669F825B0FA80F0A5EBC0001B18AF
:20758C0005E06369B0FA80F0A5EBC0001B189E4211D2184606F02AFA0746184606F04AF972
:2075AC0018B1B969606888436060384600F07CFF60680028E5D100202080F8BDF81900204C
:2075CC001CB500204321FFF739FCFE200222694606F0FFF810B3BDF80000BDF8001045F2CD
:2075EC0049440006000C40EA21208442ADF8000014D1FF206946022206F0EBF870B1BDF884
:20760C000000BDF800100006000C40EA2120B0F5805FADF8000008BF012400D0002406F01D
:20762C007FF920461CBDFEE770B544688668D4F8A40005F0CAF813480025C5600560124858
:20764C00361D05603068FCF7E7FB04F1100006F010FB04F12C0006F02CFB04F1600006F06A
:20766C0026FB207818B904F17C0006F020FB04F1C80004F08BFF06F08FF984F8DC5006F09B
:20768C00C4FA70BD04280040100405422DE9F041071C0E4604D0144C2068F5B2A84202D847
:2076AC000220BDE8F08104F124004FF0FF318046FCF750FD04EB85049434206860B9796836
:2076CC000120A84027603246084308497860384604F0F2F8002400E00124404600F03AF8F5
:2076EC002046BDE8F081C04688300020007FC7672DE9F8438146EFF31188202080F3118898
:20770C000125114E114CF561114F6560F86A016A14208847D9F81000810C14BF000C0420BF
:20772C00A06138680268232100209047C6F88052206820F4C02040F480302060356088F377
:20774C001188BDE8F883C046000024430020094084010010034670B52020EFF3118480F361
:20776C001188144800681D18181806F063F8B0B905F0C2FF0646284606F038F9054601207E
:20778C002874E86808B104F0D1FFA868214604F06FF984F31188304604F02EFC70BD187A3E
:2077AC0040083ABF5889401C0120588184F3118870BDC046C8E70000F8B506AF38881D46CE
:2077CC0014460E46002818BF0B2025D10846694604F064F9012803D1002028800120F8BDE6
:2077EC00BDF800004AF641220021801A0CD0401E04D0801E1CBF29800A210CD10120288069
:20780C00F0680078207006E006202880F068026822608088A0800846F8BD70477FB5466840
:20782C0019B98068057D447D01E00D784C78FF2D1DD0FF2C1BD0104840EA05010091FE23AC
:20784C00029320436946019006F19800FEF77EF8C6F8A40058B129460D2204F017F8D6F810
:20786C00A40021460E2204F011F8002001E04FF0FF3000907FBDC04600200084D0B5044610
:20788C0006F0D8F801F07CFB071C08BF6FF002041FD005F096F90146A2880F480023603071
:2078AC0030F80C6F5EB902804760A26882602373786820610024084605F0C6FC09E096420C
:2078CC0008BF6FF00204F6D05B1C0B2BE8D301F0BDFF2046D0BDC046901B00202DE9FC417E
:2078EC00154E0D4606F114042168804605F034FE093C4008F5721DD340460121002204F09F
:20790C00A1FF07460197AFB1304610212246203005F0D5FD40890126ADF800006946ADF867
