:20000000483F0020698F000001CA011001CA011001CA011001CA011001CA011001CA011019
:1C00200001CA011001CA011001CA011001CA011001CA011001CA01103FCA011082
:20003C003EB501780125913902D01F3925D027E040780E2824D12048204C01682088F8B1B1
:20005C001F48006801421BD01E480068014204D11D4800680088014212D01E4840F29353A9
:20007C00046800930BA2019200230293184B1A88164B186803A3A04702E001F035FF0546A8
:20009C0028463EBD70726F6A6563745F7A65726F2E6300C048434920436F6D6D616E6420A1
:2000BC00436F6D706C657465204576656E742072656365697665640060D60000E6D5000071
:2000DC00400500003C050000440500007CD600008405000074D6000001490978017070471D
:0400FC00EC2C0020C8
:200100003C000000000000000000000034010000000000000000000001000000000000006D
:1C01200000000000000000000000000001000000000000000800000000000000BA
:20013C00340000000000000000000000680100000000000000000000010000000000000005
:14015C00010000000000000000000000080000000000000086
:2001700030000000000000000000000098010000040000000000000001000000FFFFFFFFA5
:10019000FF00000001000000080000000000000057
:2001A0002C0000000000000000000000C4010000040000000000000001000000FFFFFFFF4D
:0C01C000FFFFFFFF08000000000000002F
:2001CC0034050000E401000099A1011095A70110A5C2011009B2011045B80110000000000B
:0801EC000000000031000000DA
:2001F400280000000000000000000000140200000000000000000000FFFFFFFF00000000B1
:080214000800000000000000DA
:20021C00300500003002000069C201106DC101101FC2011095BA011000000000000000008E
:04023C002F0000008F
:20024000300500005402000075C20110A9B601109DBF011049B601100000000000000000DE
:04026000300000006A
:200264002400000000000000000000008002000000000000000000000000000008000000CC
:040284000000000076
:20028800240000000000000000000000A40200000000000000000000000000000800000084
:0402A8000000000052
:2002AC00240000000000000000000000C8020000000000000100000000000000080000003B
:0402CC00000000002E
:2002D0000000000048290020040000000000000000000000200000007001000030000000B8
:2002F0001C020000742900200400000000000000000000000C0000003004000018000000B7
:20031000400200008029002004000000000000000000000024000000480400001800000036
:20033000000000008829002004000000000000000000000010000000A00100002C000000FB
:20035000CC0100009029002004000000000000000000000020000000640200002400000039
:20037000FFFFFFFFB02900200400000000000000000000002800000088020000240000009E
:20039000FFFFFFFFE0290020040000000000000000000000580000003C010000340000005B
:2003B000FFFFFFFFE829002004000000000000000000000010000000600400001800000070
:2003D000FFFFFFFFF02900200400000000000000000000001C000000AC02000024000000E6
:2003F000FFFFFFFFF829002004000000000000000000000038000000F40100002800000057
:20041000FFFFFFFF002A002004000000000000000000000054000000000100003C000000F1
:1804300018000000000000000000000040040000080000000000000050
:1804480018000000000000000000000058040000080000000000000020
:18046000180000000000000000000000700400000800000000000000F0
:08047800020000003CD6000068
:040480000BF008B9BC
:040484000100000073
:0404880000008C0FD5
:04048C000000BC0FA1
:040490003200000036
:040494000100000063
:0404980050290020C7
:04049C00000200005A
:0404A0000000000058
:0404A40001CA011078
:0404A8000000000050
:0404AC00000000004C
:0404B0000800000040
:0404B40000007612BC
:0404B800242D0020CF
:0404BC00010000003B
:0404C0009829002057
:0404C400080000002C
:0404C8000000000030
:0404CC00000000002C
:0404D0000000000028
:0404D4000000000024
:0404D8000000000020
:0404DC00010000001B
:0404E0008C2D00203F
:0404E400060000000E
:0404E800010000000F
:0404EC00502C002070
:0404F0000000000008
:0404F4000000000004
:0404F80000020000FE
:0404FC0000000000FC
:02050000704742
:020502002900CE
:020504000100F4
:020506002400CF
:020508002F00C2
:02050A003000BF
:02050C003100BC
:02050E000100EA
:0105100001E9
:080514000300000028D60000DE
:08051C000000000000000000D7
:040524000000930D33
:040528000000AD0D15
:04052C0087C401106F
:04053000380500008A
:040534003805000086
:0405380000000000BF
:04053C0090610000CA
:0405400090610000C6
:0405440000000000B3
:0405480098290020CE
:04054C001DB20000DC
:040550002000000087
:0405540080D500004E
:04055800DCD30000F0
:04055C000DC30110BA
:0405600087A400006C
:040564004BA70000A1
:0405680099C801101D
:04056C009BC8011017
:040570000000000087
:04057400B0B800001B
:0405780054D2000059
:04057C006CD200003D
:040580003CD2000069
:020584000280F3
:020586000380F0
:02058800C0179A
:02058A0001006E
:01058C00016D
:040590000000000067
:040594000000000063
:04059800000000005F
:04059C00000000005B
:0405A00015B700008B
:0405A4005D9700005F
:0405A80041A6000068
:0405AC00499F000063
:0405B000A79C000004
:0405B400799F00002B
:0405B800A97E000018
:0405BC006BB400001C
:0405C0009D81000019
:0405C40011C8011049
:0405C80021C8011035
:0405CC000800000023
:0405D0002400000003
:0405D400180000000B
:0405D80028000000F7
:0405DC0020000000FB
:0405E0003C000000DB
:0405E4000C00000007
:0405E80034000000DB
:2005EC002DE9F04FADF1440D09F084FF0820ADF80C001020ADF80E00BC48DFF80CB3016870
:20060C00BB480FF2103805881091DDB1B9480068014217D0B8480068014204D1B74800684C
:20062C00008801420ED0584604684FF43377BDA600230097B34F0196B14E02933A8830686A
:20064C004346A047B14C002704F154063946E76230460BF023F904F16C0004F18401A66174
:20066C0006F0B8F8DFF8A8926062F8B948460168D5B1A0480068014216D09F4800680142BC
:20068C0004D19E480068008801420DD0584640F2DD2306680093B3A201929A4B02971A88AA
:2006AC00974B18684346B0470BF0F4F804F1600004F1900106F08EF82062F8B948460168E4
:2006CC00D5B18C480068014216D08B480068014204D18A480068008801420DD0584640F21E
:2006EC00E32306680093A8A20192864B02971A88834B18684346B0470BF0CCF804F1780004
:20070C0004F19C0106F066F8BC49A0620AF004FF206ABB490AF000FFF8B148460168D5B136
:20072C0074480068014216D073480068014204D172480068008801420DD058464FF43B73CC
:20074C000668009398A201926E4B02971A886C4B18684346B0470BF09DF807A83946242210
:20076C0008230BF093F8A74800684FF47A713A4607ABB1FBF0F081B2480000EBC100A24967
:20078C000C9004F5C47082460BF07CF807F054FB9E480AF02FF80126ADF8127040F205304B
:2007AC0004AA8DF81060314601F0E8FD40F2063002210DF1120201F0E1FDE21C4FF44270DE
:2007CC00314601F0DBFD04F1ED0240F20730172101F0D4FDDDF840900DB34648006819EA28
:2007EC00000F1CD04448006819EA000F05D143480068008819EA000F11D008F0DBFA014694
:20080C0040F2273358460568009372A201923D4B02913B491A88086843464946A84706201D
:20082C00282109F003F80720282108F0FFFF0820282108F0FBFF0920282108F0F7FF3046D0
:20084C001E2108F0F3FF40F21130022103AA01F095FD40F2123002210DF10E0201F08EFD7C
:20086C00059735468DF81A704FF481608DF8185004218DF8195005AA8DF81B5008F0BCFFD0
:20088C004FF48060314606AA08F0B6FF40F2024031460DF1190208F0AFFF40F203403146BF
:2008AC000DF11A0208F0A8FF40F2064031460DF11B0208F0A1FF0AF0CCFEFFF7DBFD0AF045
:2008CC0041FC0AF0F1FD09F029FE0AF047F909F023FC0AF09FFE0AF0A1FE50460AF0CEFFE8
:2008EC00E763A57111B0BDE8F08FC04660D60000E6D50000400500003C05000044050000E1
:20090C007CD600008405000074D60000080200205CD6000070726F6A6563745F7A65726F34
:20092C002E6300C0496E697469616C697A696E67207468652075736572207461736B2C2010
:20094C0068617264776172652C20424C4520737461636B20616E6420736572766963657311
:20096C002E00C0464572726F7220696E697469616C697A696E6720626F617264204C4544E5
:20098C002070696E7300C0464572726F7220696E697469616C697A696E6720627574746FE8
:2009AC006E2070696E7300C04572726F72207265676973746572696E6720627574746F6E9A
:2009CC002063616C6C6261636B2066756E6374696F6E00C04E616D6520696E206164766540
:2009EC007274446174612061727261793A201B5B33336D25731B5B306D00C0461B7300006A
:200A0C00355B000050D60000F9B50000A586925B2DE9FE4FB84C0F460646F80B80F047810B
:200A2C00B80880F0D480B54DDFF8D892DFF8E0B2DFF8E882DFF8F4A22C68B80F67D2B04840
:200A4C000678002E47D1380947D3AF4801264946067000240C70204605F0C5FAAB480AF0A1
:200A6C0005FDAC49224658460AF03BFEAA48017801291CD141460B78CBB9A94E306880B16A
:200A8C000AF06AFB2B68A8493668A64D0A68C01A000B82182860B2EBC61F28BF0C6007D2AF
:200AAC000A60A4484FF000510AF0FCFA2CE00670504640F609010180417B01F0F00141F0AC
:200ACC00010141734480017B01F0F00101734460974E306018E0390914D2B80BC0F004818D
:200AEC009D48001D0AF008FE061C08D0706830B17468F068B6F91C1098A20CCAA04727F414
:200B0C000057F1E00021017027F00807ECE0ECB104200AF05BF8C8B10AF01EFB864A296822
:200B2C001060814226BF401A401E401A000BF060F06800F58D70F060F16840F6C41088425D
:200B4C0003D340F2EE228A4200D9F0600024D6F818C02C60BCF1000F10D050460D3000783F
:200B6C0010F00F0F0AD1708C40F60901814205D17CA20CCA30466FF48071E0476F49584660
:200B8C0022460AF0AEFD4546287850B10220ADF80000684609F0E4FE2C70BDF808006849B6
:200BAC00088049460120674A674B087010781C70401C107019200AF0A9FB756925B16BA28E
:200BCC000CCA30462146A84727F000578CE004F10C0A50460AF090FD061C5FD008F0F0FD2F
:200BEC007368B2690025B561E3B1F37F42F002024FF00009904603F007035B1E07D05B1E98
:200C0C0003D09B1E06D15BA002E05CA000E05DA090E800037268F068B6F91C104B469446BC
:200C2C004246E0470AF026FE8046B4F91200401C6FF31F306082E0681F30017801F07F01E6
:200C4C00017050460AF0B2F940460AF00FFEF068B0F99410B4F9122091421FD13B49097803
:200C6C0001291BD090F896409CB904688CB1384909680968B1F1FF3F10D036490968703044
:200C8C00B4FBF1F10AF0EEFDF06870300AF0F6FD04E080F89650284607F09CF850460AF022
:200CAC002BFD27F0020708B147F002071CE00AF0E1FD0146204608300AF01EFD0646B469B0
:200CCC0008460AF0D3FDA0080CD25EB17068B169A143B16130B17568F068B6F91C1000235F
:200CEC002246A84727F480471FB1124839460AF0D9F9BDE8FE8FC046A03C0020E83C0020C2
:200D0C000B3D0020073D0020053D0020DD750000543C002095A70000093D0020043D002094
:200D2C00E43C0020F03C0020E03C0020B43C002000100440503B0020EC3C0020F54D000046
:200D4C00183C00200D3D0020063D00205C2E0020F43C002050D60000A03C0020000000002A
:200D6C00200000000000000000000002000000000000000400000000000000100000000031
:200D8C000000004000000000000000202DE9F04F09AFADF13C0D00900292388801911E4619
:200DAC00ADF83400101C08BF002000F0828100274FF0010B00F10109B846DA466BE1252923
:200DCC0040F062811078521C02922D2818BFADF8228004D11078ADF822B0521C02923028C9
:200DEC001CBF4246434605D1114608785B465A46491C02912A284FF0FF3516D128460B935D
:200E0C00346809900299CDF81C80E01C4B1C20F00300001D306050F8044C08780293002C99
:200E2C0044BFADF822A0644212E0444609E0610001EBC40140180299A0F130040878491C82
:200E4C000291302801DB3A28F1DB0B93294609912E282BD10299087843462A2801F10101AE
:200E6C00029111D1099330680794C01C20F00300001D306050F8045C002D48BF454608789F
:200E8C000995491C029112E045460AE0690001EBC50140180299A0F1300508782B46491C1F
:200EAC000291302801DB3A28F0DB099307940AB122460B926C2804D04C2818BFADF8208043
:200ECC0005D102990878ADF820A0491C029103A9CDF8288007AB0E9164280C9300F08B8028
:200EEC00692800F08880BDF834C0752872D078286ED06F286AD0702850D063283DD073283B
:200F0C001ED0019802990128A1F10101029115D96B490C68B5F1FF3F03D0A84288BF6D1CCC
:200F2C0000D8019D0995684602A9324607ABA047C71902990A9801F1010974E040462AE02A
:200F4C0030680299C01C20F00300001D306050F8040CBCF1000F01F10109014608B956A0A8
:200F6C0001460E910AF020F90A90B5F1FF3F5BD0A842C4BF281C0A9056E03068C01C20F0BE
:200F8C000300001D306010F8040C5D468DF80C0002990A95584601F1010945E0082035688B
:200FAC000B90E81C20F00300001D306050F8041C0822102307A806F061FC401E0E904021A2
:200FCC00017002990E9801F1010929E0082302E0102300E00A230299306801F10109C01CF6
:200FEC0020F00300001D306050F8041CAA42BCBF2A1C0B9210E00299306801F10109C01C78
:20100C0020F00300001D306050F8041CAA42BCBF2A1C0B926FF0090307A806F02FFC0E9079
:20102C000C9D281A0A90079CBDF82250241A65B906E06846202101AA09F0F6F9079C7F1C53
:20104C00641E0794F5D50A9800E007940546401E0A9075B9BDF82200E8B10798401E07900B
:20106C0019D46846202101AA09F0DEF907987F1CF4E70E98411C0E91017801AA684609F08B
:20108C00D3F90A987F1CE1E7684601AA09F0CCF97F1C09F101094A46029812F8011C401C10
:2010AC00002902907FF48BAE009808B14146017038460FB0BDE8F08F286E756C6C2900C047
:2010CC008CD600002DE9F04F0546BD4CBB48DFF8FCB2DFF8FCA2DFF80093DFF804E30F467F
:2010EC00ADF1340D0FF2FC1C0FF2BC182E1C089221690288E06807923CD0761E20D0B148B5
:20110C000168171C00F0CD80AF480068014200F0C88058460068014205D15046006800886B
:20112C00014200F0BE80AD484FF4A57763A6046800974B460196A74F02951A883868AEE04D
:20114C00A61D7046A31C0B91002A0A96056809933AD09D480068054236D0584600680542EB
:20116C0004D150460068008805422DD04FF4A37363A217E00B90261D7046631C0A9605684F
:20118C0009930AB39048006805421DD058460068054204D1504600680088054214D040F271
:2011AC003B1359A28F4806680093CDF804C0029203970021049105914B46069185491A8867
:2011CC00086843462946B047022F44DA002F42D0099808993A4605F0C9F9079E0A982946E5
:2011EC00002E07802BD078480068014227D058460068014204D150460068008801421ED0FC
:20120C004846784B0288734E0B981D6887783068002F08BF3EA703D0012F0CBF43A749A7E4
:20122C004FF4AD734CA600930B9B01961E880296039700270497059743460697A84720789A
:20124C00694F099904F11402072300900B98019705F028FA25E05C4D5A4C07982A68216803
:20126C00061C1ED011421CD058460068014204D1504600680088014213D05A4840F26316FC
:20128C00046800963FA50195029701230393002204934E4605924F4D069232882868434688
:2012AC00A0470DB0BDE8F08F627574746F6E5F736572766963652E6300C046C0536574509B
:2012CC006172616D657465723A20506172616D6574657220232564206E6F742076616C69AD
:2012EC00642E00C0536574506172616D65746572203A202573206C656E3A20256400C04669
:20130C00425554544F4E3100425554544F4E30001B5B33336D4E6F74692F696E642064696E
:20132C007361626C65641B5B306D00C04E6F74696669636174696F6E20656E61626C656491
:20134C0000C046C0496E6469636174696F6E20656E61626C656400C0547279696E672074FD
:20136C006F2073656E64206E6F74692F696E643A20636F6E6E48616E646C652025782C2087
:20138C00257300C04C656E677468206F75747369646520626F756E64733A204C656E3A20EC
:2013AC002564204D696E4C656E3A202564204D61784C656E3A2025642E00C046E6D500001B
:2013CC00C02A00205CD60000400500003C050000440500007CD600008405000074D60000D1
:2013EC0060D6000078D60000492100002DE9F04F09AFADF1440D08900B930A9209913879DA
:20140C003F880C90084607F0A9FAB249DFF8CCA2DFF8CCB2DFF8CC927B4B0E8800240FF22A
:20142C00EC180546FF2084A2002D0E90B149B2480D953DD06D1E1FD0A7480168D6B15046AF
:20144C000068014216D058460068014204D148460068008801420DD0A54840F2ED176FA6FB
:20146C0005680097A14B01969F4F02941A8838684346A8470A20C4E000F1040C002E079007
:20148C000968CDF83CC03CD050460068014238D058460068014204D14846006800880142DA
:2014AC002FD018464FF4F4730568009373A319E000F1020C07900968CDF83CC00EB35046EB
:2014CC00006801421DD058460068014204D1484600680088014214D018464FF4ED73056837
:2014EC00009368A301920293089803900B9A049205970C987D4B06901A887B4B186843469D
:20150C00A847002F4BD10B9D60A2ED19022D27DAC5B90C98182818BF122813D150466E4901
:20152C0000680968002E38D0014236D058460068014204D148460068008801422DD040F239
:20154C0001261FE009980A990B9AC068381805F00DF8002D42D00D980E900F9E35803DE0FD
:20156C005D480168CEB150460068014215D058460068014204D148460068008801420CD0F1
:20158C004FF4FC765A4805680096584B0192564E02941A8830684346A8470D241EE04E48FE
:2015AC000168D6B150460068014216D058460068014204D148460068008801420DD04C48B8
:2015CC0040F2F3163AA305680096484E0193464B0294328818684346A84707240E98FF28E9
:2015EC000ED00798806858B106684EB10B980D9A0A9B3F18B8B20090089841F21011B047D9
:20160C00204611B0BDE8F08F78D600006C65645F736572766963652E6300C046417474726E
:20162C00696275746520776173206E6F7420666F756E642E00C046C0577269746541747445
:20164C00724342203A20257320636F6E6E48616E646C6528256429206C656E282564292028
:20166C006F666673657428256429206D6574686F64283078253032782900C0464C45443158
:20168C0000C046C04C45443000C046C0496E76616C69642076616C7565206C656E67746807
:2016AC00207761732072656365697665642E00C0416E20696E76616C6964206F6666736575
:2016CC007420776173207265717565737465642E00C046C0E6D500005CD600004005000007
:2016EC003C050000440500007CD600008405000074D6000060D60000482B00202DE9FE430F
:20170C000646DFF8DC82DFF8DC92B2780024101C00F03581801E00F00D81401E012840F202
:20172C00E180801E00F0A880401E7BD0401E59D0083800F04681801E40F046814546B08807
:20174C0095F83E70ADF80000052F45D001208DF80A0005F1CC0009F0D1FF95F83E00012825
:20176C001BD0042819D0032806D0022804D0F28831897089B38907E0B5F84020B5F8421002
:20178C00B5F84400B5F84630ADF80220ADF80410ADF80600ADF8083020E0B5F84000F188BB
:2017AC008842D8BF081CADF802003189B5F842008842D8BF081CADF804007189B5F844002F
:2017CC008842D8BF081CADF80600B5F84630B0898342D8BF031CDDE78DF80A40684609F0BC
:2017EC005DFEF1E0454605F1F00009F087FF7078002840F0E980F088E882308928837089D9
:20180C00688305F1CC0009F071FD002840F0DC80AB6A002B00F0D8801B68E88A298B6A8BCE
:20182C009847D1E0B08808F054FF45462146062205F1380005F032FDEC822C836C83B079E8
:20184C00687305F1CC0009F059FF05F1F00009F055FF01244FF6FF706F79A8824FB9B0793F
:20186C00082814BF04200520A870204609F0DAFBAAE00320A870A7E0707858BB311D0A68BD
:20188C00454605F138000260898881800627AF707089A882F089E882308A2883708A688373
:2018AC00F0784446287394F83E00012818BF02280AD11F2007F040FD4FF47A71024604F1E2
:2018CC00CC00514307F0D4FEF0787289311D07F05FFE7BE0707831286FD14D4604202870A3
:2018EC00204623E07778002F67D14546698AA878032A13D02A796F7921B9012A14BF6C712F
:20190C002C7106E0174304D005F1A80007F0B0FEA878072814BF0420062007E0062807D06F
:20192C002879002808BF0324DAD00220A8704DE00724D5E77078751C00283ED14246F77845
:20194C009078D1799FB9022816D0072814D0062802D1517901290FD103280DD002F1A80036
:20196C0009F0C4FC40B9012009F05CFB04E08732204606F093FE28702878F0B924E07078E1
:20198C00D8B945460220102105F1480208F0A0F80320102105F1580208F09AF8F61C05F1C6
:2019AC002C00B7883168878005F1680201600120A979A87006F072FE40B108204D4628704A
:2019CC0004E0B08809F05EFD012C06D14546686A18B1016809B1A8788847BDE8FE83C04623
:2019EC00E4220020E62200202DE9F04FA349A44EA54DA64CDFF898B2DFF898A2DFF8989243
:201A0C000F88401E0FF2B418ADF1240D00F09080401E75D0801E61D0401E4DD0401E2ED0E0
:201A2C00401E17D0401E40F0C6803168002F00F0C28094480068014200F0BD802868014200
:201A4C0004D120680088014200F0B58040F27C405EA766E03168002F00F0AD8089480068D6
:201A6C00014200F0A8802868014204D120680088014200F0A0804FF48E6056A751E040F263
:201A8C00153004A902F078FF04A806F07FFE3168002F00F090807B4A1268114200F08B806B
:201AAC002A68114204D122681288114200F0838040F26B474EA673E03168002F7BD07148FF
:201ACC000068014277D02868014203D120680088014270D04FF48F604FA722E03168002FDC
:201AEC0069D068480068014265D02868014203D12068008801425ED040F274404CA710E020
:201B0C003168002F57D05F480068014253D02868014203D12068008801424CD040F261406C
:201B2C0048A74A46146800900197002602963CE04FF4417006A902F01FFF00218DF814101F
:201B4C009DF819308DF813109DF81A208DF811309DF818008DF812209DF81B108DF81000A5
:201B6C009DF81D308DF815109DF81C208DF8173004A88DF8162009F059FB06A806F006FED4
:201B8C003168C7B13F4A1268114214D02A68114203D12268128811420DD040F25C472CA63A
:201BAC004A4614680097019602905B46554618682A884346A04709B0BDE8F08F70726F6AD7
:201BCC006563745F7A65726F2E6300C04572726F7200C046436F6E6E656374656420616EBB
:201BEC0064206164766572746973696E6700C046436F6E6E65637465642E20506565722022
:201C0C00616464726573733A201B5B33326D25731B5B306D00C046C0436F6E6E656374698C
:201C2C006F6E2074696D6564206F757400C046C0446973636F6E6E6563746564202F2049BF
:201C4C00646C65004164766572746973696E670047415020697320737461727465642E208A
:201C6C004F757220616464726573733A201B5B33326D25731B5B306D00C046C0E6D500004E
:201C8C0060D60000400500003C050000440500007CD600008405000074D600002DE9FC41BB
:201CAC00944CDFF84C82A83C2078A77901284CD16078C8BBE0680101A1EB40016218B2F81B
:201CCC004425611801F24451A4F8A8204F88A4F8AA708E88A4F8AC60CD88A4F8AE500B895C
:201CEC00A4F8B0304F898A89A4F8B270461CA4F8B420B6F5C87FE66040F0F7800025257048
:201D0C0004F5C474204608F0AFFE2046294609F0A9FD404600684FF47A71B1FBF0F080B22D
:201D2C00410001EBC001DAE06846FEF7DDF99DF8000028B908F064FE07F062FCBDE8FC812F
:201D4C000020E0606070BDE8FC8197B1682084F81401661DC4F804610021A1602170012547
:201D6C00C4F8085104F14403C4F80C310622C4F81021661D4320012F307002D009F06EFD0C
:201D8C0006E009F06BFD606309F068FD0021A171A063606904F582710F4609F00EFC80B953
:201DAC00A16800250801A0EB41002118A1F84455A2681101A1EB42016118A1F846552946A2
:201DCC001FE0A16894F8442094F845500801A0EB4100211845EA0220A1F84405A16894F808
:201DEC00473094F846200801A0EB4100211843EA0220A1F8460594F8480094F8491041EA49
:201E0C000021A2681001A0EB42002018A0F848153B2535706069394609F0CFFB04F24455E1
:201E2C0068B9A26800201101A1EB42016918C880A3681901A1EB4301691808811DE094F819
:201E4C00441094F84500A26840EA01201101A1EB42016918C880A16894F8463094F8477004
:201E6C000801A0EB4100291847EA0320088194F8481094F8490040EA0120A3681901A1EBAE
:201E8C00430169184881A06B616B1701401AA7EB4201521C6D18B2F5C87FA88107D0A260A7
:201EAC00A07901281CBFA06B6063BDE8FC81012020700025A560607004F5C474204608F0CF
:201ECC00D3FD2046294609F0CDFC404600684FF47A71B1FBF0F080B2810001EB00112046D1
:201EEC0009F016FC204609F0C9FCBDE8FC81C04650D60000B00200202DE9FF470546844814
:201F0C00DFF828C2DFF81092DFF81082DFF810E2DFF810A2844E0788687846A3162856D032
:201F2C002A797E2A38D07B487F2A1CD00168002F6FD04846006801426BD04046006801426E
:201F4C0004D1704600680088014262D0604640F2D357046800973BA701970292574632881B
:201F6C003868A04755E00168002F52D04846006801424ED040460068014204D17046006864
:201F8C000088014245D0604640F2CE570468009736A20192288918E065480168002F38D0F4
:201FAC0048460068014234D040460068014204D170460068008801422BD0604640F2C957F6
:201FCC000468009730A20192287A0290C6E75A480168CFB148460068014215D04046006815
:201FEC00014204D170460068008801420CD060464FF4B6670468009732A20192287957464A
:20200C00029032883868A0476888082108F09AF830B1297905F1080008F0D8FE012005E0E9
:20202C00012002F0ADF84348056000200090BDE8FF87C04670726F6A6563745F7A65726FF5
:20204C002E6300C052656365766965642047415454204D6573736167652E204F70636F6484
:20206C00653A2030782530327800C0464D54552053697A65206368616E67653A20256420AE
:20208C00627974657300C046466C6F7720636F6E74726F6C2076696F6C617465642E204F39
:2020AC0070636F6465206F66206F6666656E64696E6720415454206D73673A20307825307D
:2020CC00327800C04F7574676F696E67205246204649464F2066756C6C2E2052652D736367
:2020EC00686564756C65207472616E736D697373696F6E206F66206D7367207769746820BB
:20210C006F70636F64652030782530327800C046E6D5000060D60000400500003C050000F5
:20212C00440500007CD600008405000074D600005CD600002402002064D600002DE9F04F1E
:20214C00834609AF0846ADF1340D099397F808A00892B98807903F880A9106F067FB06467A
:20216C007B48DFF8F8910588824ADFF80CE279480FF23C180FF2681C002E4FF00004C188BD
:20218C0080880B9538D0761E1FD073480168D5B148460068014216D071480068014204D1FE
:2021AC0070480068008801420DD071484FF4EA7744A6056800976D4B01966B4F02941A88BF
:2021CC0038684346A8470A206FE00D4610460B9E0168002E37D048460068014233D060488E
:2021EC000068014204D15F480068008801422AD040F2CF1349A214E0054610460B9E0168D9
:20220C000EB34846006801421DD055480068014204D1544800680088014214D04FF4E27363
:20222C0040A2704606680093CDF804C00292CDF80CB00497CDF814A04C4B06941A884A4BDF
:20224C0018684346B047BD420EDB0A98E91B8142D4BF8AB2021C099802800798C0683918F9
:20226C00089804F083F91FE03B480B9F0168D7B148460068014216D039480068014204D105
:20228C0038480068008801420DD039484FF4ED7726A605680097354B0196334F02941A88D9
:2022AC0038684346A847072420460DB0BDE8F08F627574746F6E5F736572766963652E630B
:2022CC0000C046C041747472696275746520776173206E6F7420666F756E642E00C046C06C
:2022EC0052656164417474724342203A20257320636F6E6E48616E646C653A202564206F98
:20230C0066667365743A202564206D6574686F643A2030782530327800C046C0425554540F
:20232C004F4E3100425554544F4E3000416E20696E76616C6964206F666673657420776162
:20234C0073207265717565737465642E00C046C0E6D50000C02A00205CD6000040050000DC
:20236C003C050000440500007CD600008405000074D6000060D6000078D60000F8B5A0F2DF
:20238C00013517460E46022D40F20C818649874C874A884B2D1F0F2D04D9143D4AD0AD1E7B
:2023AC001CD011E0DFE815F0BA00B500EB00DB00AE00A700FE009F009800100010009000F9
:2023CC0086007A006F006200282880F2EB80022E40F0E880398807F029FAF8BD012E40F03C
:2023EC00E1800A469078012800F0DC80D1783878D07081B9002800F0D5801078012800F022
:20240C00A080042800F09D80062800F09A80052800F09780F8BD3878002840F0C380107863
:20242C00032800F09980072800F09680052800F09380F8BD012E40F0B5803878012840F0A5
:20244C00B180254605F1F00008F050FF002840F0A98004F13E01002005F0F4F8002840F099
:20246C00A18004F1CC0009F049F9F8BD022E40F0998038880A28C0F29580B0F5486F00F3FD
:20248C009180114614E0022E40F08C803888B0F5FA7F80F2878011460880F8BD022E40F01D
:2024AC008180388806287DDBB0F5486F7ADC1946891CF1E7022E75D13888062872DBB0F5E5
:2024CC00486F6FDC1946E7E7012E6BD13878062868DA1146891F0CE0012E63D1387804280C
:2024EC0060DA093105E0012E5CD13878082859DA08310870F8BD012E54D13878042851DA47
:20250C00C91DF6E7012E4DD1387804284ADC891DEFE7022E46D138881031BDE7012E41D1F4
:20252C000A46D07801283DD091783878907061B9002837D01078012803D0042818BF05280B
:20254C0030D1012008F06EFDF8BD387850BB1078022818BF052825D108F078FEF8BD254640
:20256C0000211F2205F18704204604F097FE39463246204603F0FAFF0020EE710EE025465C
:20258C0000211F2205F16804204604F087FE39463246204603F0EAFF0120AE713146224634
:2025AC0006F07CF8F8BDC046E6220020E422002028230020242300202DE9F04F834609AFF4
:2025CC000846ADF1340D099397F808A00892B98807903F880A9106F0C1F906467A48DFF886
:2025EC00F4910588814ADFF808E278480FF23C180FF2641C002E4FF00004818840880B95B9
:20260C0038D0761E1FD072480168D5B148460068014216D070480068014204D16F48006804
:20262C00008801420DD0704840F2A11743A6056800976C4B01966A4F02941A8838684346EF
:20264C00A8470A206FE00D4610460B9E0168002E37D048460068014233D05F480068014288
:20266C0004D15E480068008801422AD04FF4CE7348A214E0054610460B9E01680EB3484642
:20268C00006801421DD054480068014204D1534800680088014214D040F291133FA270465B
:2026AC0006680093CDF804C00292CDF80CB00497CDF814A04B4B06941A88494B18684346EC
:2026CC00B047BD420EDB0A98E91B8142D4BF8AB2021C099802800798C0683918089803F0EB
:2026EC0045FF1FE03A480B9F0168D7B148460068014216D038480068014204D13748006868
:20270C00008801420DD0384840F2A71725A605680097344B0196324F02941A8838684346CE
:20272C00A847072420460DB0BDE8F08F6C65645F736572766963652E6300C0464174747275
:20274C00696275746520776173206E6F7420666F756E642E00C046C0526561644174747231
:20276C004342203A20257320636F6E6E48616E646C653A202564206F66667365743A202593
:20278C0064206D6574686F643A2030782530327800C046C04C45443100C046C04C45443090
:2027AC0000C046C0416E20696E76616C6964206F66667365742077617320726571756573CA
:2027CC007465642E00C046C0E6D50000482B00205CD60000400500003C050000440500006D
:2027EC007CD600008405000074D6000060D6000078D600002DE9F04F0746824DB97805F18C
:20280C00C802ADF12C0D781D924605F017FA7E4804886CA03E79DFF808B2DFF808920790EA
:20282C0069A0089069A0099078480FF258180FF2641E0FF27C1C002E4CD0761E40F09E80D0
:20284C0005681CB37248006805421FD071480068054204D1704800680088054216D0484638
:20286C004FF49A6306680093CDF804E0CDF808C052A20392CDF810A0002105915B460691E8
:20288C0066491A88086843462946B0475D487A79406A0A2106F0E6FD002C6FD05C480068BF
:2028AC0005426BD05B480068054204D15A4800680088054262D058464946584E02887F7903
:2028CC000C683068002F0CBF079908994FF49B6342A647E005681CB34D48006805421FD0E6
:2028EC004C480068054204D14B4800680088054216D0484640F2C14306680093CDF804E096
:20290C00CDF808C039A20392CDF810A0002105915B46069141491A88086843462946B047BF
:20292C0038487A79406A0F2106F09CFD34B338480068054222D037480068054204D1364826
:20294C0000680088054219D058464946334E02887F790C683068002F0CBF0799089940F2A2
:20296C00C94324A60093099F019702960391002704974346059729460697A0470BB0BDE83C
:20298C00F08FC04670726F6A6563745F7A65726F2E6300C056616C7565204368616E6765DC
:2029AC00206D73673A2025732025733A202573004C45442053657276696365004C4544313C
:2029CC0000C046C06F6666006F6E00C05475726E696E6720257320257300C0461B5B333215
:2029EC006D4C4544311B5B306D00C0464C45443000C046C01B5B33316D4C4544301B5B3082
:202A0C006D00C04608020020E6D5000060D60000400500003C050000440500007CD60000FB
:202A2C008405000078D600002DE9F04F0128ADF1140D40F0F280DFF81492D9F8DC00012881
:202A4C0040F0E9800220C9F8DC0008F003FF0290012006F0F7F920B101210646C9F8DC1093
:202A6C00D5E008F0F3FE03906E484FF00008C0F80080012008F0AAF8012818BFCDF80080E4
:202A8C0004D1404605F0BCFC0120009066486E4CC0F800801934D4F8FF0F112008F048FD3C
:202AAC0000280CBF46460126102008F041FD08B146F002060F2008F03BFD08B146F00406AF
:202ACC000B2008F035FD30B1584800685849006B0246088890470A2008F02AFD00284046FA
:202AEC0018BF01204FF0805B0BF5DC7528B128685049006B0246088890474F480127076025
:202B0C0028688069014646F0200088474B48076008F008FD00F001010191400815D248488A
:202B2C0008F065FC8246BAF1040FF8D0BAF1010F06D1DBF8D8014068024641480321904730
:202B4C004049086820F003000860404600F08EF92868D4F8FF1F806B8047019801280ED02C
:202B6C00BAF1010F06D1DBF8D801406802463448394690473349086840F0030008602A4850
:202B8C000760286840690146304688470B2008F0CFFC28B128682649C06A0246088890475E
:202BAC000A2008F0C5FC28B128682249C06A024608889047204807600322C9F8DC201F4B5E
:202BCC00C3F800802868406B0146304688470128F8D1042006F036F9124807601A48D4F8BD
:202BEC00FF1F01688909FCD30098012802D1384605F006FC08F08AFC082006F023F90646D4
:202C0C000398C9F8DC7008F01DFE05F065FA029808F014FE02E0042600E00126304605B0B7
:202C2C00BDE8F08F0C40094000022243B8010010D2D10000CED100002820086080010443E5
:202C4C00004003402422084014100940302800202DE9F04F05460F467948DFF8F0B1DFF86D
:202C6C00F0A1DFF8F4917E49ADF1240D0FF26C1C0FF230182E1C089202887B48079238D021
:202C8C00761E1FD06F480168171C00F087806E480068014200F0828058460068014204D1EA
:202CAC00504600680088014278D06C484FF48C7740A6046800974B460196664F02951A88FE
:202CCC00386862E00968041D002AA4F1030635D05D480068014231D058460068014204D138
:202CEC00504600680088014228D04FF48A7342A213E00968841C064602B353480068014298
:202D0C001CD058460068014204D1504600680088014213D04FF4867339A252480568009340
:202D2C00CDF804C00292039700230493059306934B461A88474B18684346A847022F00DA1D
:202D4C0037BB414D3F4C07982A682168061C25D0114223D058460068014204D15046006829
:202D6C00008801421AD03F484FF492760468009625A50195029701230393002204934E46BE
:202D8C000592344D0692328828684346A04705E0089930463A4603F0E9FB278009B0BDE865
:202DAC00F08FC0466C65645F736572766963652E6300C046536574506172616D6574657299
:202DCC003A20506172616D6574657220232564206E6F742076616C69642E00C05365745015
:202DEC006172616D65746572203A202573206C656E3A20256400C0464C45443100C046C050
:202E0C004C45443000C046C04C656E677468206F75747369646520626F756E64733A204C0B
:202E2C00656E3A202564204D696E4C656E3A202564204D61784C656E3A2025642E00C0460E
:202E4C00E6D500005CD60000400500003C050000440500007CD600008405000074D6000085
:202E6C0060D6000078D60000482B00202DE9F84F82467A48DFF8D89135380068800880F03B
:202E8C00D88007F05FFB054678480830D0F8008000244FEA2876761C5FEA98500AD2C5F1A2
:202EAC003E0015F10A0F4FEAE000D8BF08208642B8BF061C634FD7F87C01C0F3046008F063
:202ECC008FFA83463868C0F3044008F089FA06EB0B020090162A05DA12F10A0FB8BF6FF0E3
:202EEC00090200E01522584B584F02F01F0141F4F8511980396811F0030F18BF0124C908B0
:202F0C0028BF44F00204BAF1000F18BF44F00404494691F90730EB1A052B04DA8B79A3426B
:202F2C0008BF888864D0DFF82CE10F2DA5F10F0C25DB0CEB0513A3F1F00C4FEA2C27072F48
:202F4C0088BF07273E46062E88BF06265EF82600042303EB86037646F3581B1A03F0FF0677
:202F6C00E00824BFC3F307200644A00824BFC3F307400644600828BF06EB136601E00026C1
:202F8C0037465EF827E0E0080EF0FF0324BFCEF307200344A00824BFCEF30740034460080F
:202FAC0028BF03EB1E630098B6B2ACEB07277E43801A06F1800603EB1623D8BF01203422DD
:202FCC0008F0FF0742437A43B2FBF3F04FF6FF72824238BF101C802D80B2888005DA15F1AC
:202FEC00800FB8BF6FF07F0500E07F25CD718C71194A12681F280A604FF0000208D340F241
:20300C00FF11814206D24008521C8142FBD301E01F208880124F11490F38000942EAC00291
:20302C0047EA0200C1F8FB0F0026C1F8FF6FBDE8F88F0D4F0B4E494608203760891D0870F4
:20304C00BDE8F88F3C1100506E62084024220840D83C00209C1300500820094035000940D3
:20306C0000E7A48030100940FDFDA400AC3F00502DE9F0411C4615468C4208BF854282BF36
:20308C0000230022E5E0002C08BF002D0AD100290EBF00286FF000006FF0000100F0E1F879
:2030AC00BDE8F0815FF000085FF0000E002C08BF8D429CBF2C1C0025070C47EA01470E0C0A
:2030CC00B44208BFBD429EBF5FEA044444EA15445FEA0545070A47EA01670E0AB44208BFA1
:2030EC00BD429EBF5FEA042444EA15645FEA0525470847EAC1774E08B44208BFBD4200F221
:20310C009380870847EA81778E08B44208BFBD427CD8C70847EA4177CE08B44208BFBD42E8
:20312C0066D8070947EA01770E09B44208BFBD4250D8470947EAC1674E09B44208BFBD42D5
:20314C003AD8870947EA81678E09B44208BFBD4224D8C70947EA4167CE09B44208BFBD421D
:20316C000DD8E60146EA5566EF01B14208BFB84201D3C01BB14158EB08085EEB0E0EA601E8
:20318C0046EA95664FEA8517B14208BFB84201D3C01BB14158EB08084EEB0E0E660146EA8F
:2031AC00D5666F01B14208BFB84201D3C01BB14158EB08084EEB0E0E260146EA15762F0149
:2031CC00B14208BFB84201D3C01BB14158EB08085EEB0E0EE60046EA5576EF00B14208BF4C
:2031EC00B84201D3C01BB14158EB08084EEB0E0EA60046EA9576AF00B14208BFB84201D368
:20320C00C01BB14158EB08084EEB0E0E660046EAD5766F00B14208BFB84201D3C01BB14188
:20322C0058EB08085EEB0E0EA14208BFA84201D3401BA14158EB08085EEB0E0EA34208BFC1
:20324C00AA423EBF2D0A45EA0465240A89D3734642461E4617460B46024631463846BDE8EB
:20326C00F08170472DE9F04F0D468246DFF89C816A4C287809AF9B460FF20819ADF1240DD6
:20328C000228079207D140466B680688188842F60211814224D0284605F0C8FA5C484746A8
:2032AC0001683888D0B15B480068014216D05A480068014203D12068008801420ED05A4830
:2032CC00046840F2132734A600250097554B0196534F02951A8838684B46A0470A204EE0F2
:2032EC0052480068002E80462BD04A48006818EA000F26D04848006818EA000F04D120686A
:20330C00008818EA000F1CD03879FE280CBF29A62FA6284605F08AFA454940F201230C6897
:20332C0000932EA201920290CDF80CA0002104963C4B05913A4E06911A88306841464B463F
:20334C00A0473888009003270197079A5B462946504605F029F806463648076876B96FB183
:20336C00786858B1284605F061FACDF800B07C68079B02464FF489515046A047304609B08E
:20338C00BDE8F08F627574746F6E5F736572766963652E6300C046C041747472696275746B
:2033AC006520776173206E6F7420666F756E642E00C046C02D20726573746F72696E672046
:2033CC00626F6E64656420737461746500C046C02D204F544120777269746500577269744C
:2033EC0065417474724342202843434344293A20706172616D3A20256420636F6E6E4861F9
:20340C006E646C653A20256420257300E6D500005CD60000400500003C05000044050000A6
:20342C007CD600008405000074D6000060D6000078D60000C82A00202DE9F843814608F0B5
:20344C005FF8002100B901216B4E30680028FCD06C4D01242D1DEF6A346009B108F056F8B3
:20346C00DFF89881C7F3072008F1BC01086008F047F8002100B9214630680028FCD02F68B6
:20348C00346009B108F042F8C7F38440C8F8C00008F036F80146002001B920460146306816
:2034AC000028FCD0ED69346009B108F02FF8C5F38120C8F8D000B9F5C061C8F8B81000F019
:2034CC00968098F8D80068B9C8F8D410D8F8C000C8F8C800D8F8BC70C8F8C470D8F8D06095
:2034EC00C8F8CC60D8F8D410D8F8BC60002954BF02206FF00100454605F1C8031A6801EBBC
:20350C0041014018411000EB917002EBA0021A60D5F8C810C5F8C46000291CDD1E293DDDB6
:20352C00D5F8CC0030B93429B4BF15391E21C5F8C81025E02A29BABFD5F8C8000B381E2024
:20354C00C5F8C800D5F8C4003F28B4BF401C3F20C5F8C4001FE0D5F8CC00032812D011F18C
:20356C000B0FC6BFD5F8C8000B30201CC5F8C800D5F8C4000028CCBF401E0020C5F8C400CC
:20358C00032009E011F1150FC6BFD5F8C8001530201CC5F8C8000020C5F8CC00B5F8C400B3
:2035AC00174E30214FF47F4208230090304605F04DFB009404214FF400321123304605F00A
:2035CC0045FBB5F8C80004214FF4F80212230090304605F03BFBB5F8CC0020214FF44062C3
:2035EC000A230090304605F031FBBDE8F883002088F8D800BDE8F88300800C40302800206F
:20360C0000A00C4000A00C402DE9FC416F4C204608F072F815460E46009008F02BF905F0A0
:20362C0001078046B6F1FF3F0DD1606820B9B4F91200401C06B202E06068B0F91C606449FD
:20364C000020C91C0870304606F058FE0326002800F0A4806168814270D0009FDFF848C16F
:20366C00B84231D03FB100990A68904209D0096800290091F7D1832E44D0404608F0F6F879
:20368C0040E0604607F0F0F900990868AA0803D202680B4601461A6000220A60009078B127
:2036AC000C340146C87F40F00400C877684607F07DFC0146204606F0BDF900980028F0D1C5
:2036CC00404608F0D3F81CE0604607F0CDF9A8083ABF2068006800202060404608F0C6F8C1
:2036EC000C340099C87F40F00400C877684607F05DFC0146204606F09DF9009808B1A808F3
:20370C00EFD2832629482C4A007890B928480078012846D0274807F0A9FE0221104607F0E7
:20372C00C1FC2648007801283BD0254807F09EFE37E01046022107F0B5FC32E0A90803D3D5
:20374C002168009100262660C27F0121B9401143C17708F07BF80646002F14BF19481A4833
:20376C0007F0FEF8404608F081F8A80811D3009878B10C340146C87F40F00400C877684615
:20378C0007F014FC0146204606F054F900980028F0D1304608F056F8832602E0404608F0E0
:2037AC0065F83046BDE8FC81B83B0020063D0020053D00201D0A0000503B0020073D0020FA
:2037CC00895900000100020401000104A03C0020183C00202DE9F04FADF1840D209001F059
:2037EC005BF905F00FFA0024012804D107F066FB022808BF012459490868C0F3815001281C
:20380C0005D151F80C1C0120090E884004435448007806F095FFDFF84C81DFF84CA1C8F848
:20382C00000030B15246FF2107467F1E02F8011BFBD120990968002501F0FF02FE2A1BD0C3
:20384C00DDF880C052462B46012701F0FF06FF2E0BD0B04203D907FA06F6344201D00220E4
:20386C0079E001F0FF01354353545CF8041F5B1C01F0FF06FE2EEAD1092002F0BFF93B49B1
:20388C00209824220823086001A8002107F0D2FF4FF0010901AA3E488DF81C90494607F0C8
:2038AC00C5FFD8F800303BB33A4E00274FF0040BBA4609FA07F0044218D1054204BF07F023
:2038CC00FF0141F4C04104D027482099C05D51F82010274802F044FCF8B24FF0FF3107F063
:2038EC009FF9D8F80030C6F800A001E0C6F800B07F1C361D9F42DCD30AA8002130220823A9
:20390C0007F090FF1B4D1D4A2878002410210AAB12901948009407F081FF16A8282208235B
:20392C00214607F077FF686816AA16491C9014481D94234607F06AFF134A52F80D0C4946E7
:20394C0020F4F85040F4005042F80D0C0F4BC2F8FF1F2046196021B0BDE8F08FB43F0050DF
:20396C000C3D0020F4370020DC3B0020FC3C0020007FC76734D600001C3C002049AC0000D4
:20398C001C3B0020E98C00000D30094008000940383C0020A03A00202DE9F84F9A469346B4
:2039AC000D46044607F066FFDFF85C810AAFB8F91220B8F91010009040F6F870891A0840C8
:2039CC00082880F29280B8F91000401C6FF31F30A8F81000B8F9109007F002F8064604F126
:2039EC00700007F041F8B56086F81EB0C6F804A0F460A6F81C9097E80C0051A003C800254E
:203A0C001040F577D8F8002006F11007194087E80300002A5CD14046314606F00BF80028A0
:203A2C005BD0A4F894904448F17F0778DFF8DCA041F08001F17784F8965067B151460F780F
:203A4C004FB1344A3449324B0570012015700A781870521C0A70009807F008FFD8F804006B
:203A6C0000284ED15146087800282DD12B480078012846D007F0FEFE054629480078F8B9B4
:203A8C00B06804F011FD284B2C4A26491B681268086038B9284607F0E9FE2448042107F07E
:203AAC0001FB2EE0D0680968214C091AB1FBF3F1204607F0D7FE204607F0E0FE28461EE04E
:203ACC001C4901200870F9E7192007F01FFC18E04046314605F0AEFF50B9B8F9100000F65A
:203AEC00FF706FF31F30A8F810006FF0010905E0A4F89490F07F40F08000F077009807F0C7
:203B0C00B5FE4846BDE8F88FA03C0020073D00200B3D0020043D00200D3D0020063D002036
:203B2C00053D0020E43C002050D60000503B0020B83B0020083D00200A3D0020F43C0020D7
:203B4C00F1EFFF9F200000002DE9DF4F5D48DFF890C1DFF878B1DFF878A1DFF87891DFF803
:203B6C007881DFF878E1078857480E1C32A313D10168002F5DD058460068014259D0504632
:203B8C000068014204D1484600680088014250D040F273672CA62DE0012E17D0022E48D16E
:203BAC00002A46D10168002F43D05846006801423FD050460068014204D148460068008821
:203BCC00014236D040F2846723A613E0A2B90168002F2ED05846006801422AD05046006885
:203BEC00014204D1484600680088014221D040F2796725A6002212E03A480168CFB15846F5
:203C0C000068014215D050460068014204D148460068008801420CD040F27D6722A66046D1
:203C2C000468009701967746464602923A883068A0470090BDE8DF8F70726F6A6563745FC7
:203C4C007A65726F2E6300C050616972696E6720737461727465640052652D657374616273
:203C6C006C69736865642070616972696E672066726F6D2073746F72656420626F6E64204D
:203C8C00696E666F2E00C04650616972696E6720636F6D706C6574656420737563636573EB
:203CAC007366756C6C792E0050616972696E67206661696C65642E204572726F723A202505
:203CCC0030327800E6D5000060D60000400500003C050000440500007CD600008405000063
:203CEC0074D600005CD600002DE9F0438046D8F80460D8F808700C46ADF1340D07F0BAFDD2
:203D0C003178012903D107F0B1FD0020A3E04FF0010986F8009007F0A9FD20787070607864
:203D2C00B07060687060A068B060E068F06020693061207D3075607D7075A07DB075A069A6
:203D4C00B061207F3077607F00257077A07F35623563102186F83C10B0772C467462746386
:203D6C00B462B46386F82C4086F82D4086F83D40786801F043FF404602F00EF8404602F031
:203D8C00FBFF78B935480068C068014638688847786801F05FFE07F06DFD347007F066FD9C
:203DAC00A04657E001A821463022082307F03AFDCDF818803A7B09920095294AB96806F152
:203DCC00680001AB07F02AFD01A828220823214607F020FD396907912249CDF8148006F117
:203DEC00840001AA234607F011FD01A824220823214607F01FFDB0788DF81C9038B906F145
:203E0C00B800214601AA07F011FD17483061707838B906F1D400214601AA07F007FD1348CB
:203E2C00F06001A821462422082307F02FFD0694ADF8144006F1F0000D49CDF81C800A2225
:203E4C0001AB07F01FFD0B4A06F154000421434606F0A0FB40460DB0BDE8F083D00100107C
:203E6C00D1560000018A000051B6000049B600007568000029B300002DE9FC415E4C574D24
:203E8C00574EDFF860815A4F94F8E410481E0B2861D8DFE800F07B2C43062343062343063F
:203EAC007664042907D001220A2945F8212C14BF0220032004E02021012045F8211C024618
:203ECC0084F8E200002045F8390C0827C5F8FF7FC5F8F37F45F8392CBDE8FC81052914BF78
:203EEC0009200620002584F8E400356070E094F8E1700120383D002FC5F81B0004BF06209A
:203F0C00002102D00021F160032084F8E400032045F8010C31603068800859D294F8E400F4
:203F2C00012503280DD00021404660220523009104F08CFE94F8E400062814BF0A20072025
:203F4C00D1E702200090002160220523404604F07DFE0420C7E707F055FCBDE8FC81224984
:203F6C00002622480E60012505600E2001F072FD022005F03BFF84F8E45084F8E360BDE8B9
:203F8C00FC81002038600C2578601FE01948006800680146202088472C3D41F61D560F200F
:203FAC0000214FF4C072072345F8010C4046C5F803600225009504F049FE404600214FF464
:203FCC00C072072305F018F90120386084F8E45004F1780007F052FCBDE8FC8139400C4071
:203FEC0038600C4000A00C402C500C4004800C4034600C40A0010010302800202DE9F04FEF
:20400C000446564DDFF858B1564FDFF85CA1DFF85C9120790FF2C408ADF11C0D002829D03C
:20402C00401E58D1584629680088002853D03868014250D050460068014204D148460068DC
:20404C000088014247D04C4840F23F570568009726A6019660790290A0790390E07900231C
:20406C000490444F0593424E06933A8830684346A84730E0414E00212822304603F00EF900
:20408C00641D27222146304602F070FA58462968008800B3386801421DD050460068014296
:2040AC0004D1484600680088014214D032484FF4A767046800971CA5019522A3029325A234
:2040CC000392002704962B4D0597294B069718682A884346A04707B0BDE8F08F70726F6A21
:2040EC006563745F7A65726F2E6300C056616C7565204368616E6765206D73673A2044613F
:20410C00746120536572766963652053747265616D3A20253032783A253032783A253032EE
:20412C00782E2E2E00C046C056616C7565204368616E6765206D73673A2025732025733AFD
:20414C002025730044617461205365727669636500C046C0537472696E6700C060D60000FD
:20416C00E6D50000400500003C050000440500007CD600008405000078D60000B4030020A9
:20418C002DE9F04F524DAF690246ADF11C0D002F64D05048DFF84491DFF84481DFF844E1B9
:2041AC00DFF844B1DFF844A1DFF844C106882DA32ABB49490968002E4AD0484600680142C8
:2041CC0046D040460068014204D170460068008801423DD0604640F21D660468009625A29D
:2041EC0001923879029028780390002604960596574606965E463A883068A04728E03D48A4
:20420C00016806B34846006801421CD040460068014204D1704600680088014213D06046D3
:20422C0040F22266046800961DA60196387902900392002604960596574606965E463A888A
:20424C003068A047AF69397907F1080006F0BEFDA86906F003FE0020A861287007B0BDE833
:20426C00F08FC04670726F6A6563745F7A65726F2E6300C053656E74206D657373616765A7
:20428C002077697468206F70636F6465203078253032782E20417474656D707420256400FF
:2042AC0047617665207570206D6573736167652077697468206F70636F64652030782530D2
:2042CC0032782E205374617475733A20256400C00C020020E6D5000060D60000400500004F
:2042EC003C050000440500007CD600008405000078D600005CD600002DE9F04F0146B1F888
:20430C000500ADF11C0D48B1401E04D0401E08BF0FF2A40A04E00FF2B40A01E00FF2C40A73
:20432C00484806880F79494ADFF824B1DFF824914A4DDFF82C8144482FA30FF2CC0E0FF2AB
:20434C00E40CA7B17F1E34D10168002E31D0106801422ED058460068014204D14846006802
:20436C000088014225D040F20F5732A610E00168FEB1106801421CD058460068014204D134
:20438C00484600680088014213D040F204572BA6404604680097CDF804E0CDF808C00396B7
:2043AC00CDF810A0002205922B4F06922A883868A04707B0BDE8F08F496E64696361746978
:2043CC006F6E7320656E61626C6564004E6F74696669636174696F6E7320656E61626C65B5
:2043EC006400C0464E6F74692F496E642064697361626C656400C04670726F6A6563745FAF
:20440C007A65726F2E6300C043434344204368616E6765206D73673A2025732025733A20A1
:20442C00257300C0427574746F6E205365727669636500C0425554544F4E3100425554549F
:20444C004F4E3000E6D5000060D60000400500003C050000440500007CD6000084050000E8
:20446C0078D60000B0B50246107A02F1090102F10904ADF1200D002848D0401E38D0401EDF
:20448C0060D0401E5AD0401E54D0401E02D0401E4BD05AE04448454F0168388820B344484B
:2044AC000068014220D043480068014204D1424800680088014217D0A07800280CBF24A2D5
:2044CC0026A2404840F21B470568009729A3019302920027039704970597394B0697374F55
:2044EC001A8838681FA3A847208805F0EFFB2CE00F88B7F5895705D0103F26D1084600F0AE
:20450C0059FB22E00846FFF7F7FE1EE00F8841F210103F1A05D0203F17D10846FFF76EFDF4
:20452C0013E00846FEF766F90FE0FDF7B7FB05F067F80AE0204600F05DFE06E0507AFDF7B2
:20454C0053FA02E0084605F05AFF08B0B0BDC046446973706C6179696E6700C053656E64FB
:20456C00696E670070726F6A6563745F7A65726F2E6300C0426F6E644D6772205265717524
:20458C0065737465642070617373636F64652E205765206172652025732070617373636FC5
:2045AC00646520253036640060D60000E6D50000400500003C050000440500007CD6000005
:2045CC008405000078D600002DE9F0410646524DB088ADF1200D002804BF05F10C04A046EC
:2045EC000DD005F10C040346A62137A2204606F0C8FB204606F0D8FD281800F10C083768AF
:20460C00B8B206F00DFA40A20CCA00F075FD40A20CCA00F071FD04F039FCA4EB08010090A6
:20462C002BA23B0CA631404606F0ABFB204606F0BBFD2218A8682146121B06F0D2FFF08830
:20464C00D8B107F0DBF835490A8832B9B1680091F168034622A201911FE0F16800913169DB
:20466C00019171690291B1690391F1690491316A0591716A0691B3680EE0306900907069E4
:20468C000190B0690290F0690390306A0490002705970697F368B06802462046A62106F07A
:2046AC0070FB204606F080FD22180D2002F8010B0A2702F8017BA8682146121B06F091FF6C
:2046CC0008B0BDE8F081C04623253036752000C05B2025642E25303375205D2000C046C065
:2046EC007B6576743A20666D743D25702C20617267733D5B307825782C2030782578202EBC
:20470C002E2E5D7D00C046C0000000000000F03E0000000000408F402C1D00208A0500005C
:20472C002DE9F041424C474D8046C8F38140401E02D0401E2AD025E0284620300168880C7A
:20474C0020D24FF4804020603A48D0F802204B0AC1F3033703F0800322F08F02134347EA89
:20476C000302C0F80220D0F801300E1266F30303C0F80130026801F0E70722F0E70247EA78
:20478C00020102E04FF00041204601602A4E06F108000068C0F3C0070FB94020A0624FF41B
:2047AC000070206406F08AFD40F0300084F8C800C8F3815038B3401E03D0401E1ED00221C1
:2047CC001DE0012006F002FA07460420394604F0EBF8042006F0FAF98742FAD1366826F0A1
:2047EC007F4005F0EBFA15480068036807214FF06022300E98474FF48060206003210420F3
:20480C0004F0D2F806E00420012104F0CDF80C4805F0D4FA284600680B4947F6180700F05C
:20482C003F0084F8CB0F094E0F803068BDE8F08140A00C400A600840A83F0050B401001069
:20484C00BD3786006C13005070B00C402C20094070B5ADF1380D00F01FF9324908682822BD
:20486C00082340F00200086001A8002106F0D2FF2D4EB0782E4907902C48002301AA06F0ED
:20488C00C5FF00213022082301A806F0CBFF002519213078284AADF81C5001AB0990254805
:2048AC00009506F0BBFF2822082301A8294606F0B1FFF07822490790204801AA2B4606F090
:2048CC00A5FF3022082301A8294606F0ABFF01241A2170781C4AADF81C4001AB099019489E
:2048EC00009506F09BFF194819492A46134606F0C9FF184806F0BAFD1849194E0C7016488E
:20490C0035704FF6FF728283C577164B1D70164C257016490D70174E3560154A15700EB092
:20492C0070BDC0460020094044D60000503B002079B00000543C002095A70000843B002016
:20494C008D630000703C002009850000B83B0020899E000089590000FC3B0020043D00202D
:20496C00093D0020063D0020053D00200A3D00200B3D0020E83C00202DE9F04F0C464549B8
:20498C00CA7AADF12C0D84460592487B09900D7900958A7A488B4B8A0E7B91F805A091F82C
:2049AC0002800492B1F846E008904A7A088B0392CD7807900A7AC88A02920F6A0690CA79E8
:2049CC00888A01928A79E146A9F54079B9F11D0F10D8DFE809F05B5553514F4D4B4946431A
:2049EC00413F3C3A380F34312E2B2923201E1C0F19181716BCF1280F49DA604604F09CFC64
:204A0C0021E0099EB246D046CDF814801DE00898079007980690DDF818E005E03831086887
:204A2C0020608888A08032E070460AE0B1F8440009E0B1F8420004E0B1F8400001E091F810
:204A4C003E00034612E0208021E0059804900498039001E03231E2E703980290029800906C
:204A6C0006E0019A87310DE068310BE01846EAE7009D0BE02C31D2E7276008E0583100E0DB
:204A8C0048311022204601F071FD00E025700BB0BDE8F08FE42200202DE9F041444C94F8BD
:204AAC00E700ADF1280D00286FD1394F387B01250021242284F8E7507E6884F8E6000823DA
:204ACC00C4F80C6101A806F0E1FE002604F10C00069601ABADF814602E490796324606F019
:204AEC00D1FE2D4904F1300001AB324606F0CAFE2A4904F1540001AB324606F0C3FEB868A7
:204B0C00014628468847DFF89C8025487B7B0078D8F80410C1F381571BB1032F03D184F879
:204B2C00E150032F16D0022F14D0012F26D103201D4C009031464FF040521C23204604F0E7
:204B4C0085F8009531464FF400720923204604F07DF813E0022005F061F9032F0CBF4FF46C
:204B6C007A7142F21071114800685434B1FBF0F1204606F077FE204606F080FED8F8000038
:204B8C00C00802D2304605F049F90AB0BDE8F081E8D50000A77A0000DD6B00002572000033
:204BAC000C3D0020B03F005000A00C4050D600003028002090B50146B1F80500ADF11C0DB6
:204BCC0038B1401E03D0401E08BF18A202E01CA200E021A20879012826D1364C364827883D
:204BEC0001680FB33548006801421DD034480068014204D1334800680088014214D02C4867
:204C0C0040F26C57046800971CA3019322A7029725A303930492002705972B4B06972B4F97
:204C2C001A88386811A3A04707B090BD496E6469636174696F6E7320656E61626C65640027
:204C4C004E6F74696669636174696F6E7320656E61626C656400C0464E6F74692F496E6419
:204C6C002064697361626C656400C04670726F6A6563745F7A65726F2E6300C04343434456
:204C8C00204368616E6765206D73673A2025732025733A20257300C044617461205365721B
:204CAC007669636500C046C053747265616D00C078D60000E6D5000060D6000040050000CB
:204CCC003C05000044050000840500007CD600002DE9F0430746880FADF1140D75D303F03C
:204CEC00AFFE404D00261C352E60394845F81C0C012001F078F9374806F0B8FBBC68B146BD
:204D0C0040F60A01344A6680537B118090465680107BC2F8049003F0F00300F0F0001073B5
:204D2C0043F00103537300E01C46636813B118888142F9D1C4F80480607B00F0F00060739E
:204D4C00264806F0D9FC80680088C91F81421DD0491C81421AD03B8CC3B197F82C107E84EC
:204D6C0097F82D00C7F8249001F0F00100F0F00087F82C1040F0010087F82D0007F1200383
:204D8C00C8F80430507B00F0F0005073B868694605F0F6FD684606F089FAB86801F081FC39
:204DAC0028680028FCD02E60012005F00FFF012808D0607B00F0F00040F0010060730848A1
:204DCC0006F054FBB86845F81C0C05B0BDE8F08301010E041D0A0000B43C0020A03C0020E9
:204DEC005D830000001004402DE9F04106F07EF83F4D3E4EDFF8FC800446A00820D33046FA
:204E0C004168E9B1002242608B690A690F6922401A4342F0020205F108038A611A68BA4340
:204E2C0001F110071A6097E80C002A680C301B1C9A432A6004F0FEFD4046022106F032F933
:204E4C007068A10815D200F1100191E80C00002702EA04013B40002B08BF002909D08169E6
:204E6C001440B0600C4384614FF48041404606F019F97068002837D1304606F03DFC071C2C
:204E8C0032D01E48F9680068884228D1B86803F00BFB19490860E8B905F1080138690A687C
:204EAC00104308602B6807F1100494E80300081C1843286000222A61B86845F80C0C05F1EE
:204ECC00100000680028FAD0304606F06FF87760BDE8F081086802F07DFFBDE8F081404622
:204EEC004FF4805106F0DEF8BDE8F081A03C00200C100440503B0020E43C0020F43C002019
:204F0C002DE9F04707467D68D7F8089090460C4606F0B0FCAE6A8246002E64D105F1F000AC
:204F2C0005F0A2FD2C620024EC7750466C6206F09DFC06F09FFC2F4E3378824623B902204A
:204F4C0004F06CFF01203070504606F08FFC2A4A1068414640F480701060384604F014FC85
:204F6C00A862C0B93846414603F0DCFDA878D0B9A96805F1B80006F03DFCE8B9AC6210205B
:204F8C00E8774946284602F097FB06F073FC8246307840B323E0D9F80010886B40F0200036
:204FAC008863A87810B12046BDE8F087A96805F1B80006F01FFC10B1686ABDE8F08738469A
:204FCC00414603F0AFFD1020AC624946E877284602F072FB06F04EFC8246307818B102200B
:204FEC0004F004FF3470504606F040FC4FF0FF30BDE8F087103D0020301000402DE9F0477E
:20500C00ADF1180D01F054FD3A4D4FF0030908274FF6FF78002605F13E0A2C4605F0BAFD40
:20502C0020BB009601A80DF106016A4605F018F8E0B9BDF80400102814D160789DF806109E
:20504C0088420FD100980188884509D14088C00B08D3042005F12002014604F039FD01E0D6
:20506C0003F014FD009808B105F0ECFE208A41082DD320F0010063792179208253EA010294
:20508C0025D073B9207A637A8DF8070005F132018DF808300A680DF109031A6089889980DA
:2050AC0001E08DF80790A07A8DF80F00E37A8DF810300DF1070006F0DFF938B1636AA77077
:2050CC0023B11A6812B1196838468847208A810807D320F0020020825146304602F0B2FA71
:2050EC00208AC1089AD320F00400208205F0C2FD94E7C046E42200202DE9FC4191EA0308DA
:20510C004CBF4FF000484FF000084FEAC32545EA52554FEAC2264FEA43077F0D11BF45F07E
:20512C00004500210020BDE8FC815FF4E06E1EF1FF0E774555D04FEAC12343EA50534FEAF7
:20514C00C0224FEA4104640D11BF43F0004300210020BDE8FC81744543D0E419A3FB05015C
:20516C00A3FB06E7A2FB06631EEB030E57F1000751F10001A2FB05631EEB060E57F1000775
:20518C0051F10001FF1851F10001C01951F100014CBF4FF4806E4FF4007E10EB0E0051F102
:2051AC00000148BF641C01D4400049415FF44077FF37E41BDEBF00210020BDE8FC8117F571
:2051CC008067BC420DD24FEAD02040EA41504FEA41014FEA113141EA045141EA0801BDE8CC
:2051EC00FC810020FF21C900C91D090551EA0801BDE8FC8130B505463548016835480088A8
:20520C00ADF11C0D002829D033480068014225D032480068014204D13148006800880142D9
:20522C001CD0287800280CBF13A216A2687800280CBF17A31BA32D48046840F295400090B3
:20524C0021A0019002920393002204920592264B06921A88234B186817A3A047287820B1CC
:20526C00001F07D10120014601E0002001216A1CFBF728FF07B030BD427574746F6E203091
:20528C0000C046C0427574746F6E203100C046C01B5B33336D72656C65617365641B5B3075
:2052AC006D00C0461B5B33326D707265737365641B5B306D00C046C070726F6A6563745F02
:2052CC007A65726F2E6300C0257320257300C04660D60000E6D50000400500003C050000E4
:2052EC00440500007CD600008405000078D600002DE9F04104466668A7680D46ADF1380D8C
:20530C0006F0B8FA96F8DC10012903D106F0AEFA00205EE04FF0010886F8DC8006F0A6FAAD
:20532C00E968204602F024FD0028F1D12878307068687060287A002130220823F06001A894
:20534C0006F070FA06943A7B099200250095224AB96806F1100001AB06F060FA01A82822BA
:20536C000823294606F056FA396907911B49059406F12C0001AA2B4606F048FA01A82422A4
:20538C000823294606F056FA06F160008DF81C80414601AA06F04AFA307838B906F17C0031
:2053AC00294601AA06F042FA0D4870603572C6F8BC50C6F8C050786800F020FC204603F0EC
:2053CC00FDFB084A06F1C8000421234605F0E2F820460EB0BDE8F081BD5700005582000036
:2053EC0031B6000009B3000030B5354CA069ADF11C0D00283FD021780830491C217003F0D7
:20540C00DBFE0546162D04D0A069042D00F102002AD12A482B4D0168288800282BD02A4885
:20542C000068014227D029480068014204D128480068008801421ED0264AA0694FF4C1635C
:20544C0015680093001D11A30193007802902078039000220492204B0592204C06921A8836
:20546C00206806A3A84706E00088002104F06AFE2846FEF785FE07B030BDC04670726F6ACA
:20548C006563745F7A65726F2E6300C05265747279696E67206D6573736167652077697487
:2054AC0068206F70636F6465203078253032782E20417474656D70742025640064D6000007
:2054CC000C020020E6D50000400500003C0500004405000078D60000840500007CD60000DF
:2054EC002DE9F04390460A68D8F800401678814600271D46ADF1140D3846531C242E0B60B7
:20550C0053D112F8016F5B1C4C2E0B600ED1AA68E41C24F00304241D54F8040C494602F05B
:20552C0065FE2968EF600127091A2960462E1AD1E41C24F00304241D54F8040CE41C02909F
:20554C0024F00304241D54F8040C002749460390AA68ADF8047001A801F056F82968EF604B
:20556C000127091A2960532E1FD1E41C24F00304241D54F8040CE861C8F80040288B009096
:20558C00A968EA69D9F800004346FBF7FFFBD9F80040002714B10119C9F80010D8F800405D
:2055AC002968EF60091A01272960662E0AD12B8B23B9E41D24F00704083403E0E41C24F0D7
:2055CC000304241D1FB9E9690E700127EF60C8F8004005B0BDE8F0832DE9F0430646ADF158
:2055EC001C0D06F003F904F0D1FB4FF000090546CDF8009005F0BAFF30F0010002D00098A3
:20560C00A84202D16FF0040059E070684C4658B1B0F1FF3F05D001A904F0A0FB30B1074697
:20562C004CE04FF0FF3000E02046019006F0DAF80199012701EB000800E001936868019991
:20564C0006F0D8F800282ED003A804F023F9D8B99DF8100002A904F003F988B9B368BDF8B5
:20566C0008009DF81210059A984748B19DF81270B773BDF80800B081059B33614F4612E0FE
:20568C000599684604F0A0FD0198641CB0F1FF3FD4D00028D2D006F0A5F8B8EB000302D0B0
:2056AC0001989842C9D2009905F1080004F0FAFE24B1686806F092F8641EFAD1384607B0A6
:2056CC00BDE8F0832DE9F8430746D7F80880D8F800007D68066C16F4F06F466426D1F00987
:2056EC0010D2700952D395F83C00AC6B401E844288BF041C3846214604F00EF8A86B001BA6
:20570C00A86308E0A96B384604F006F8014695F82D00A96318B9A86B002837D101E00020E4
:20572C00A86305F1840006F055F82FE0F00A0ED3D8F80000002144684160A96B04F00F0452
:20574C00202988BF2021384603F0E6FF1AE04FF000094C4602E0A86B401EA863A86B88B198
:20576C003846012103F0D8FFD8F80000446814F00F04C0F80490EED0296B686B491E2963BC
:20578C00401E6863EC77384602F008F8B0090DD3AE6A5EB13846314603F0F6FFA862A86A48
:2057AC00314618B93846091D03F0BCF9BDE8F88398B537498268446809681068496888475D
:2057CC00344B01229A6140B1217AFF2905D0FF214009217257D204224DE0207A002852D03B
:2057EC00401E19D0401E02D0FD384CD048E05968D4F8B4000170D4F8B800D4F8B410401E89
:20580C00491CC4F8B800D4F8B870C4F8B410F7B1012F88BF09222EE0D4F8B000401EC4F841
:20582C00B000D4F8B070A7B9D4F8B8707FB10220D4F8A8102072097C012F4FEA410141F0A3
:20584C00010143F8041C94BF03220B2214E004220FE0D4F8AC0000785860D4F8AC00022FE0
:20586C0000F10100C4F8AC0005D2D4F8B87017B905220020207202201A6005F0F3FE98BD77
:20588C00FF20207298BD04F12C0005F0A3FF98BDAC010010042800407CB50446084602F005
:2058AC00FDF8344E02461821304604F0E5FC05F0A9F940F2FF32002380B22C2100903046F7
:2058CC0003F0C4F905F002FD1C210246304604F0D3FC05F089F902461421304604F0CCFC34
:2058EC0005F028FB02461021304604F0C5FC204602F032F802460C21304604F0BDFC204660
:20590C0005F000FB1C4D400040F020002870204605F004FB40F010002870204605F040F835
:20592C0002462821304604F0A7FC204605F00EFB400040F06000E870204605F013FBC00008
:20594C0040F0800005F8080C204605F017FB800040F47C40A5F89300204604F0A3FC02462C
:20596C000821304604F088FC4FF48000A5F2091108607CBD00A00C4049A10C40042998B553
:20598C004CD1274805F0B8FE264C48B9264800F11F010978490838BF206803D3406800E023
:2059AC00C06820604168214A09781160416812680978914206D0876927B124A20CCA6FF01D
:2059CC00FF01B847022004F029FA112000F016F901222168164B087C1A7018B1154800789A
:2059EC00012803D00E2000F009F92168496812488F680FB9CF681FB10021C1610F4F07601D
:205A0C000F4A40F2FF711160002787610D4941610D4805F02BFD192005F0D8FE98BDC04636
:205A2C00A03C0020F43C0020FC3B0020D0210840063D0020093D0020001004405100070603
:205A4C000000046002000040DD4C000000000000000000022DE9F843044605F00BFF814608
:205A6C002D48021992F8ED10491ECFB2002F82F8ED704BD12B4D05EB84052E78698836F04B
:205A8C007F0788461AD1F10911D24FF08054D4F8B801806901464046884704F5DC742068F0
:205AAC00406B0146404688470228F8D121E000EB8800D0F80011002088471AE04FF0805457
:205ACC00D4F8B801006A014640468847D4F8B801806A014640468847D4F8B801006B0146ED
:205AEC004046884701210D4A0D48116001688908FCD306F03F003F2801D0FFF7ABFF687850
:205B0C0000F03F003F2801D0FFF7A4FF484605F0ADFEBDE8F883C0463028002028200860FD
:205B2C0028200840A4D10000BFB505462A480F4601682A480088F0B12948006801421AD0C4
:205B4C0028480068014204D1274800680088014211D0002F14BF10A212A226484FF4E0636A
:205B6C000468009316A30193214B02921A881F4B18680FA3A04747F0004228464FF4E0217D
:205B8C0003F024FF1C48391C02D0091F02D1243005F074FE0090BFBD427574746F6E2031C9
:205BAC0000C046C0427574746F6E203000C046C070726F6A6563745F7A65726F2E6300C01A
:205BCC00427574746F6E20696E746572727570743A20257300C046C060D60000E6D5000087
:205BEC00400500003C050000440500007CD600008405000074D60000480300202DE9F041F3
:205C0C00064605F037FE2D4D8046A91991F8ED00421C002881F8ED204AD1294C04EB860475
:205C2C00277807F03F003F2801D0FFF7E7FF607800F03F003F2801D0FFF7E0FF668837F046
:205C4C007F001AD1F80911D24FF08054D4F8B801406901463046884704F5DC742068406BA1
:205C6C000146304688470128F8D121E005EB8605D5F80011012088471AE04FF08054D4F877
:205C8C00B801C069014630468847D4F8B801406A014630468847D4F8B801C06A0146304663
:205CAC0088470121074A0848116001688908FCD3404605F0DBFDBDE8F081C0463028002025
:205CCC00A4D100002820086028200840294A2DE9F04180460126284816600768002FFCD00C
:205CEC00294C2A4FC020443C206007F1080001682348890804D20168090C41F0F00100E00F
:205D0C0072211E4D85F85412002111638768384601F0FEFA40463946FFF7BEFD1C48B038A9
:205D2C00816D40F20F226FF31F418A4212D901680068C1F30363C0F3034003B15B1E072850
:205D4C0005D006280EBF0720801C00F00F0043EA001028703846FEF7E3FC0E481438006874
:205D6C00C1680220884740202060064F3E60BDE8F081C04610100940940222430260084000
:205D8C00AC3F00509404604244600C40A83F00506C130050B40100102B4AF0B538CAADF10D
:205DAC001C0D02A938C10CCA4FF0805681E80C0084684568D6F8D0112068C9688847216851
:205DCC0022488A6B10408863206840F2F271416495F83C0095F83D202168C0100DEB8000D7
:205DEC00806810434863684605F0ECFC1A4FDFF864E0D6F8D0112B7FDFF854C06A7FA87F4E
:205E0C00496857F823705EF82260AA695CF820300D46206801993E433343A8470F490A1F78
:205E2C00106840F010001060086840F001000860A07DFF2806D0E07DFF2803D0086840F410
:205E4C004040086007B0F0BDB0D200000DF8FFFF9CD2000094D2000084D2000030100040BB
:205E6C002DE9F041DFF8B080044698F800001F4615460E46ADF1380D012804D0FEF7E8FC21
:205E8C004046012101704EB166603DB1A56005F0F1FC224A117819B105F0E8FC002038E073
:205EAC00491CC9B2117005F0E1FC01251FB9684605F066F96F46386820607868E060387AFC
:205ECC002074F8686061386900B1A0610021782204F1200001F0E2F905A8002124220823D3
:205EEC0005F0A8FC04F138008DF82C50002105AA05F09CFC05A800212422082305F0C6FC7C
:205F0C0004F1700006490B94002205AB05F0BAFC20460EB0BDE8F0815D2E00200E3D002055
:205F2C0089B600002DE9F8430D46064668687468D6F80890002710B9E868002850D02078F4
:205F4C00012814D105F096FCD4F8BC1049B1D4F8C0108D61C4F8C05005F088FC0120BDE879
:205F6C00F883C4F8BC50C4F8C05005F07FFC022003F054FF04F160084FF0FF31404605F0E7
:205F8C0039FCD9F8080005F019FC3046294600F067FE0546D9F8080005F018FC207888B99D
:205FAC00B5F1FF3F08D004F17C004FF0FF3105F021FC207A48B110E003202072022003F0DA
:205FCC0015FF0AE0B5F1FF3F01D0012705E00320207204F12C0005F0FDFB404605F0FEFBBE
:205FEC003846BDE8F8837047F8B505F089FA05F099FA044604F00C000C2845D0E0081ED228
:20600C0004F092F9234E376805460120014604F069FD31686943884211D21F4C8220B0FB2E
:20602C00F7F0291A204605F01DFC204605F026FC0120FCF7F9FC204604F016FD25E0200995
:20604C0022D21648610939BF016821F00101016841F0010102460160D2F898004FF080544A
:20606C0040F00300C2F89800D4F8B8018069014620208847D4F8B801094C806B21688047B6
:20608C0001202060206800E030BF05F03FFA01F039FDF8BD50D600003C2800208C21084053
:2060AC002C2009402DE9F0414568876816460C4605F0E0FB0346A86B3246214630B1184664
:2060CC0005F0D4FB4FF0FF30BDE8F081AA6329630024EC7718466C6305F0C8FB05F0CAFBAD
:2060EC001D4E8046307820B9022003F097FE01203070404605F0BAFB1849086840F40070D2
:20610C0008603968886B40F4FA6088636878002818BF201C1ED1696805F1D40005F06AFBFF
:20612C00B8B9AC633968886B20F4FA60886305F0A1FB0746307818B1022003F057FE347089
:20614C00384605F093FB1022696B286BEA77401A2863686BBDE8F0810F3D0020301000407E
:20616C00F8B50D46EEB2290824BF27494D40274BB400DFF89CC0195900EA05020CEA0202AC
:20618C0000F4E02C85EA0107BCF5E02F00EA070721EA0001C7F3006742EA010201D1510E37
:2061AC0014D300F4E0210F4310D002F4E027B7F5A02707D0B7F5803704BF22F4003242F4DA
:2061CC00A02203E022F4803242F4C0221A51114CC10D04D3C5F38052A4F1D0018A55000EE4
:2061EC0010D305F047FB290E03D201220021B24002E00122B24011462368934319432160AB
:20620C0005F034FBF8BDC046006000A000100840007F077FD02002401FB58DF80C00244833
:20622C00016824480088E0B123480068014218D022480068014204D12148006800880142E0
:20624C000FD0224840F24763046800930CA201929DF80C001C4B02901A881A4B186804A305
:20626C00A047032003A9012202F0DEFE00901FBD70726F6A6563745F7A65726F2E6300C098
:20628C002843422920474150205374617465206368616E67653A2025642C2053656E64695B
:2062AC006E67206D736720746F206170702E00C060D60000E6D50000400500003C050000CD
:2062CC00440500007CD600008405000074D600002DE9F0410E46294990461C4606AF8C4678
:2062EC0072680878BB8851783F881278002502EB012242F62321521A29D0521E052A18D935
:20630C00921F0CD0263A34D1072F30D8C7F10700984298BF83B2674407F1080121E0B84275
:20632C0025DBC01B9842D8BF83B22380DCF804000BE0F06804F038FF80B2B84217DBC01BEE
:20634C009842D8BF83B22380F06839180AE0082F0DD8C7F10800984298BF83B207EB0C0114
:20636C000F31238040461A4600F000F903E0072501E025800A252846BDE8F0815C26002075
:20638C00F8B505F077FA224C0746A06910F4602F25D0A069400CC6B2700807D2B00803D2E7
:2063AC00F00828BF022602E0012600E00026751D68B202F0F7F8A16906F111020120904029
:2063CC0081433846A16105F051FA04EB8600876847B1606810A20CCA2946B84702E03846B3
:2063EC0005F044FAA06918B10A48002104F05AFEE07F80080BD367692FB1606808A20CCA10
:20640C006FF00101B847E07F00F0FD00E077F8BDFC3B0020843B002000000000000000087A
:20642C000000000000000080264838B550380468B4F1FF3F08BF002404F098FE224817495F
:20644C00002510380560012008601549086002F075F91448006820B1134800682046FFF7FB
:20646C0035FC124812490560124C0A686FF35B4244EA0200086010490868C0F30130012888
:20648C0006D10A680D48104040F400320A6008600B4908680028FCD138BDC0465C600C400E
:2064AC000822044380012843000120438C210840482003400000390104000940FFFFFCFCF2
:2064CC000C0068426C13005094046042F0B520480127F84201D002F0FFFA204D204F214E7B
:2064EC00BD4206D203CD0478A4003459401CA047F6E71D48002800D08047164D164FBD4231
:20650C0002D210CDA047FAE7F0BD03251BE0416808300A1C2A400BD11A1C2A40AB4305D076
:20652C00046804300C600431043BF9D1131C05D0047801300C700131013BF9D1021C2A4018
:20654C0001D0A84304300368002BE0D17047C046FFFFFFFF0000000000000000F8DD00006A
:20656C0058DE0000A0DD000059C50110002A4AD05FEA000C8B071CD1830722D1102A08D383
:20658C0070B4103A78C978C0103AFBD270BC103238D0042A2CD3082A05D30C2A24BF08C95A
:2065AC0008C008C908C008C908C092072AD0920F22E00B780370491C401C521E22D08B07F4
:2065CC00F7D1C30714D18307D8D0121F12D308C903801B0C4380001D121FF8D20AE008C9DF
:2065EC0003701B0A43701B0A83701B0AC370001D121FF4D2121D05D00B780370491C401C05
:20660C00521EF9D1604670472DE9F843002A894607464CBF47F6FF75151C002F08BF00203D
:20662C0032D03888002808BF002403D02A4600F065F90446281B26DD388828B1291B4846ED
:20664C0012A202F035FD0419B868E0B1D7F804802E1BB8F1000F0DD0404604F0A5FD401DDE
:20666C00B04207DC291B484609A2434602F020FD04192E1B122E06DBBB68291B484606A200
:20668C0002F016FD04192046BDE8F8833A2000C0222573222C2000C06C696E652025643AB9
:2066AC00200070472DE9F04F09AF5FEA00089A46ADF1140DD7F80490029297F800B0039130
:2066CC0037D0081C35D0101C33D0B9F1000F30D01948017800242AE0A00038F800604FF619
:2066EC00FF7708EB0005B7421DD0AF78DFB10298039A514604F07AFD0190A0B1780807D30E
:20670C00CDF80090019A30465B46012101F07EF8A878800807D3CDF800902888019A022198
:20672C005B4601F073F804480178641CE4B2A142D2DC05B0BDE8F08FE42200202DE9F84394
:20674C002020EFF3118780F31188214CA068012105F030F84FF001094FF0000865692168CC
